:10000000000000308A00672AFF00030E8301A6006B
:100010007F08A5000A08AD008A01A50E0408A70004
:100020002008A8002108A9002208AA002308AB0084
:100030002408AC00831383128C308400001C222817
:100040000C183F288D308400001C28280D184128EA
:100050008B1E2C280B194328270884002808A00091
:100060002908A1002A08A2002B08A3002C08A4003C
:100070002D088A00260E8300FF0E7F0E09008A11CC
:1000800061288A11A9288A1153280A108A100A1196
:100090008207743465347334743420346C346F34B0
:1000A0006F34703400340130C5074508033C031831
:1000B0005E28C701C6010430C500C4010B118A11B6
:1000C0002C284208093C031C7028031D6B2841089A
:1000D000C33C031C70280930C200C430C1007F2813
:1000E0004208103C03187F28FF3A031D7B28410873
:1000F000F83C03187F281130C200F830C100431CBF
:1001000094288316861083128614431041084C3CB1
:10011000ED00FF30EE004208031C420FEE026E08B5
:100120008F006D088E00A628831686108312861015
:100130004314FC304107ED004208EE003B30031849
:100140003C30EE076E088F006D088E000C108A118F
:100150002C28C508031DB02844080A3C0318C328EE
:1001600001084407A1004508A3000318A30A2108B9
:10017000003CC6000530C7002308031C230FC7023C
:100180008101C501C4010D108A112C282E122E08E0
:10019000831687008312071683160612831206162B
:1001A000AE112E088316870083128715AE122E0813
:1001B00083168700831287168A11B12A5308D50047
:1001C0005408D6000330D700831606128312061691
:1001D000AE112E0883168700831287112E122E0867
:1001E0008316870083120712D8015808173C031C96
:1001F00026295808033C031805295808073C03180A
:100200000A2958080B3C031C0A290310D50DD60DEA
:10021000D70D24290310D50DD60DD70D031812299B
:10022000871213298716AE122E08831687008312B1
:10023000AE112E088316870083128715AE112E0883
:100240008316870083128711D80AF5282E122E08EC
:10025000831687008312071683160612831206126E
:100260001030A000A00B3229000083160612831262
:1002700006160034023059078400840A840A840A6E
:100280008001840380018403800184038001590874
:100290008400840A800184038001063059078400A9
:1002A000840A5408800084035308800008305907EA
:1002B0008400840A560880008403550880000A30B0
:1002C00059078400840A5808800084035708800076
:1002D0000C305907DA00063059078400840A0008F8
:1002E000DC0084030008DB0001305B07A1005C0830
:1002F000A3000318A30A2108DD002308DE007F30D5
:10030000E000FF30DF005E08E2005D08E100A101CF
:10031000A201A001A3016208031D9129610803192C
:10032000AB291030E3000310DF0DE00DA00DA30D8D
:1003300062082302031D9E2961082002031CA729CD
:100340006108A002031CA3036208A3020314A10D09
:10035000A20DE30B93295A088400840A2208800026
:100360008403210880000E305907DA00083059074D
:100370008400840A0008DC0084030008DB000130EC
:100380005B07A1005C08A3000318A30A2108DD0095
:100390002308DE000408DF003F30E300FF30E20006
:1003A000E100E000E701E6015E08E5005D08E40029
:1003B000A001A101A201A301E801E901EA01EB0109
:1003C00067086604650464040319162A2030EC00EB
:1003D0000310E00DE10DE20DE30DE80DE90DEA0D6E
:1003E000EB0D67086B02031DFF2966086A02031DF7
:1003F000FF2965086902031DFF2964086802031CC0
:10040000102A6408E8026508031C650FE902660803
:10041000031C660FEA026708031C670FEB02031454
:10042000A00DA10DA20DA30DEC0BE82968308400EE
:100430005F0884005A08840020088000840A21088C
:100440008000840A22088000840A230880008A1120
:10045000EA2A54308400000803193B2A0630A10020
:10046000A001A00B312AA10B302A7B30A000A00BE9
:10047000372A800B2E2A00348316861183128611A8
:100480000830A100432A0000A117542AA113D40C5C
:1004900003188615031C86112117542A2113A10B5A
:1004A000472A522A000086150230A0008401840BDE
:1004B000572AA00B562AAD308400840B5D2A602A8F
:1004C0000000A11B462A211B4E2A8A11072B8401FA
:1004D0001F308305831686118312861583161F1419
:1004E0009F141F159F1107309C00FF308312AE0030
:1004F000F830C1001130C2004310C401C501C6016B
:10050000C701C801C901CA01CB01CC01CD01CE018F
:10051000CF01C3104311C311D001D10183161F14A1
:100520009F141F159F1183121F1094018316010839
:10053000C039003881006400831290010030A100AE
:1005400092000030831692001F109F101F119F1100
:100550001F1383121F179F1783169F1783121F14D1
:10056000C6289530900083160108C03906388100EE
:100570008312AE142E088316870083129D01053066
:100580009D0083160D1483128B1683160C14C03035
:1005900083128B04D2018316061083120614D40131
:1005A000D301DE20C31483168612831286168316A7
:1005B0000611831206158316061283120612D40141
:1005C000C030D300D601D501D8011930D7002F3063
:1005D000D9003A290C30D300FA30D4002922D30BA9
:1005E000EC2A0E30C2001030C1000C30D300FA30BB
:1005F000D4002922D30BF72A1130C200F830C100F1
:10060000D30153084520D30AA000D4003C2A093066
:100610005302031D012B83160610831206100730A8
:10062000D400D030D300DE208316061283120612C7
:04063000002B192B57
:02400E003A373F
:00000001FF
;PIC16F873A
;CRC=EDD5  CREATED="29-Nov-13 12:21"
