:1000000008308A0000280000FF00030E8301A600CC
:100010007F08A5000A08AD008A01A50E0408A70004
:100020002008A8002108A9002208AA002308AB0084
:100030002408AC00831383128C308400001C222817
:100040000C183F288D308400001C28280D184128EA
:100050008B1E2C280B194328270884002808A00091
:100060002908A1002A08A2002B08A3002C08A4003C
:100070002D088A00260E8300FF0E7F0E09008A11CC
:1000800053288A11AB288A1145280130C507450835
:10009000033C03185028C701C6010430C500C40141
:1000A0000B118A112C284208093C031C6228031DED
:1000B0005D284108C33C031C62280930C200C430DB
:1000C000C10071284208103C03187128FF3A031D33
:1000D0006D284108F83C031871281130C200F8302F
:1000E000C100431C90288316861083128614431087
:1000F00041084C3C8316A500FF30A600831242083D
:10010000031C420F842887288316A60283128316B5
:10011000260883128F008316250883128E00A828D4
:1001200083168610831286104314FC304107831611
:10013000A500831242088316A6003B3003183C300A
:10014000A607260883128F008316250883128E00C7
:100150000C108A112C28C508031DB22844080A3C3B
:100160000318C52801084407A1004508A300031887
:10017000A30A2108003CC6000530C7002308031C61
:10018000230FC7028101C501C4010D108A112C285B
:100190002E122E0883168700831207168316061266
:1001A00083120616AE112E08831687008312871558
:1001B000AE122E0883168700831287168A154728E9
:1001C0005708D9005808DA000330DB0083160612FE
:1001D00083120616AE112E0883168700831287112C
:1001E0002E122E088316870083120712DC015C088A
:1001F000173C031C28295C08033C031807295C08EA
:10020000073C03180C295C080B3C031C0C29031049
:10021000D90DDA0DDB0D26290310D90DDA0DDB0D12
:1002200003181429871215298716AE122E08831673
:1002300087008312AE112E0883168700831287155C
:10024000AE112E088316870083128711DC0AF72867
:100250002E122E08831687008312071683160612A5
:10026000831206121030A000A00B34290000831660
:100270000612831206160034023059078400840ADD
:10028000840A840A8001840380018403800184033A
:10029000800159088400840A8001840380010630AB
:1002A00059078400840A540880008403530880009E
:1002B000083059078400840A5608800084035508D2
:1002C00080000A3059078400840A5808800084039B
:1002D000570880000C305907DA00063059078400AF
:1002E000840A0008DC0084030008DB0001305B079F
:1002F000A1005C08A3000318A30A2108DD0023085D
:10030000DE007F30E000FF30DF005E08E2005D08C5
:10031000E100A101A201A001A3016208031D93292C
:1003200061080319AD291030E3000310DF0DE00D63
:10033000A00DA30D62082302031DA029610820025D
:10034000031CA9296108A002031CA3036208A302DD
:100350000314A10DA20DE30B95295A088400840A09
:10036000220880008403210880000E305907DA003B
:10037000083059078400840A0008DC008403000860
:10038000DB0001305B07A1005C08A3000318A30A8F
:100390002108DD002308DE000408DF003F30E30011
:1003A000FF30E200E100E000E701E6015E08E50061
:1003B0005D08E400A001A101A201A301E801E90197
:1003C000EA01EB0167086604650464040319182A4E
:1003D0002030EC000310E00DE10DE20DE30DE80D1F
:1003E000E90DEA0DEB0D67086B02031D012A660893
:1003F0006A02031D012A65086902031D012A6408B7
:100400006802031C122A6408E8026508031C650FD1
:10041000E9026608031C660FEA026708031C670FFF
:10042000EB020314A00DA10DA20DA30DEC0BEA2904
:10043000683084005F0884005A0884002008800027
:10044000840A21088000840A22088000840A230884
:1004500080008A15802854308400000803193D2A42
:100460000630A100A001A00B332AA10B322A7B3059
:10047000A000A00B392A800B302A00340030A100E4
:100480008A150E291030F600A001A301F30CF20C1E
:10049000031C502A7408A0070318A30A7508A307B1
:1004A000A30CA00CA20CA10CF60B462A0034D80C0D
:1004B000D70CD80CD70C3F30D80557085502A000F0
:1004C0005608A3005808031C580FA3022008DA009E
:1004D0002308DB000C3059078400840A0008A300BD
:1004E00084030008A100A31F782ADB1F842A7A2A2C
:1004F000DB1B892A23085B02031C892A031D842A2B
:100500005A0821020318892A7F30DD00FF30DC0001
:10051000BA2B0C3059078400840A0008A300840316
:100520000008003CA0002308031C230F992A003078
:100530009A2A003CA3002008A100DB1FA22AA31FC7
:10054000AE2AA42AA31BB32A5B082302031CB32AE6
:10055000031DAE2A21085A020318B32A8030DD0099
:100560000130DC00BA2B063059078400840A0008E9
:10057000ED0084030008EC005B08EF005A08EE0071
:100580008E30A0006F08A1006E08A200A301EF1F2B
:10059000CE2AA109A209A20A0319A10AA108031DD2
:1005A000DB2A2208A100A2010830A002A108031D35
:1005B000DB2AA001E42A0310A11BE22AA20DA10D4F
:1005C000A003DB2AEF1FA1132008EE002108EF0093
:1005D0002208F0002308F1006D08F3006C08F20017
:1005E0008E30A0007308A1007208A200A301A10828
:1005F000031D042B2208A100A2010830A002A108BB
:10060000031D042BA0010C2B0310A11B0B2BA20D0F
:10061000A10DA003042BA1132308F5002208F40068
:100620002108F3002008F2007108F9007008F800B2
:100630006F08F7006E08F600720803198C2BFA0099
:10064000760803198C2BFA0703182D2B7F30FA023A
:10065000031C8C2B03198C2B312B8130FA070318C8
:100660008C2B7A08A000A101A201A3017308FE004F
:10067000FE177408FD007508FC001830FA00FB0135
:100680007C1C5A2B7908A307031C4C2BA20A031DC0
:100690004C2BA10A0319FB177808A207031C532B44
:1006A000A10A0319FB177708F400F4177408A107CF
:1006B0000318FB17FB0DA10CA20CA30CFE0CFD0CE8
:1006C000FC0C0310FA0B3F2B0130A00703188C2BF6
:1006D000A11B712BFE0DA30DA20DA10DA0030319EB
:1006E0008C2BFE1F822BA30A031D822BA20A031D43
:1006F000822BA10A031D822BA10CA20CA30CA00A21
:1007000003198C2B7308FB007708FB06FB1F8A2B51
:10071000A117902BA113902BA001A101A201A3016D
:100720002308F5002208F4002108F3002008F20055
:100730008E30A0007208A0027308A2007408A10005
:10074000A217A0080319AF2B0310A208031DAB2B9F
:10075000A1080319AF2BA20CA10CA00BA42BF31F13
:10076000B62BA109A209A10A0319A20A2208DD00D9
:100770002108DC000230590784000008EC00840ADC
:100780000008ED00840A0008EE00840A0008EF006B
:100790005A08A0005B08A100A201A301DB1FD22B15
:1007A000A203A30320086C07E8006D08E9002108F4
:1007B0000318210FE9076E08EA0022080318220F28
:1007C000EA076F08EB0023080318230FEB070E302E
:1007D000590784000008A000840A0008A100840AC8
:1007E0000008A200840A0008A300A31FFA2BEB1F35
:1007F000122CFC2BEB1B372C23086B02031C372C11
:10080000031D122C22086A02031C372C031D122C14
:1008100021086902031C372C031D122C68082002D2
:100820000318372C3F30E300FF30E200E100E00026
:1008300002305907EC000E30590784000008A00070
:10084000840A0008A100840A0008A200840A0008A3
:10085000A3006C08840020088000840A210880001E
:10086000840A22088000840A230880004B2D0E3061
:10087000590784000008A000840A0008A100840A27
:100880000008A200840A0008A300FD3084072008A5
:10089000003CA0002108031C210F502C0030512CDB
:1008A000003CA1002208031C220F582C0030592CB8
:1008B000003CA2002308031C230F602C0030612C95
:1008C000003CA300EB1F672CA31F7F2C692CA31BEC
:1008D000C22C6B082302031CC22C031D7F2C6A0848
:1008E0002202031CC22C031D7F2C69082102031C59
:1008F000C22C031D7F2C200868020318C22CC030B4
:10090000E300E201E1010130E00002305907EC00B0
:100910000E30590784000008A000840A0008A100D6
:10092000840A0008A200840A0008A300FD3084079E
:100930002008003CA0002108031C210FA12C00303E
:10094000A22C003CA1002208031C220FA92C00307D
:10095000AA2C003CA2002308031C230FB12C00305A
:10096000B22C003CA300F0006C088400200880003A
:10097000840A21088000840A22088000840A700802
:1009800080004B2D02305907840068088000840ADB
:1009900069088000840A6A088000840A6B08800065
:1009A000083059078400840A0008ED008403000819
:1009B000EC000230590784000008A000840A0008F7
:1009C000A100840A0008A200840A0008A300FD30E8
:1009D00084072308F1002208F0002108EF00200816
:1009E000EE000408F200F601F5016D08F4006C0851
:1009F000F3007108FA007008F9006F08F8006E083B
:100A0000F70020308316A400A001A101A201A301D8
:100A100083127608A3007508A2007408A100730869
:100A2000A0000310201C302D77088316A007831226
:100A300078080318780F1D2D202D8316A107831227
:100A400079080318790F252D282D8316A207831204
:100A50007A0803187A0F2D2D302D8316A3078312E1
:100A60008316A30CA20CA10CA00C8312A30CA20C45
:100A7000A10CA00C8316A40B3E2D402D8312112D2A
:100A80008312720884002308E3002208E200210890
:100A9000E1002008E0000A3059078400840A0008B9
:100AA000ED0084030008EC0059088400840A000863
:100AB000EF0084030008EE0057086E02A0006F08E4
:100AC000A3005808031C580FA3022008F0002308B5
:100AD000F1006D08F3006C08F2002308F50020080F
:100AE000F40042222108DE002208DF0059088400B9
:100AF000840A580880008403570880005E085C0759
:100B0000EC005D08ED005F0803185F0FED0760085B
:100B10006C07EE006D08EF0061080318610FEF0726
:100B20006F08F1006E08F000F3018030F2007108E8
:100B300073068039F500F11FA22DF009F109F00AC2
:100B40000319F10AF31FA92DF209F309F20A031997
:100B5000F30AA101A201A001A3017308031DB32D93
:100B600072080319CD2D1030F4000310F00DF10DB3
:100B7000A00DA30D73082302031DC02D72082002CF
:100B8000031CC92D7208A002031CA3037308A3024F
:100B90000314A10DA20DF40BB52DF51FD42DA10941
:100BA000A209A10A0319A20A2208A3002108A00091
:100BB0002208A100A201A301A11FE02DA203A3030B
:100BC0002308E7002208E6002108E5002008E400E9
:100BD000E71BFB2DE708031DF42DE608031DF42D8C
:100BE00065087F3C0318FB2DE701E6017F30E50037
:100BF000FF30E4001A2EE71F1A2E6708FF3C031C83
:100C00001A2E031D132E6608FF3C031C1A2E031D0B
:100C1000132E6508803C031C1A2E031D132E640836
:100C2000003C031C1A2EFF30E700E6008030E50090
:100C30000130E4006408A1006508A2008A15752946
:100C40000530D8001430D700E0200230D300FA304D
:0C0C5000D4002B22D30B272E8A15FB2981
:1010000084011F30830583161F149F141F159F1121
:1010100007309C00FF308312AE00F830C100113061
:10102000C2004310C401C501C601C701C801C901FE
:10103000CA01CB01CC01CD01CE01CF01C3104311B8
:10104000C311D001D10183161F149F141F159F11C6
:1010500083121F10940183160108C03900388100E3
:101060006400831290010030A100920000308316CA
:1010700092001F109F101F119F111F1383121F1723
:101080009F1783169F1783121F148A11C8288A1569
:101090009530900083160108C0390638810083120C
:1010A000AE142E088316870083129D0105309D0023
:1010B00083160D1483128B1683160C14C030831202
:1010C0008B04D2018316061083120614D801D701AF
:1010D0008A11E0208A15C31483168612831286169D
:1010E0008316061283120612D401C030D300D60133
:1010F000D501D8011930D7002F30D9008A113C29E9
:101100008A150C30D300FA30D4008A112B228A15AC
:10111000D30B83280E30C2001030C1000C30D30036
:10112000FA30D4008A112B228A15D30B9028113063
:10113000C200F830C1000830A1001F08C7392104DF
:101140009F002130A000A00BA3281F151F19A6285F
:1011500083161E088312CE001E08CF000030A100A7
:101160001F08C73921049F002130A000A00BB6281A
:101170001F151F19B92883161E088312CC001E08DC
:10118000CD004D08013C031CCF28031DCB284C0883
:101190003B3C031CCF280130CD003C30CC004F0835
:1011A000013C0318E728FF3A031DDA284E08DF3C0C
:1011B0000318E7288316061083120610D801D701FA
:1011C0008A11E0208A15CB01CA01D20160294D089D
:1011D000013C031CF928031DF1284C08403C031C6A
:1011E000F9280630D200FA30D4008A112B228A1551
:1011F0006029C31C0A29C708031D0A294608313C77
:10120000031C0A29FA30D4008A112B228A150130D6
:10121000D20060292F30D3008A113E2A8A15A108F6
:1012200003191B29FA30D4008A112B228A15C31402
:101230000530D20060294F08013C03183729FF3AD6
:10124000031D26294E08D53C031837295208023CB5
:1012500003192E295208043C031D3729FA30D40003
:101260008A112B228A15C3100330D20060294F083F
:10127000013C031C4E29031D41294E088F3C031CD1
:101280004E295208023C03194E29FA30D4008A1123
:101290002B228A15C3140230D20060294F08003C6B
:1012A00003185829FF3A031D59294E08F43C031826
:1012B0000030FA30D4008A112B228A150430D20073
:1012C0003C304C02D3004D08D4000130031C0230E6
:1012D000D4025408D6005308D5004708D800460861
:1012E000D7002F30D9008A11572A8A152208D10039
:1012F0002108D0005008C80751080318510FC9072A
:10130000C91B92294908083C03189229FF3A031D7A
:101310008D294808C43C031892290930C900C430FB
:10132000C800A229C91FA2294908F63C031CA2290A
:10133000031D9E2948083B3C031CA229F630C90026
:101340003C30C800D2080319A9295208063C031DE5
:10135000B629CB01CA01C3101130C200F830C10058
:10136000D801D7018A11E0208A15702A520BB929B9
:10137000BD295208053C031DED29C91BE229C908F6
:10138000031DC6294808003C0318E229F301033075
:10139000F2004908F5004808F4008A1142228A1533
:1013A0002208A3002108F83CA0002208031C220FF9
:1013B000DB291130DC29113CA3002008C1002308DF
:1013C000C200E6291130C200F830C100C314D801B0
:1013D000D7018A11E0208A15702AC91F2D2A5208C8
:1013E000023C0319F7295208043C031D272A431D18
:1013F000FC298A11202E8A154311831606128312A6
:10140000061683160610831206144908A30048081E
:10141000C91F132A4808003CA000A3014908031C67
:10142000490FA3022008D3002308D40084305307B7
:10143000D5005408D600033003180430D6075608E8
:10144000D8005508D7008A11E0208A152C2AD80127
:10145000D7018A11E0208A15652A5208033C031936
:10146000352A5208043C031D602A431583160612D0
:101470008312061283160610831206104908A30071
:101480004808C91F4C2A4808003CA000A30149088D
:10149000031C490FA3022008D3002308D400843082
:1014A0005307D5005408D600033003180430D6077C
:1014B0005608D8005508D7008A11E0208A15652AF9
:1014C000D801D7018A11E0208A15C31C6C2A0B3081
:1014D000C200B830C100702A1130C200F830C1001B
:0414E0009B286300E2
:02400E00723FFF
:00000001FF
;PIC16F873A
;CRC=E52F  CREATED="26-Oct-13 15:49"
