:1000000008308A0000280000FF00030E8301A600CC
:100010007F08A5000A08AD008A01A50E0408A70004
:100020002008A8002108A9002208AA002308AB0084
:100030002408AC00831383128C308400001C222817
:100040000C183F288D308400001C28280D184128EA
:100050008B1E2C280B194328270884002808A00091
:100060002908A1002A08A2002B08A3002C08A4003C
:100070002D088A00260E8300FF0E7F0E09008A11CC
:1000800001298A1159298A11F3280A108A100A11A4
:10009000820743346834653463346B3400340A10A7
:1000A0008A100A118207533474346134743465340D
:1000B0003A34203446347234653461346B3420343D
:1000C0004F347534743420340A3400340A108A10E2
:1000D0000A118207533474346134743465343A3409
:1000E00020345434683472346F34743474346C345F
:1000F000653420344F346634663420340A34003496
:100100000A108A100A11820753347434613474342B
:1001100065343A342034533470346534653464348F
:10012000203454346F3420344C346F3477342034DA
:100130000A3400340A108A100A11820753347434C6
:100140006134743465343A342034523455344E3486
:100150004E34413457344134593420340A34003455
:100160000A108A100A1182075334743461347434CB
:1001700065343A3420344334613470347334203479
:10018000463475346C346C3420340A3400340A102C
:100190008A100A118207533474346134743465341C
:1001A0003A34203443346134703473342034453469
:1001B0006D3470347434793420340A3400340A10C5
:1001C0008A100A11820753347434613474346534EC
:1001D0003A3420344E346F3472346D3461346C34BC
:1001E00020340A3400340130C7074708033C0318A1
:1001F000FE28CB01CA010430C700C6010B118A11C9
:100200002C2843080D3C031C1029031D0B29420810
:10021000AB3C031C10290D30C300AC30C2001F29B9
:100220004308133C03181F29FF3A031D1B294208EA
:10023000B43C03181F291430C300B430C200AF1CF3
:100240003E298316861083128614AF1042084C3C58
:100250008316A600FF30A70083124308031C430F38
:10026000322935298316A7028312831627088312A1
:100270008F008316260883128E0056298316861057
:1002800083128610AF14FC3042078316A600831237
:1002900043088316A7003B3003183C30A707270804
:1002A00083128F008316260883128E000C108A1189
:1002B0002C28C708031D602946080A3C0318732927
:1002C00001084607A1004708A3000318A30A210854
:1002D000003CCA000530CB002308031C230FCB02CF
:1002E0008101C701C6010D108A112C282E122E087B
:1002F00083168700831207168316861283128616CA
:10030000AE112E088316870083128715AE122E08B1
:1003100083168700831287168A154F285B08DD0035
:100320005C08DE000330DF00831686128312861617
:10033000AE112E0883168700831287112E122E0805
:100340008316870083120712E0016008173C031C24
:10035000D6296008033C0318B5296008073C031838
:10036000BA2960080B3C031CBA290310DD0DDE0D11
:10037000DF0DD4290310DD0DDE0DDF0D0318C229BA
:100380008712C3298716AE122E08831687008312A0
:10039000AE112E088316870083128715AE112E0822
:1003A0008316870083128711E00AA5292E122E08D2
:1003B000831687008312071683168612831286120D
:1003C0001030A000A00BE2290000831686128312D1
:1003D0008616003402305D078400840A840A840A89
:1003E00080018403800184038001840380015D080F
:1003F0008400840A80018403800106305D07840044
:10040000840A5808800084035708800008305D077C
:100410008400840A5A0880008403590880000A3046
:100420005D078400840A5C08800084035B08800008
:100430000C305D07DE0006305D078400840A00088A
:10044000E00084030008DF0001305F07A1006008BE
:10045000A3000318A30A2108E1002308E2007F306B
:10046000E400FF30E3006208E6006108E500A10156
:10047000A201A001A3016608031D412A6508031912
:100480005B2A1030E7000310E30DE40DA00DA30D6F
:1004900066082302031D4E2A65082002031C572A02
:1004A0006508A002031CA3036608A3020314A10DA0
:1004B000A20DE70B432A5E088400840A220880000C
:1004C0008403210880000E305D07DE0008305D07E0
:1004D0008400840A0008E00084030008DF00013083
:1004E0005F07A1006008A3000318A30A2108E10028
:1004F0002308E2000408E3003F30E700FF30E60095
:10050000E500E400EB01EA016208E9006108E800A7
:10051000A001A101A201A301EC01ED01EE01EF0197
:100520006B086A04690468040319C62A2030F000C5
:100530000310E40DE50DE60DE70DEC0DED0DEE0DF0
:10054000EF0D6B086F02031DAF2A6A086E02031DD0
:10055000AF2A69086D02031DAF2A68086C02031CEC
:10056000C02A6808EC026908031C690FED026A08DA
:10057000031C6A0FEE026B08031C6B0FEF020314DF
:10058000A00DA10DA20DA30DF00B982A6C308400D4
:10059000630884005E08840020088000840A210823
:1005A0008000840A22088000840A230880008A15BB
:1005B00087285830840000080319EB2A0630A10070
:1005C000A001A00BE12AA10BE02A7B30A000A00B28
:1005D000E72A800BDE2A0034580800340030A100DE
:1005E0008A153B29DC0CDB0CDC0CDB0C3F30DC051A
:1005F0005B085902A0005A08A3005C08031C5C0FAA
:10060000A3022008DE002308DF000C305D07840011
:10061000840A0008A30084030008A100A31F132B71
:10062000DF1F1F2B152BDF1B242B23085F02031C4E
:10063000242B031D1F2B5E0821020318242B7F305F
:10064000E100FF30E000842C0C305D078400840A58
:100650000008A30084030008003CA0002308031C3A
:10066000230F342B0030352B003CA3002008A100C1
:10067000DF1F3D2BA31F492B3F2BA31B4E2B5F08D6
:100680002302031C4E2B031D492B21085E02031875
:100690004E2B8030E1000130E000842C06305D07F5
:1006A0008400840A0008F10084030008F0005F0859
:1006B000F3005E08F2008E30A0007308A1007208FB
:1006C000A200A301F31F692BA109A209A20A031921
:1006D000A10AA108031D762B2208A100A20108305F
:1006E000A002A108031D762BA0017F2B0310A11BE4
:1006F0007D2BA20DA10DA003762BF31FA1132008C3
:10070000F2002108F3002208F4002308F500710824
:10071000F7007008F6008E30A0007708A100760878
:10072000A200A301A108031D9F2B2208A100A20182
:100730000830A002A108031D9F2BA001A72B0310C6
:10074000A11BA62BA20DA10DA0039F2BA113230873
:10075000F9002208F8002108F7002008F6007508C3
:10076000FD007408FC007308FB007208FA007608AC
:100770000319562C8316A00083127A080319562CED
:100780008316A0070318CF2B7F30A0020318CA2BB3
:100790008312562C031DCE2B8312562CD52B813061
:1007A000A007031CD52B8312562C20088312A0000F
:1007B000A101A201A30177088316A400A417831244
:1007C00078088316A300831279088316A2001830D4
:1007D000A000A101221C0F2C83127D08A307031C7B
:1007E000FA2BA20A031DFA2BA10A031DFA2B83166A
:1007F000A11783127C08A207031C042CA10A031D65
:10080000042C8316A11783127B08F800F8177808C8
:10081000A107031C0E2C8316A11783128316A10DAA
:100820008312A10CA20CA30C8316A40CA30CA20C83
:100830000310A00BE92B01308312A0070318562CDC
:10084000A11B2B2C8316A40D8312A30DA20DA10DA9
:10085000A0030319562C8316A41F452C8312A30A48
:100860000319342C8316452CA20A0319392C83163C
:10087000452CA10A03193E2C8316452CA10CA20C71
:10088000A30CA00A0319562C83168312770883162B
:10089000A10083127B088316A106A11F532C83128B
:1008A000A1175A2C83168312A1135A2CA001A1015F
:1008B000A201A3012308F9002208F8002108F7008B
:1008C0002008F6008E30A0007608A0027708A2006B
:1008D0007808A100A217A0080319792C0310A20818
:1008E000031D752CA1080319792CA20CA10CA00BD7
:1008F0006E2CF71F802CA109A209A10A0319A20AD4
:100900002208E1002108E00002305D0784000008B1
:10091000F000840A0008F100840A0008F200840A4A
:100920000008F3005E08A0005F08A100A201A30177
:10093000DF1F9C2CA203A30320087007EC007108A2
:10094000ED0021080318210FED077208EE002208C0
:100950000318220FEE077308EF0023080318230F74
:10096000EF070E305D0784000008A000840A00082D
:10097000A100840A0008A200840A0008A300A31FA3
:10098000C42CEF1FDC2CC62CEF1B012D23086F029B
:10099000031C012D031DDC2C22086E02031C012DFB
:1009A000031DDC2C21086D02031C012D031DDC2C12
:1009B0006C0820020318012D3F30E700FF30E600ED
:1009C000E500E40002305D07F0000E305D078400B2
:1009D0000008A000840A0008A100840A0008A20000
:1009E000840A0008A3007008840020088000840A9C
:1009F00021088000840A22088000840A23088000DD
:100A0000152E0E305D0784000008A000840A00083F
:100A1000A100840A0008A200840A0008A300FD3097
:100A200084072008003CA0002108031C210F1A2D78
:100A300000301B2D003CA1002208031C220F222D98
:100A40000030232D003CA2002308031C230F2A2D75
:100A500000302B2D003CA300EF1F312DA31F492D8B
:100A6000332DA31B8C2D6F082302031C8C2D031D1B
:100A7000492D6E082202031C8C2D031D492D6D0883
:100A80002102031C8C2D031D492D20086C02031824
:100A90008C2DC030E700E601E5010130E4000230B2
:100AA0005D07F0000E305D0784000008A000840A96
:100AB0000008A100840A0008A200840A0008A3001C
:100AC000FD3084072008003CA0002108031C210FF2
:100AD0006B2D00306C2D003CA1002208031C220F5E
:100AE000732D0030742D003CA2002308031C230F3B
:100AF0007B2D00307C2D003CA300F40070088400A6
:100B000020088000840A21088000840A22088000CE
:100B1000840A74088000152E02305D0784006C087A
:100B20008000840A6D088000840A6E088000840AB0
:100B30006F08800008305D078400840A0008F10017
:100B400084030008F00002305D0784000008A00064
:100B5000840A0008A100840A0008A200840A000890
:100B6000A300FD3084072308F5002208F4002108C3
:100B7000F3002008F2000408F600FA01F9017108F8
:100B8000F8007008F7007508FE007408FD0073088F
:100B9000FC007208FB0020308316A400A001A10114
:100BA000A201A30183127A08A3007908A2007808A1
:100BB000A1007708A0000310201CFA2D7B088316E3
:100BC000A00783127C0803187C0FE72DEA2D8316FB
:100BD000A10783127D0803187D0FEF2DF22D8316D8
:100BE000A20783127E0803187E0FF72DFA2D8316B5
:100BF000A30783128316A30CA20CA10CA00C8312D2
:100C0000A30CA20CA10CA00C8316A40B082E0A2E78
:100C10008312DB2D8312760884002308E700220864
:100C2000E6002108E5002008E4000A305D078400A2
:100C3000840A0008F10084030008F0005D088400C5
:100C4000840A0008F30084030008F2005B087202C3
:100C5000A0007308A3005C08031C5C0FA30220081B
:100C6000F4002308F5007108F7007008F600750815
:100C7000F9007408F8001030FA00A001A301F70C85
:100C8000F60C031C492E7808A0070318A30A79085C
:100C9000A307A30CA00CA20CA10CFA0B3F2E210859
:100CA000E2002208E3005D088400840A5C088000FA
:100CB00084035B08800062086007F0006108F100AF
:100CC00063080318630FF10764087007F2007108E6
:100CD000F30065080318650FF3077308F500720841
:100CE000F400F7018030F600750877068039F900C6
:100CF000F51F7F2EF409F509F40A0319F50AF71F09
:100D0000862EF609F709F60A0319F70AA101A201CE
:100D1000A001A3017708031D902E76080319AA2EBF
:100D20001030F8000310F40DF50DA00DA30D770899
:100D30002302031D9D2E76082002031CA62E760892
:100D4000A002031CA3037708A3020314A10DA20DA4
:100D5000F80B922EF91FB12EA109A209A10A0319BD
:100D6000A20A2208A3002108A0002208A100A201D3
:100D7000A301A11FBD2EA203A3032308EB00220899
:100D8000EA002108E9002008E800EB1BD82EEB0858
:100D9000031DD12EEA08031DD12E69087F3C0318DC
:100DA000D82EEB01EA017F30E900FF30E800F72E92
:100DB000EB1FF72E6B08FF3C031CF72E031DF02ED4
:100DC0006A08FF3C031CF72E031DF02E6908803CC7
:100DD000031CF72E031DF02E6808003C031CF72EA1
:100DE000FF30EB00EA008030E9000130E8006808DD
:100DF000A1006908A2008A15CA290530DC00143058
:100E0000DB008E210230D700FA30D800D922D70B70
:060E1000042F8A15422A9E
:1010000084011F308305001483161F149F141F15BD
:101010009F1107309C00FF308312AE002F10B430B8
:10102000C2001430C300AF102F11AF11C401C501AD
:10103000C601C701C801C901CA01CB01CC01CD015C
:10104000CE01CF01D001D101D201D3012F12AF12B5
:101050002F13D401D50183161F149F141F159F1140
:1010600083121F10940183160108C03900388100D3
:101070006400831290010030A100920000308316BA
:1010800092001F109F101F119F111F1383121F1713
:101090009F1783169F1783121F148A1176298A15AA
:1010A0009530900083160108C039063881008312FC
:1010B000AE142E088316870083129D0105309D0013
:1010C00083160D1483128B1683160C14C0308312F2
:1010D0008B04D6018316061083120610DC01DB0197
:1010E0008A118E218A152F16831606118312061572
:1010F0008316061283120612D8018030D700DA0157
:10110000D901DC01DB013030DD008A11EA298A15C2
:101110000C30D700FA30D8008A11D9228A15D70BA3
:101120008A28D70157088A1145208A15D70AA000B6
:10113000D8008A11EC228A1505305702031D922827
:101140009630D8008A11D9228A150830A1001F08CC
:10115000C73921049F002130A000A00BAD281F1526
:101160001F19B02883161E088312D2001E08D30050
:101170000030A1001F08C73921049F002130A000C2
:10118000A00BC0281F151F19C32883161E08831221
:10119000D0001E08D1005108013C031CD928031DB2
:1011A000D52850083B3C031CD9280130D1003C30E5
:1011B000D0005308013C03180029FF3A031DE4281E
:1011C0005208DF3C03180029D70157088A114F2025
:1011D0008A15D70AA000D8008A11EC228A1512308D
:1011E0005702031DE5288316061083120610DC0142
:1011F000DB018A118E218A15CF01CE01D601B529D6
:101200005108013C031C1C29031D0A295008403CBD
:10121000031C1C290630D600D70157088A11662006
:101220008A15D70AA000D8008A11EC228A15153039
:101230005702031D0D29B5292F1E3729CB08031D81
:1012400037294A08313C031C3729D70157088A112E
:1012500080208A15D70AA000D8008A11EC228A15AE
:1012600015305702031D26290130D600B52930302C
:10127000D7008A11EE2A8A15A10803195229D7012D
:1012800057088A119A208A15D70AA000D8008A1117
:10129000EC228A1511305702031D40292F16053004
:1012A000D600B5295308013C03187829FF3A031DDD
:1012B0005D295208D53C031878295608023C0319C9
:1012C00065295608043C031D7829D70157088A115F
:1012D000B0208A15D70AA000D8008A11EC228A15FE
:1012E00012305702031D66292F120330D600B5298C
:1012F0005308013C031C9929031D822952084E3CC6
:10130000031C99295608023C03199929D70157084B
:101310008A11C7208A15D70AA000D8008A11EC22AA
:101320008A1513305702031D87292F160230D60065
:10133000B5295308003C0318A329FF3A031DA4292B
:101340005208B33C03180030D70157088A11DF2038
:101350008A15D70AA000D8008A11EC228A150F300E
:101360005702031DA5290430D6003C305002D70097
:101370005108D8000130031C0230D8025808DA00A6
:101380005708D9004B08DC004A08DB003030DD008C
:101390008A11F22A8A152208D5002108D40054089F
:1013A000CC0755080318550FCD07CD1BE7294D086D
:1013B000083C0318E729FF3A031DE2294C08C43C06
:1013C0000318E7290930CD00C430CC00F729CD1F20
:1013D000F7294D08FE3C031CF729031DF3294C088F
:1013E0000B3C031CF729FE30CD000C30CC00D60896
:1013F0000319FE295608063C031D0B2ACF01CE0116
:101400002F121430C300B430C200DC01DB018A119A
:101410008E218A15B72A560B0E2A122A5608053C29
:10142000031D342ACD1B292ACD08031D1B2A4C0875
:10143000003C0318292A4C08B43CA0001430A30037
:101440004D08031C4D0FA3022008C2002308C3004F
:101450002D2A1430C300B430C2002F16DC01DB018A
:101460008A118E218A15B72ACD1F742A5608023C8C
:1014700003193E2A5608043C031D6E2AAF1E432A58
:101480008A11FD2E8A15AF128316061283120616D4
:1014900083160610831206144D08A3004C08CD1FB6
:1014A0005A2A4C08003CA000A3014D08031C4D0F14
:1014B000A3022008D7002308D80084305707D9009A
:1014C0005808DA00033003180430DA075A08DC0041
:1014D0005908DB008A118E218A15732ADC01DB0191
:1014E0008A118E218A15AC2A5608033C03197C2ADE
:1014F0005608043C031DA72AAF1683160612831252
:10150000061283160610831206104D08A3004C081D
:10151000CD1F932A4C08003CA000A3014D08031CDA
:101520004D0FA3022008D7002308D80084305707A6
:10153000D9005808DA00033003180430DA075A08D3
:10154000DC005908DB008A118E218A15AC2ADC01E7
:10155000DB018A118E218A152F1EB32A1130C30098
:101560009430C200B72A1430C300B430C2009128AE
:02157000630016
:02400E00723FFF
:00000001FF
;PIC16F873A
;CRC=F28C  CREATED="15-Jun-13 17:42"
