:10000000000000308A00F12CFF00030E8301A600DF
:100010007F08A5000A08AD008A01A50E0408A70004
:100020002008A8002108A9002208AA002308AB0084
:100030002408AC00831383128C308400001C222817
:100040000C183F288D308400001C28280D184128EA
:100050008B1E2C280B194328270884002808A00091
:100060002908A1002A08A2002B08A3002C08A4003C
:100070002D088A00260E8300FF0E7F0E09008A11CC
:1000800055298A1158298A1146290A108A100A11FD
:10009000820742345234453441344B3449344E346F
:1000A000473420340A3400340A108A100A118207B7
:1000B00041344334433445344C3445345234413470
:1000C000543449344E34473420340A3400340A104E
:1000D0008A100A11820769346E34703475347434AE
:1000E000203425346C346434203472342034253484
:1000F0006C3475342034733470346534653464344E
:10010000203425346C3464342034743468347234CC
:100110006F34743474346C346534203425346C3466
:10012000643420340A3400340A108A100A11820719
:100130004D3461347834203425346C3464342034C4
:1001400066346134633474346F347234203425344B
:100150006C346434203461346E346434203470344C
:1001600069346434203425346C34643400340A1027
:100170008A100A118207703420346C346534733469
:10018000733420346534723472346F3472342034F2
:1001900025346C34643420346134203425346C3498
:1001A000643420347034203425346C3464340034A6
:1001B0000A108A100A1182070A3420346734723414
:1001C0006534613474346534723420347434653485
:1001D0006D347034203425346C346434203461340C
:1001E000203425346C3464342034733475346D34E5
:1001F000203425346C34643400340A148A100A1113
:1002000082070A3420346C346534733473342034F8
:10021000743465346D347034203425346C34643473
:1002200020346134203425346C3464342034733405
:1002300075346D34203425346C34643400340A143D
:100240008A100A1182070A34203470345F347434FF
:10025000653472346D34203425346C346434203485
:1002600064345F347434653472346D34203425342E
:100270006C346434203469345F34743465347234DB
:100280006D34203425346C34643400340130C707B5
:100290004708033C031852290530CB00CA0104303B
:1002A000C700C6010B118A112C280C108A112C28AA
:1002B000C708031D5F2946080A3C0318692901087D
:1002C0004607CA004708CB000318CB0A8101C701C3
:1002D000C6010D108A112C282E122E0883168700B5
:1002E000831207168316861283128616AE112E0805
:1002F0008316870083128715AE122E088316870097
:10030000831287168A11422D5C08DE005D08DF002B
:100310000330E0008316861283128616AE112E0873
:1003200083168700831287112E122E0883168700EA
:1003300083120712E1016108173C031CCC296108F4
:10034000033C0318AB296108073C0318B029610876
:100350000B3C031CB0290310DE0DDF0DE00DCA2994
:100360000310DE0DDF0DE00D0318B8298712B9293F
:100370008716AE122E08831687008312AE112E0840
:100380008316870083128715AE112E088316870007
:1003900083128711E10A9B292E122E0883168700EB
:1003A0008312071683168612831286121030A0005D
:1003B000A00BD829000083168612831286160034FB
:1003C00083168611831286110830A100E7290000E8
:1003D000A117FA29A1138316AA0C831203188615F4
:1003E000031C86112117FA292113A10BEB29F829E7
:1003F000000086150230A0008401840BFD29A00BAB
:10040000FC29AD308400840B032A062A0000A11BBE
:10041000EA29211BF42900340408FD00F71F182ADB
:10042000FD177D1EFD0AF609F709F60A0319F70AFA
:10043000770EF038F900F907E23EFA00323EFC0090
:1004400077080F39FA07FA07FC07E93EFB00FB07BC
:10045000FB07760E0F39FB07FC07FB0DFC0DFC09B3
:10046000FC0D76080F39FC07F90D0730F8000A304B
:10047000FC07FB03031C382AFB07FA03031C3C2A76
:10048000FA07F903031C402AF907F803031C442A5E
:100490007830840007307D057D1384037D05031DBE
:1004A000582A7D1A840A7D1A582A2030A000752AFD
:1004B00084077C30040203197D170008A000031D87
:1004C000692A7D1B692A7D1A7F2AFD19692A203035
:1004D000742AFD1F712A2D30A00084037D13FD13A3
:1004E000752AFD157D123030A007F7010408F600CB
:1004F00020088316AA008312E02176088400840A6B
:100500007D1F592A0034A001A101A201A301831675
:10051000B201B301B401B501310830042F042E0437
:100520000319C42A2030B6000310AA0DAB0DAC0D80
:10053000AD0DB20DB30DB40DB50D31083502031D6F
:10054000AB2A30083402031DAB2A2F083302031DE7
:10055000AB2A2E083202031CBC2A2E08B2022F0836
:10056000031C2F0FB3023008031C300FB4023108F4
:10057000031C310FB50203148312A00DA10DA20DAF
:10058000A30D8316B60B942AB23084008312003474
:1005900002305E078400840A840A840A800184038E
:1005A000800184038001840380015E088400840A42
:1005B00080018403800106305E078400840A5908A4
:1005C000800084035808800008305E078400840A95
:1005D0005B08800084035A0880000A305E078400AC
:1005E000840A5D08800084035C0880000C305E078C
:1005F000DF0006305E078400840A0008E1008403FF
:100600000008E00001306007A1006108A3000318A2
:10061000A30A2108E2002308E3007F30E500FF3051
:10062000E4006308E7006208E600A101A201A0015E
:10063000A3016708031D1F2B66080319392B10300F
:10064000E8000310E40DE50DA00DA30D67082302DB
:10065000031D2C2B66082002031C352B6608A00204
:10066000031CA3036708A3020314A10DA20DE80B4A
:10067000212B5F088400840A22088000840321085B
:10068000800008305E078400840A0008E0008403CC
:100690000008DF000C305E078400840A0008E200D6
:1006A00084030008E100E30163089420E30AA0004A
:1006B0008316AA008312E02104306302031D542B29
:1006C000103084007F30F700FF30F6000C22073036
:1006D000E40064089420E40AA0008316AA008312B0
:1006E000E0210F306402031D692B10308400600884
:1006F000F7005F08F6000C221230E5006508942030
:10070000E50AA0008316AA008312E0211B306502CF
:10071000031D7E2B103084006208F7006108F6008C
:100720000C220E305E07DF0008305E078400840A6A
:100730000008E10084030008E00001306007A10028
:100740006108A3000318A30A2108E2002308E300BC
:100750000408E4003F308316AD00FF30AC00AB006E
:10076000AA00B101B001831223088316AF008312DF
:1007700021088316AE0083128322640884005F0878
:10078000840020088000840A21088000840A22084E
:100790008000840A230880008A11742D5930840057
:1007A00000080319E02B0630A100A001A00BD62BF6
:1007B000A10BD52B7B30A000A00BDC2B800BD32B07
:1007C000003404088316A400A31FF32BA403A4166B
:1007D000A009A109A209A309A00A0319A10A0319E2
:1007E000A20A0319A30A3B30A9009A30A800CA3014
:1007F000A700A6010A30A5002308AD002208AC001E
:100800002108AB002008AA002908B1002808B00080
:100810002708AF002608AE00831283220008831643
:10082000A000840A0008A100840A0008A200840A2B
:100830000008A300FD3084078312A008031D372C95
:1008400083162508013A031D272C8312372C240810
:1008500003193A2C0F3925020319302C0318662C82
:10086000A41B662C241B3A2C20305E2C83122030D3
:100870008316A405A41E4B2CA412831220088316F1
:10088000A4002D30AA008312E021831624088312CD
:10089000A0008316A4013030A41E5E2CA412831283
:1008A00020088316A4002D30AA008312E0218316AD
:1008B00024088312A0008316A40130308312A007FD
:1008C00020088316AA008312E02183162908AD00B0
:1008D0002808AC002708AB002608AA00B101B00127
:1008E000AF010A30AE008312832223088316A900C9
:1008F000831222088316A800831221088316A700FA
:10090000831220088316A600A50BFC2B831200344B
:100910000530DD001430DC0084210430D800FA30CA
:10092000D900CE23D80B8F2C8A11032E0408E400A3
:100930005E0EF038E000E007E23EE100323EE30008
:100940005E080F39E107E107E307E93EE200E2074D
:10095000E2075D0E0F39E207E307E20DE30DE3095D
:10096000E30D5D080F39E307E00D0730DF000A30C3
:10097000E307E203031CB82CE207E103031CBC2CD1
:10098000E107E003031CC02CE007DF03031CC42CB9
:100990005F30840007306405641384076330040209
:1009A000031964170008A000031DDE2C641BDE2C55
:1009B000641AEC2CE419DE2C2030E12CE4156412CE
:1009C0003030A007DE010408DD0020088316AA00ED
:1009D0008312E0215D088400840A641FCE2C8A11F2
:1009E0006C2E84011F3083058316861183128615B1
:1009F00083161F149F141F159F1107309C00FF3092
:100A00008312AE002F10B430C2001430C300AF10F8
:100A10002F11AF11C401C501C601C701C801C90129
:100A2000CA01CB01CC01CD01CE01CF01D001D10152
:100A3000D201D3012F12D401D501D601D7018316DB
:100A40001F149F141F159F1183121F1094018316EA
:100A50000108C03900388100640083129001003021
:100A6000A10092000030831692001F109F101F11EA
:100A70009F111F1383121F179F1783169F1783122F
:100A80001F146C299530900083160108C039063870
:100A900081008312AE142E088316870083129D01F5
:100AA00005309D0083160D1483128B1683160C14CB
:100AB000C03083128B048316061083120610DD01EA
:100AC000DC01842183160611831206158316061293
:100AD00083120612D9018030D800DB01DA01DD0172
:100AE000DC013030DE00C82A0C30D800FA30D900E2
:100AF000CE23D80B762D0830A1001F08C73921045A
:100B00009F002130A000A00B832D1F151F19862DDB
:100B100083161E088312D2001E08D3000030A100E5
:100B20001F08C73921049F002130A000A00B962D7B
:100B30001F151F19992D83161E088312D0001E0839
:100B4000D1005108013C031CAF2D031DAB2D5008F3
:100B50003B3C031CAF2D0130D1003C30D0004B0892
:100B6000D7004A08D6003C305002D8005108D900BE
:100B70000130031C0230D9025608003CDA0005306F
:100B8000DB005708031C570FDB025908DD0058082B
:100B9000DC005B08DF005A08DE003030E0008A1518
:100BA00000288A112208D5002108D4005408CC0757
:100BB00055080318550FCD07CD1BEE2D4D08083CE9
:100BC0000318EE2DFF3A031DE92D4C08C43C031811
:100BD000EE2D0930CD00C430CC00FE2DCD1FFE2DF2
:100BE0004D08FE3C031CFE2D031DFA2D4C08D33C82
:100BF000031CFE2DFE30CD00D430CC00CD1F1A2EAC
:100C00002F1E032E882C2F1283160612831206160F
:100C10008316061083120614D80158084520D80AF6
:100C2000A0008316AA008312E0210A305802031D97
:100C30000D2E302E2F1683160612831206128316DF
:100C4000061083120610D80158085420D80AA000B4
:100C50008316AA008312E0210E305802031D242EB1
:100C60003C305002D8005108D9000130031C02303A
:100C7000D9025608003CDA000530DB005708031C97
:100C8000570FDB02DC015C086720DC0AA00083163A
:100C9000AA008312E02106305C02031D432E1030AF
:100CA00084005908F7005808F6000C2220308316FB
:100CB000AA008312E02172308316AA008312E02179
:100CC00020308316AA008312E021103084005508DA
:100CD000DE005408DD00962C0F30DD005D08672033
:100CE000DD0AA0008316AA008312E02116305D02FF
:100CF000031D6E2E103084005B08F7005A08F600C2
:100D00000C221930DE005E086720DE0AA000831680
:100D1000AA008312E02123305E02031D832E1030CF
:100D200084004D08F7004C08F6000C222030831692
:100D3000AA008312E0210A308316AA008312E02160
:100D40004D08A3004C08CD1FAE2E4C08003CA0005F
:100D5000A3014D08031C4D0FA3022008D80023084F
:100D6000D90084302007DA002308DB0003300318A1
:100D70000430DB075B08DD005A08DC0084217B2D92
:020D8000C02E83
:10100000DF0CDE0CDF0CDE0C3F30DF055E085C021F
:10101000A0005D08A3005F08031C5F0FA302200867
:10102000E1002308E2000C3060078400840A000815
:10103000A30084030008A100A31F2128E21F2D287C
:101040002328E21B322823086202031C3228031DD6
:101050002D2861082102031832287F30E400FF3078
:10106000E300012A0C3060078400840A0008A30012
:1010700084030008003CA0002308031C230F42281F
:1010800000304328003CA3002008A100E21F4B28A9
:10109000A31F57284D28A31BC12862082302031C45
:1010A000C128031D5728210861020318C128803078
:1010B000E4000130E3000C3060078400840A00087B
:1010C000A30084030008003CF300F4012308031C80
:1010D000230FF402F50175088A11B7208A15F50A65
:1010E000A0008316AA008A118312E0218A150D3010
:1010F0007502031D6B28103084006208F700610838
:10110000F6008A110C228A1520308316AA008A1153
:101110008312E0218A1561308316AA008A11831296
:10112000E0218A1520308316AA008A118312E0215B
:101130008A15103084007408F7007308F6008A11CD
:101140000C228A1520308316AA008A118312E0210E
:101150008A1570308316AA008A118312E0218A153D
:1011600020308316AA008A118312E0218A151030DC
:1011700084006408F7006308F6008A110C228A15BF
:10118000012A063060078400840A0008F400840302
:101190000008F3006208F6006108F5008E30A00038
:1011A0007608A1007508A200A301F61FDC28A1099A
:1011B000A209A20A0319A10AA108031DE92822080D
:1011C000A100A2010830A002A108031DE928A00186
:1011D000F2280310A11BF028A20DA10DA003E928FD
:1011E000F61FA1132008F5002108F6002208F700D9
:1011F0002308F8007408FA007308F9008E30A00084
:101200007A08A1007908A200A301A108031D1229F0
:101210002208A100A2010830A002A108031D122982
:10122000A0011A290310A11B1929A20DA10DA003C9
:101230001229A1132308FC002208FB002108FA0050
:101240002008F90078088316A30083127708831614
:10125000A200831276088316A100831275088316F4
:10126000A000831279080319D3298316A40020084B
:10127000031D3C298312D329A40703184A297F3070
:10128000A402031845298312D329031D4929831277
:10129000D32950298130A407031C50298312D32954
:1012A00024088312A000A101A201A3017A088316D9
:1012B000A800A81783127B088316A70083127C0856
:1012C0008316A6001830A400A501261C8E29230829
:1012D0008312A307031C7529A20A031D7529A10AFD
:1012E000031D75298316A5178312831622088312FE
:1012F000A207031C8129A10A031D81298316A517B2
:101300008312831621088312FB00FB177B08A107B9
:10131000031C8D298316A51783128316A50D83122E
:10132000A10CA20CA30C8316A80CA70CA60C0310EE
:10133000A40B642901308312A0070318D329A11B31
:10134000AA298316A80D8312A30DA20DA10DA00337
:101350000319D3298316A81FC4298312A30A0319CA
:10136000B3298316C429A20A0319B8298316C429EC
:10137000A10A0319BD298316C429A10CA20CA30C30
:10138000A00A0319D329831683127A088316A500AD
:101390002108A506A51FD0298312A117D7298316D6
:1013A0008312A113D729A001A101A201A30123083F
:1013B000FC002208FB002108FA002008F9008E300A
:1013C000A0007908A0027A08A2007B08A100A21759
:1013D000A0080319F6290310A208031DF229A10889
:1013E0000319F629A20CA10CA00BEB29FA1FFD2969
:1013F000A109A209A10A0319A20A2208E4002108EE
:10140000E3000230600784000008F300840A00084B
:10141000F400840A0008F500840A0008F600610858
:10142000A0006208A100A201A301E21F192AA203E1
:10143000A30320087307EF007408F00021080318C5
:10144000210FF0077508F10022080318220FF10799
:101450007608F20023080318230FF2070E30600706
:1014600084000008A000840A0008A100840A000883
:10147000A200840A0008A300A31F412AF21F592AD0
:10148000432AF21B112B23087202031C112B031D8C
:10149000592A22087102031C112B031D592A210805
:1014A0007002031C112B031D592A6F082002031818
:1014B000112B3F30EA00FF30E900E800E70002307E
:1014C0006007F3000E30600784000008A000840A63
:1014D0000008A100840A0008A200840A0008A300F2
:1014E0007308840020088000840A21088000840A90
:1014F00022088000840A230880000E3060078400E0
:101500000008F300840A0008F400840A0008F500CB
:10151000840A0008F6000230600784000008F70023
:10152000840A0008F800840A0008F900840A000808
:10153000FA00FB017B088A11D8208A15FB0AA0005B
:101540008316AA008A118312E0218A150F307B02CC
:10155000031D9A2A4130840072088316A300831267
:1015600071088316A200831270088316A1008312EB
:101570006F088316A0008A118312E1238A15203098
:101580008316AA008A118312E0218A15613083161E
:10159000AA008A118312E0218A1520308316AA003E
:1015A0008A118312E0218A1541308400760883165F
:1015B000A300831275088316A20083127408831691
:1015C000A100831273088316A0008A118312E123FD
:1015D0008A151830FC007C088A11D8208A15FC0A6C
:1015E000A0008316AA008A118312E0218A151D30FB
:1015F0007C02031DEB2A413084007A088316A30085
:10160000831279088316A200831278088316A1003A
:10161000831277088316A0008A118312E1238A15AA
:10162000B82C0E30600784000008A000840A00086F
:10163000A100840A0008A200840A0008A300FD306B
:1016400084072008003CA0002108031C210F2A2B3E
:1016500000302B2B003CA1002208031C220F322B50
:101660000030332B003CA2002308031C230F3A2B2D
:1016700000303B2B003CA300F21F412BA31F592B32
:10168000432BA31B352C72082302031C352C031D8E
:10169000592B71082202031C352C031D592B70088D
:1016A0002102031C352C031D592B20086F0203183F
:1016B000352CC030EA00E901E8010130E7000230D2
:1016C0006007F3000E30600784000008A000840A61
:1016D0000008A100840A0008A200840A0008A300F0
:1016E000FD3084072008003CA0002108031C210FC6
:1016F0007B2B00307C2B003CA1002208031C220F16
:10170000832B0030842B003CA2002308031C230FF2
:101710008B2B00308C2B003CA300F7002208F60036
:101720002108F5002008F400730884007408800084
:10173000840A75088000840A76088000840A770885
:1017400080000E30600784000008F300840A00085F
:10175000F400840A0008F500840A0008F60002304C
:10176000600784000008F700840A0008F800840A73
:101770000008F900840A0008FA00FB017B088A11BE
:10178000FD208A15FB0AA0008316AA008A11831285
:10179000E0218A150C307B02031DBE2B41308400F2
:1017A00072088316A300831271088316A2008312A5
:1017B00070088316A10083126F088316A0008A1197
:1017C0008312E1238A1520308316AA008A1183121E
:1017D000E0218A1561308316AA008A118312E02164
:1017E0008A1520308316AA008A118312E0218A15F7
:1017F0004130840076088316A3008312750883168F
:10180000A200831274088316A10083127308831642
:10181000A0008A118312E1238A151530FC007C0890
:101820008A11FD208A15FC0AA0008316AA008A11DD
:101830008312E0218A151A307C02031D0F2C4130DF
:1018400084007A088316A300831279088316A20005
:10185000831278088316A100831277088316A000EC
:101860008A118312E1238A15B82C023060078400A4
:101870006F088000840A70088000840A7108800064
:10188000840A72088000083060078400840A000817
:10189000F40084030008F3000230600784000008AD
:1018A000A000840A0008A100840A0008A200840A9B
:1018B0000008A300FD3084072308F8002208F70081
:1018C0002108F6002008F5000408F900FD01FC01DC
:1018D0007408FB007308FA0078088316A3008312CB
:1018E00077088316A200831276088316A10083125C
:1018F00075088316A0002030A800A401A501A60148
:10190000A70183127D08A3007C08A2007B08A10028
:101910007A08A0000310201C9D2C83162008A40721
:1019200021080318210FA50722080318220FA60774
:1019300023080318230FA70783128316A70CA60CEE
:10194000A50CA40C8312A30CA20CA10CA00C831652
:10195000A80BAB2CAD2C83128A2C8312790884003F
:101960002308EA002208E9002108E8002008E7002F
:101970000A3060078400840A0008F4008403000829
:10198000F30060088400840A0008F600840300085D
:10199000F5005E087502A0007608A3005F08031C2E
:1019A0005F0FA3022008F7002308F8007408FA006C
:1019B0007308F9007808FC007708FB001030FD0080
:1019C000A001A301FA0CF90C031CEC2C7B08A00766
:1019D0000318A30A7C08A307A30CA00CA20CA10C5B
:1019E000FD0BE22C2108E5002208E600F301730854
:1019F0008A111F218A15F30AA0008316AA008A11F2
:101A00008312E0218A1509307302031DF72C103070
:101A100084006408F7006308F6008A110C228A1516
:101A20000C30F40074088A111F218A15F40AA000F2
:101A30008316AA008A118312E0218A1514307402D9
:101A4000031D122D103084006608F7006508F600AB
:101A50008A110C228A151730F50075088A111F218A
:101A60008A15F50AA0008316AA008A118312E021C4
:101A70008A151F307502031D2D2D413084006A0820
:101A80008316A300831269088316A20083126808D4
:101A90008316A100831267088316A0008A1183129F
:101AA000E1238A1560088400840A5F0880008403AB
:101AB0005E08800065086307F3006408F4006608A8
:101AC0000318660FF40767087307F5007408F6003B
:101AD00068080318680FF6077608F8007508F7001D
:101AE000FA018030F90078087A068039FC00F81F86
:101AF0007E2DF709F809F70A0319F80AFA1F852D50
:101B0000F909FA09F90A0319FA0AA101A201A001C7
:101B1000A3017A08031D8F2D79080319A92D103010
:101B2000FB000310F70DF80DA00DA30D7A0823029A
:101B3000031D9C2D79082002031CA52D7908A00205
:101B4000031CA3037A08A3020314A10DA20DFB0B2F
:101B5000912DFC1FB02DA109A209A10A0319A20A07
:101B60002208A3002108A0002208A100A201A301CD
:101B7000A11FBC2DA203A3032308EE002208ED0041
:101B80002108EC002008EB00EE1BD72DEE08031D0A
:101B9000D02DED08031DD02D6C087F3C0318D72DE8
:101BA000EE01ED017F30EC00FF30EB00F62DEE1F73
:101BB000F62D6E08FF3C031CF62D031DEF2D6D085E
:101BC000FF3C031CF62D031DEF2D6C08803C031C0D
:101BD000F62D031DEF2D6B08003C031CF62DFF3086
:101BE000EE00ED008030EC000130EB006B08A1004E
:081BF0006C08A2008A11D12D3E
:02400E003A373F
:00000001FF
;PIC16F873A
;CRC=7872  CREATED="04-May-13 15:30"
