:10000000000000308A007528FF00030E8301A6005F
:100010007F08A5000A08AD008A01A50E0408A70004
:100020002008A8002108A9002208AA002308AB0084
:100030002408AC00831383128C308400001C222817
:100040000C183528270884002808A0002908A100DA
:100050002A08A2002B08A3002C08A4002D088A005F
:10006000260E8300FF0E7F0E09008A113728371CE9
:100070004C288316861083128614371033084C3CA4
:10008000C300FF30C4003408031C340FC40244080A
:100090008F0043088E005E28831686108312861018
:1000A00037140F303307C3003408C400333003184B
:1000B0003430C40744088F0043088E000C108A11A6
:1000C0002228423084000008031973280630A1005A
:1000D000A001A00B6928A10B68287B30A000A00B11
:1000E0006F28800B66288A11E32884011F3083055E
:1000F000831686118312861583161F149F141F15ED
:100100009F1107309C00FF308312AE00AF01B00199
:10011000B101B201B301B401B501B6013710BE019E
:10012000BF0183161F149F141F159F1183121F10E8
:10013000940183160108C0390038810064008312DD
:1001400090010030A10092000030831692001F1031
:100150009F101F119F111F1383121F179F178316C4
:100160009F1783121F149530900083160C14C03013
:1001700083128B04B41BC62834080A3C031CCB280A
:10018000031DC6283308383C031CCB280A30B400B2
:100190003930B300E028B41BDD283408133C0318C1
:1001A000DD28FF3A031DD8283308503C0318DD280A
:1001B0000A30B4003930B300E028B30A0319B40A96
:0A01C0000A30C2006128BA28E428C2
:02400E003A373F
:00000001FF
;PIC16F873A
;CRC=1504  CREATED="28-Jun-12 00:51"
