:10000000000000308A00C329FF00030E8301A60010
:100010007F08A5000A08AD008A01A50E0408A70004
:100020002008A8002108A9002208AA002308AB0084
:100030002408AC00831383128C308400001C222817
:100040000C183F288D308400001C28280D184128EA
:100050008B1E2C280B194328270884002808A00091
:100060002908A1002A08A2002B08A3002C08A4003C
:100070002D088A00260E8300FF0E7F0E09008A11CC
:1000800051288A1199288A114528460F48284A285C
:10009000C60A4E28CA01FF30C900C6010B118A11D9
:1000A0002C2843080F3C031C6028031D5B284208D2
:1000B0006D3C031C60280F30C3006E30C2006F28F7
:1000C0004308113C03186F28FF3A031D6B284208B0
:1000D000C03C03186F280F30C3006E30C200AF1C45
:1000E00084288316861083128614AF1042084C3C75
:1000F000ED00FF30EE004308031C430FEE026E08D4
:100100008F006D088E009628831686108312861045
:10011000AF14FC304207ED004308EE003B300318FB
:100120003C30EE076E088F006D088E000C108A11AF
:100130002C284608143C0318A128CA014608C90007
:10014000C6010D108A112C282E122E088316870046
:10015000831207168316061283120616AE112E0896
:100160008316870083128715AE122E088316870028
:10017000831287168A11102AA101A201A001A301EE
:100180006208031DC62861080319E0281030E30047
:100190000310DF0DE00DA00DA30D62082302031D67
:1001A000D32861082002031CDC286108A002031C7C
:1001B000A3036208A3020314A10DA20DE30BC82838
:1001C0000034023059078400840A840A840A8001BA
:1001D0008403800184038001840380015908840022
:1001E000840A800184038001063059078400840A50
:1001F00054088000840353088000083059078400A5
:10020000840A560880008403550880000A30590784
:100210008400840A580880008403570880000C304A
:100220005907DA00063059078400840A0008DC0008
:1002300084030008DB0001305B07A1005C08A30019
:100240000318A30A2108DD002308DE007F30E00048
:10025000FF30DF002308E2002108E100BC205A083B
:100260008400840A220880008403210880000E3064
:100270005907DA00083059078400840A0008DC00B6
:1002800084030008DB0001305B07A1005C08A300C9
:100290000318A30A2108DD002308DE000408DF009C
:1002A0003F30E300FF30E200E100E000E701E6015B
:1002B0005E08E5005D08E400A001A101A201A30120
:1002C000E801E901EA01EB016708660465046404DA
:1002D00003199A292030EC000310E00DE10DE20D26
:1002E000E30DE80DE90DEA0DEB0D67086B02031D48
:1002F000832966086A02031D832965086902031DB4
:10030000832964086802031C94296408E8026508CC
:10031000031C650FE9026608031C660FEA02670802
:10032000031C670FEB020314A00DA10DA20DA30D7A
:10033000EC0B6C29683084005F0884005A08840044
:1003400020088000840A21088000840A2208800096
:10035000840A230880008A113B2A1030DC00A001A7
:10036000A301D90CD80C031CBB295A08A0070318F9
:10037000A30A5B08A307A30CA00CA20CA10CDC0B26
:10038000B1298A11892A84011F30830583168611B9
:100390008312861583161F149F141F159F11073093
:1003A0009C00FF308312AE002F10C430C200093011
:1003B000C300AF102F11AF11C401C501C601C701A1
:1003C000C801FF30C900CA01CB01CC01CD01CE016B
:1003D000CF01D001D101D2012F1283161F149F1417
:1003E0001F159F1183121F10940183160108C03935
:1003F000003881006400831290010030A100920057
:100400000030831692001F109F101F119F111F13A1
:1004100083121F179F1783169F1783121F14A42878
:100420009530900083160108C03906388100831288
:10043000AE142E088316870083129D0105309D009F
:1004400083160D1483128B1683160C14C03083127E
:100450008B0483160610831206148316061183126A
:100460000615D4018030D300D601D500D801D701BC
:100470003030D900E1280830A1001F08C739210415
:100480009F002130A000A00B432A1F151F19462AE8
:1004900083161E088312D1001E08D2000030A1006E
:1004A0001F08C73921049F002130A000A00B562A45
:1004B0001F151F19592A83161E088312CF001E0804
:1004C000D00032304F02D3005008D4000130031C5A
:1004D0000230D4025408E0005308DF000330E20089
:1004E0004430E100BC202208D5002108D40032307D
:1004F0002102D6002208D7000130031C0230D702A7
:100500005708D9005608D8001230DB00C030DA0096
:10051000AD2921086E3ED7002208D8000F300318FD
:100520001030D8076E305702C2005808C3000F3091
:0A053000031C1030C3023B2A9C2A72
:02400E003A373F
:00000001FF
;PIC16F873A
;CRC=7FAA  CREATED="01-Dec-12 15:22"
