:10000000000000308A00D52BFF00030E8301A600FC
:100010007F08A5000A08AD008A01A50E0408A70004
:100020002008A8002108A9002208AA002308AB0084
:100030002408AC00831383128C308400001C222817
:100040000C183F288D308400001C28280D184128EA
:100050008B1E2C280B194328270884002808A00091
:100060002908A1002A08A2002B08A3002C08A4003C
:100070002D088A00260E8300FF0E7F0E09008A11CC
:1000800051288A1198288A1145283A0F48284A2869
:10009000BA0A4E28BE01FF30BD00BA010B118A1109
:1000A0002C2836083002031C6028031D5B282F080B
:1000B0003502031860283008B6002F08B5006E28F6
:1000C00032083602031C6E28031D6A2835083102E7
:1000D00003186E283008B6002F08B500371C832897
:1000E0008316861083128614371035084C3CDF00C7
:1000F000FF30E0003608031C360FE00260088F0076
:100100005F088E0095288316861083128610371498
:1001100035083307DF003408E00036080318360FCF
:10012000E00760088F005F088E000C108A112C28F1
:100130003A08143C0318A028BE013A08BD00BA01D1
:100140000D108A112C282E122E0883168700831278
:1001500007168316061283120616AE112E08831692
:10016000870083128715AE122E088316870083122C
:1001700087168A11262C8E30A0005008A1004F0847
:10018000A200A301A108031DCF282208A100A201FB
:100190000830A002A108031DCF28A001D728031012
:1001A000A11BD628A20DA10DA003CF28A1130034B6
:1001B000470803199D29D3004B0803199D29D30231
:1001C000031CE7287F30D30703189D29ED288130D1
:1001D000D302031C9D2903199D295308A000A101E6
:1001E000A201A301D2014808D100D1174908D000CB
:1001F0004A08CF001930D3004E08CF020318102947
:100200000130D00203181029D10203181029D2029C
:1002100003181029D20AD10AD00A4E08CF07422962
:100220004D08D00203182B290130D10203182B29C5
:10023000D20203182B29D20AD10A4D08D0074E0842
:10024000CF07031C4229D00A031D4229D10A031DEE
:100250004229D20A42294C088038D1020318412988
:100260000130D20203184129D20A4C088038D10744
:100270004D08D007031C1F29D10A031D1F29D20ACC
:100280001F292314D30B452950290310CF0DD00D5E
:10029000D10DD20D0310A30DA20DA10DD40DFC287C
:1002A000541C58290310A10CA20CA30CD40C5B29DC
:1002B000A00303199D29D41B84290310CF0DD00D51
:1002C000D10DD20D4E08CF02031870290130D00293
:1002D00003187029D10203187029D202031C932934
:1002E0004D08D00203187B290130D10203187B2965
:1002F000D202031C93294C088038D10203188429A8
:100300000130D202031C9329A30A031D9329A20AD8
:10031000031D9329A10A031D9329A00A03199D29EE
:10032000A10CA20CA30C4808D3004C08D306D31F81
:100330009B29A117A129A113A129A001A101A20113
:10034000A3018A117C2C4B080319132AD3004F08F0
:100350000319132AD3070318B4297F30D302031CCF
:10036000132A0319132AB8298130D3070318132A33
:100370005308A000A101A201A3014C08D700D71780
:100380004D08D6004E08D5001830D300D401551CB6
:10039000E1295208A307031CD329A20A031DD3296C
:1003A000A10A0319D4175108A207031CDA29A10ACC
:1003B0000319D4175008CD00CD174D08A107031815
:1003C000D417D40DA10CA20CA30CD70CD60CD50CB1
:1003D0000310D30BC6290130A0070318132AA11B51
:1003E000F829D70DA30DA20DA10DA0030319132AFF
:1003F000D71F092AA30A031D092AA20A031D092AD5
:10040000A10A031D092AA10CA20CA30CA00A03191E
:10041000132A4C08D4005008D406D41F112AA1175F
:10042000172AA113172AA001A101A201A3018A1171
:10043000932C80308318D406D901DA015008D800F3
:100440005408D8064F080319062BD700A0005308FC
:1004500003190F2BD7020319AC2A031C6B2A54086B
:10046000DD00DD175508DC005608DB00DA0103105B
:10047000DD0CDC0CDB0CDA0CD70B362AD81F432A38
:100480005914232B59105710591652308400382B09
:100490005912D81B552A571C602ADD0CDC0CDB0CCA
:1004A000DA0CA00A03191E2B602ADD1B632A031035
:1004B000DA0DDB0DDC0DDD0DA00303191E2B552A13
:1004C0005917CB2A59135008D800D81F692ADD17AD
:1004D000172BDD13172B5308D700A0004F08D702A6
:1004E0005008DD00DD175108DC005208DB00DA019E
:1004F0000310DD0CDC0CDB0CDA0CD70B772AD81FD1
:10050000842AD914232BD9105710D91656308400B9
:10051000382BD912D81B962A571CA12ADD0CDC0CCB
:10052000DB0CDA0CA00A03191E2BA12ADD1BA42A5E
:100530000310DA0DDB0DDC0DDD0DA00303191E2BFE
:10054000962AD917CB2AD9135408D800D81FAA2A1B
:10055000DD17172BDD13172B5408DD00DD175508A9
:10056000DC005608DB00D81FB92ADD135915232BF0
:100570005911DA01571052308400382BD81BE12A68
:100580005008D800571CCB2ADD0CDC0CDB0CDA0C35
:10059000A00A03191E2BDA1FDC2ADB0A031DDC2A42
:1005A000DC0A031DDC2ADD0A031DDC2ADD0CDC0C61
:1005B000DB0CA00A03191E2B591B622AD91BA32A84
:1005C000002B8030DD06DD1FE92A232B5408D800DC
:1005D000F62A5008D800DD08031DF62ADC08031DA2
:1005E000F62ADB08031DF62AA001172BDD1B002BC2
:1005F0000310DA0DDB0DDC0DDD0DA00BF62A1E2B32
:10060000D81F042BDD17172BDD13172B5308A00061
:100610005408DD005508DC005608DB00172B4F0896
:10062000A0005008DD005108DC005208DB005D0826
:10063000A1005C08A2005B08A300562BA001A10149
:10064000A201A301562BDA01DB09DC09DD09DA0975
:10065000DA0A031D312BDB0A031D312BDC0A0319D7
:10066000DD0A5918422AD918832A5919B82AE62AC4
:100670000008DB07031C422BDC0A031D422BDD0AAA
:100680000319571484030008DC07031C4A2BDD0AF6
:100690000319571484030008801F803ADD070318EC
:1006A0005714591A482AD91A892ABE2A8A11B22CF3
:1006B0008E30A0004F08A0025008A2005108A100EF
:1006C000A217A00803196F2B0310A208031D6B2BA0
:1006D000A10803196F2BA20CA10CA00B642BD01F37
:1006E000762BA109A209A10A0319A20A8A11BB2C1F
:1006F0004908CB004A08CC000330CD00831606120F
:1007000083120616AE112E088316870083128711F6
:100710002E122E088316870083120712CE014E0870
:10072000173C031CC02B4E08033C03189F2B4E089C
:10073000073C0318A42B4E080B3C031CA42B0310EE
:10074000CB0DCC0DCD0DBE2B0310CB0DCC0DCD0D97
:100750000318AC2B8712AD2B8716AE122E0883160A
:1007600087008312AE112E08831687008312871527
:10077000AE112E088316870083128711CE0A8F2BA5
:100780002E122E0883168700831207168316061270
:10079000831206121030A000A00BCC2B0000831691
:1007A0000612831206168A11CC2C84011F30830591
:1007B000831686118312861583161F149F141F1526
:1007C0009F1107309C00FF308312AE00C430AF0091
:1007D0000930B0008830B1001330B200FC30B300F3
:1007E0003B30B400C430B5000930B6003710B71044
:1007F0003711B801B901BA01BB01BC01FF30BD001E
:10080000BE01BF01C001C101C201C301C401C501D4
:10081000C601B71183161F149F141F159F11831251
:100820001F10940190010030A10092000030831647
:1008300092001F109F101F119F111F1383121F176B
:100840009F1783169F1783121F14A32895309000BB
:1008500083160108C039063881008312AE142E08B1
:100860008316870083129D0105309D0083160D14A9
:1008700083128B1683160C14C03083128B048316DC
:100880000610831206100830A1001F08C739210482
:100890009F002130A000A00B4B2C1F151F194E2CC0
:1008A00083161E088312C5001E08C6000030A10072
:1008B0001F08C73921049F002130A000A00B5E2C27
:1008C0001F151F19612C83161E088312C3001E08F2
:1008D000C4004408D0004308CF00BB202308CA004E
:1008E0002208C9002108C8002008C700CE01CD0198
:1008F000CC018930CB00D8282008C7002108C800C7
:100900002208C9002308CA00CE002208CD00210811
:10091000CC002008CB00D2014030D1001C30D000E8
:100920008A30CF00A3292008CB002108CC00220860
:10093000CD002308CE003008D0002F08CF00BB2008
:1009400083102308D2002208D1002108D0002008FB
:10095000CF004E08D6004D08D5004C08D4004B08F7
:10096000D300192A2308D2002208D1002108D00080
:100970002008CF00582B2208B6002108B500430DEF
:10098000C700440DC800C70DC80DFC30C705480896
:0C099000CA004708C900782B432CCD2C6E
:02400E003A373F
:00000001FF
;PIC16F873A
;CRC=4F5F  CREATED="15-Nov-12 00:53"
