:10000000000000308A002A2DFF00030E8301A600A5
:100010007F08A5000A08AD008A01A50E0408A70004
:100020002008A8002108A9002208AA002308AB0084
:100030002408AC00831383128C308400001C222817
:100040000C183F288D308400001C28280D184128EA
:100050008B1E2C280B194328270884002808A00091
:100060002908A1002A08A2002B08A3002C08A4003C
:100070002D088A00260E8300FF0E7F0E09008A11CC
:1000800069298A116C298A115A290A108A100A11C1
:10009000820742345234453441344B3449344E346F
:1000A000473420340A3400340A108A100A118207B7
:1000B00041344334433445344C3445345234413470
:1000C000543449344E34473420340A3400340A104E
:1000D0008A100A11820769346E34703475347434AE
:1000E000203425346C346434203472342034253484
:1000F0006C3475342034733470346534653464344E
:10010000203425346C3464342034743468347234CC
:100110006F34743474346C346534203425346C3466
:100120006434203461346334613470347334203483
:1001300025346C346434203461346E3464342034B7
:1001400025344C3478340A3400340A108A100A11E9
:1001500082074D3461347834203425346C3464346F
:10016000203466346134633474346F347234203430
:1001700025346C346434203461346E346434203477
:10018000703469346434203425346C34643400347D
:100190000A108A100A118207703420346C346534D6
:1001A0007334733420346534723472346F3472347F
:1001B000203425346C3464342034613420342534C4
:1001C0006C34643420347034203425346C3464341A
:1001D00000340A108A100A11F03E03188A0A8200BD
:1001E0000A342034673472346534613474346534CD
:1001F00072342034743465346D34703420342534D2
:100200006C34643420346134203425346C346434E8
:100210002034733475346D34203425346C346434B4
:1002200000340A148A100A1182070A3420346C340C
:100230006534733473342034743465346D347034FD
:10024000203425346C346434203461342034253433
:100250006C3464342034733475346D342034253474
:100260006C34643400340A148A100A1182070A3488
:10027000203470345F347434653472346D34203417
:1002800025346C346434203464345F34743465341D
:1002900072346D34203425346C3464342034693441
:1002A0005F347434653472346D34203425346C34E6
:1002B000643400340130C7074708033C031866293B
:1002C0000530CB00CA010430C700C6010B118A11EA
:1002D0002C280C108A112C28C708031D73294608E6
:1002E0000A3C03187D2901084607CA004708CB00CD
:1002F0000318CB0A8101C701C6010D108A112C28F1
:100300002E122E0883168700831207168316861274
:1003100083128616AE112E08831687008312871566
:10032000AE122E0883168700831287168A117B2D42
:100330005C08DE005D08DF000330E00083168612F3
:1003400083128616AE112E0883168700831287113A
:100350002E122E088316870083120712E10161080E
:10036000173C031CE0296108033C0318BF296108FE
:10037000073C0318C42961080B3C031CC429031063
:10038000DE0DDF0DE00DDE290310DE0DDF0DE00DCB
:100390000318CC298712CD298716AE122E08831692
:1003A00087008312AE112E088316870083128715EB
:1003B000AE112E088316870083128711E10AAF2938
:1003C0002E122E08831687008312071683168612B4
:1003D000831286121030A000A00BEC2900008316B7
:1003E00086128312861600348316861183128611B4
:1003F0000830A100FB290000A1170E2AA1138316C3
:10040000AA0C831203188615031C861121170E2AC5
:100410002113A10BFF290C2A000086150230A00031
:100420008401840B112AA00B102AAD308400840BA8
:10043000172A1A2A0000A11BFE29211B082A0034B2
:100440000408FD00F71F2C2AFD177D1EFD0AF60982
:10045000F709F60A0319F70A770EF038F900F907D9
:10046000E23EFA00323EFC0077080F39FA07FA073D
:10047000FC07E93EFB00FB07FB07760E0F39FB0785
:10048000FC07FB0DFC0DFC09FC0D76080F39FC0781
:10049000F90D0730F8000A30FC07FB03031C4C2A57
:1004A000FB07FA03031C502AFA07F903031C542A1A
:1004B000F907F803031C582A7830840007307D05BB
:1004C0007D1384037D05031D6C2A7D1A840A7D1A21
:1004D0006C2A2030A000892A84077C30040203198A
:1004E0007D170008A000031D7D2A7D1B7D2A7D1A33
:1004F000932AFD197D2A2030882AFD1F852A2D3058
:10050000A00084037D13FD13892AFD157D12303070
:10051000A007F7010408F60020088316AA0083123A
:10052000F42176088400840A7D1F6D2A0034A0011E
:10053000A101A201A3018316B201B301B401B50167
:10054000310830042F042E040319D82A2030B600B5
:100550000310AA0DAB0DAC0DAD0DB20DB30DB40D66
:10056000B50D31083502031DBF2A30083402031DC2
:10057000BF2A2F083302031DBF2A2E083202031C94
:10058000D02A2E08B2022F08031C2F0FB302300806
:10059000031C300FB4023108031C310FB5020314E1
:1005A0008312A00DA10DA20DA30D8316B60BA82AD0
:1005B000B23084008312003402305E078400840A63
:1005C000840A840A800184038001840380018403F7
:1005D00080015E088400840A800184038001063063
:1005E0005E078400840A590880008403580880004C
:1005F00008305E078400840A5B08800084035A0880
:1006000080000A305E078400840A5D08800084034D
:100610005C0880000C305E07DF0006305E07840057
:10062000840A0008E10084030008E000013060074C
:10063000A1006108A3000318A30A2108E20023080F
:10064000E3007F30E500FF30E4006308E700620864
:10065000E600A101A201A001A3016708031D332B3D
:10066000660803194D2B1030E8000310E40DE50D6A
:10067000A00DA30D67082302031D402B660820026E
:10068000031C492B6608A002031CA3036708A302EE
:100690000314A10DA20DE80B352B5F088400840A1A
:1006A0002208800084032108800008305E0784004F
:1006B000840A0008E00084030008DF000C305E07B5
:1006C0008400840A0008E20084030008E100E301DA
:1006D0006308A520E30AA0008316AA008312F42170
:1006E00004306302031D682B103084007F30F70054
:1006F000FF30F60020220730E4006408A520E40A59
:10070000A0008316AA008312F4210F306402031D97
:100710007D2B103084006008F7005F08F60020226F
:100720001230E5006508A520E50AA0008316AA009E
:100730008312F4211B306502031D922B10308400BC
:100740006208F7006108F60020220E305E07DF0025
:1007500008305E078400840A0008E1008403000872
:10076000E00001306007A1006108A3000318A30A9C
:100770002108E2002308E3000408E4003F30831668
:10078000AD00FF30AC00AB00AA00B101B001831294
:1007900023088316AF00831221088316AE0083124C
:1007A0009722640884005F08840020088000840A7F
:1007B00021088000840A22088000840A230880001F
:1007C0008A11AD2D5930840000080319F42B06302E
:1007D000A100A001A00BEA2BA10BE92B7B30A0000C
:1007E000A00BF02B800BE72B003404088316A40029
:1007F000A31F072CA403A416A009A109A209A309F9
:10080000A00A0319A10A0319A20A0319A30A3B307B
:10081000A9009A30A800CA30A700A6010A30A50096
:100820002308AD002208AC002108AB002008AA0074
:100830002908B1002808B0002708AF002608AE003C
:100840008312972200088316A000840A0008A100E2
:10085000840A0008A200840A0008A300FD3084076F
:100860008312A008031D4B2C83162508013A031D93
:100870003B2C83124B2C240803194E2C0F392502D4
:100880000319442C03187A2CA41B7A2C241B4E2CFD
:100890002030722C831220308316A405A41E5F2CF6
:1008A000A412831220088316A4002D30AA008312FC
:1008B000F421831624088312A0008316A40130308B
:1008C000A41E722CA412831220088316A4002D30BB
:1008D000AA008312F421831624088312A000831631
:1008E000A40130308312A00720088316AA008312C7
:1008F000F42183162908AD002808AC002708AB00B6
:100900002608AA00B101B001AF010A30AE0083127F
:10091000972223088316A900831222088316A800B1
:10092000831221088316A700831220088316A600CD
:10093000A50B102C831200340530DD001430DC00D0
:1009400098210430D800FA30D900E223D80BA32C28
:100950008A11702E0408E800620EF038E400E40703
:10096000E23EE500323EE70062080F39E507E507A1
:10097000E707E93EE600E607E607610E0F39E607FE
:10098000E707E60DE70DE709E70D61080F39E7070F
:10099000E40D0730E3000A30E707E603031CCC2C24
:1009A000E607E503031CD02CE507E403031CD42C65
:1009B000E407E303031CD82C633084000730680588
:1009C0006813840767300402031968170008A00041
:1009D000031DF22C681BF22C681A002DE819F22C6A
:1009E0002030F52CE81568123030A007E201040829
:1009F000E10020088316AA008312F4216108840014
:100A0000840A681FE22C8A11F72EE61B192D0F307D
:100A1000A000650EA0050A3020020318122D303008
:100A2000A007142D6608A00720088316AA008312C9
:100A3000F4210F30E5050A3065020318212D30300E
:100A4000232DE6136608E50765088316AA008312BE
:100A5000F421003484011F3083058316861183122C
:100A6000861583161F149F141F159F1107309C00B5
:100A7000FF308312AE002F10B430C2001430C30018
:100A8000AF102F11AF11C401C501C601C701C801C4
:100A9000C901CA01CB01CC01CD01CE01CF01D001EA
:100AA000D101D201D3012F12D401D501D601D70132
:100AB00083161F149F141F159F1183121F1094017A
:100AC00083160108C0390038810064008312900148
:100AD0000030A10092000030831692001F109F107A
:100AE0001F119F111F1383121F179F1783169F1724
:100AF00083121F1480299530900083160108C03995
:100B0000063881008312AE142E08831687008312E4
:100B10009D0105309D0083160D1483128B168316DC
:100B20000C14C03083128B04831606108312061037
:100B3000DD01DC0198218316061183120615831648
:100B4000061283120612D9018030D800DB01DA01C7
:100B5000DD01DC013030DE00DC2A0C30D800FA3058
:100B6000D900E223D80BAF2D0830A1001F08C739E8
:100B700021049F002130A000A00BBC2D1F151F19C0
:100B8000BF2D83161E088312D2001E08D30000302A
:100B9000A1001F08C73921049F002130A000A00B2D
:100BA000CF2D1F151F19D22D83161E088312D000BA
:100BB0001E08D1005308023C0318E52DFF3A031D1F
:100BC000E52D5208823C0318E52D5308023C03181A
:100BD000F02DFF3A031DF22D52087D3C031CF22D2F
:100BE0000030F32D0130D80000302F1A01305805A5
:100BF000031D0E2E5308013C031C042E031D062E5C
:100C000052084E3C0318062E0030072E0130D80043
:100C100000302F1E0130580503190E2E5108013CDB
:100C2000031C1C2E031D182E50083B3C031C1C2EBD
:100C30000130D1003C30D0004B08D7004A08D60024
:100C40003C305002D8005108D9000130031C02305A
:100C5000D9025608003CDA000530DB005708031CB7
:100C6000570FDB025908DD005808DC005B08DF0085
:100C70005A08DE003030E0008A1500288A11220868
:100C8000D5002108D4005408CC0755080318550F87
:100C9000CD07CD1B5B2E4D08083C03185B2EFF3A99
:100CA000031D562E4C08C43C03185B2E0930CD00A2
:100CB000C430CC006B2ECD1F6B2E4D08FF3C031CA7
:100CC0006B2E031D672E4C08373C031C6B2EFF3028
:100CD000CD003830CC00CD1F872E2F1E702E9C2CBF
:100CE0002F1283160612831206168316061083121D
:100CF0000614D80158084520D80AA0008316AA0077
:100D00008312F4210A305802031D7A2E9D2E2F16CD
:100D1000831606128312061283160610831206101B
:100D2000D80158085420D80AA0008316AA008312BC
:100D3000F4210E305802031D912E3C305002D80091
:100D40005108D9000130031C0230D9025608003C7A
:100D5000DA000530DB005708031C570FDB024D0893
:100D6000A3004C08CD1FBD2E4C08003CA000A301E1
:100D70004D08031C4D0FA3022008DC002308DD00F2
:100D800084302007A1002308A30003300318043097
:100D9000A3072108DE002308DF00E00160086720C8
:100DA000E00AA0008316AA008312F4210630600234
:100DB000031DCE2E103084005908F7005808F600A5
:100DC000202220308316AA008312F4217230831669
:100DD000AA008312F42120308316AA008312F42182
:100DE000103084005508E2005408E100AA2C0F30AE
:100DF000E10061086720E10AA0008316AA008312BF
:100E0000F42116306102031DF92E103084005B08B6
:100E1000F7005A08F60020221930E2006208672025
:100E2000E20AA0008316AA008312F4212330620292
:100E3000031D0E2F103084004D08F7004C08F600FB
:100E400020222630E30063086720E30AA00083160F
:100E5000AA008312F4212D306302031D232F1030CA
:100E600084005308F7005208F60020223030E400D6
:100E700064086720E40AA0008316AA008312F42104
:100E800035306402031D382F5F08E5005730E60057
:100E900005255E08E5005730E60005250A30831673
:100EA000AA008312F4214D08A3004C08CD1F612F26
:100EB0004C08003CA000A3014D08031C4D0FA302E9
:100EC0002008D8002308D90084302007DA0023083E
:100ED000DB00033003180430DB075B08DD005A0831
:080EE000DC009821B42D732FF2
:10100000DF0CDE0CDF0CDE0C3F30DF055E085C021F
:10101000A0005D08A3005F08031C5F0FA302200867
:10102000E1002308E2000C3060078400840A000815
:10103000A30084030008A100A31F2128E21F2D287C
:101040002328E21B322823086202031C3228031DD6
:101050002D2861082102031832287F30E400FF3078
:10106000E300012A0C3060078400840A0008A30012
:1010700084030008003CA0002308031C230F42281F
:1010800000304328003CA3002008A100E21F4B28A9
:10109000A31F57284D28A31BC12862082302031C45
:1010A000C128031D5728210861020318C128803078
:1010B000E4000130E3000C3060078400840A00087B
:1010C000A30084030008003CF300F4012308031C80
:1010D000230FF402F50175088A11C8208A15F50A54
:1010E000A0008316AA008A118312F4218A150D30FC
:1010F0007502031D6B28103084006208F700610838
:10110000F6008A1120228A1520308316AA008A113F
:101110008312F4218A1561308316AA008A11831282
:10112000F4218A1520308316AA008A118312F42133
:101130008A15103084007408F7007308F6008A11CD
:1011400020228A1520308316AA008A118312F421E6
:101150008A1570308316AA008A118312F4218A1529
:1011600020308316AA008A118312F4218A151030C8
:1011700084006408F7006308F6008A1120228A15AB
:10118000012A063060078400840A0008F400840302
:101190000008F3006208F6006108F5008E30A00038
:1011A0007608A1007508A200A301F61FDC28A1099A
:1011B000A209A20A0319A10AA108031DE92822080D
:1011C000A100A2010830A002A108031DE928A00186
:1011D000F2280310A11BF028A20DA10DA003E928FD
:1011E000F61FA1132008F5002108F6002208F700D9
:1011F0002308F8007408FA007308F9008E30A00084
:101200007A08A1007908A200A301A108031D1229F0
:101210002208A100A2010830A002A108031D122982
:10122000A0011A290310A11B1929A20DA10DA003C9
:101230001229A1132308FC002208FB002108FA0050
:101240002008F90078088316A30083127708831614
:10125000A200831276088316A100831275088316F4
:10126000A000831279080319D3298316A40020084B
:10127000031D3C298312D329A40703184A297F3070
:10128000A402031845298312D329031D4929831277
:10129000D32950298130A407031C50298312D32954
:1012A00024088312A000A101A201A3017A088316D9
:1012B000A800A81783127B088316A70083127C0856
:1012C0008316A6001830A400A501261C8E29230829
:1012D0008312A307031C7529A20A031D7529A10AFD
:1012E000031D75298316A5178312831622088312FE
:1012F000A207031C8129A10A031D81298316A517B2
:101300008312831621088312FB00FB177B08A107B9
:10131000031C8D298316A51783128316A50D83122E
:10132000A10CA20CA30C8316A80CA70CA60C0310EE
:10133000A40B642901308312A0070318D329A11B31
:10134000AA298316A80D8312A30DA20DA10DA00337
:101350000319D3298316A81FC4298312A30A0319CA
:10136000B3298316C429A20A0319B8298316C429EC
:10137000A10A0319BD298316C429A10CA20CA30C30
:10138000A00A0319D329831683127A088316A500AD
:101390002108A506A51FD0298312A117D7298316D6
:1013A0008312A113D729A001A101A201A30123083F
:1013B000FC002208FB002108FA002008F9008E300A
:1013C000A0007908A0027A08A2007B08A100A21759
:1013D000A0080319F6290310A208031DF229A10889
:1013E0000319F629A20CA10CA00BEB29FA1FFD2969
:1013F000A109A209A10A0319A20A2208E4002108EE
:10140000E3000230600784000008F300840A00084B
:10141000F400840A0008F500840A0008F600610858
:10142000A0006208A100A201A301E21F192AA203E1
:10143000A30320087307EF007408F00021080318C5
:10144000210FF0077508F10022080318220FF10799
:101450007608F20023080318230FF2070E30600706
:1014600084000008A000840A0008A100840A000883
:10147000A200840A0008A300A31F412AF21F592AD0
:10148000432AF21B112B23087202031C112B031D8C
:10149000592A22087102031C112B031D592A210805
:1014A0007002031C112B031D592A6F082002031818
:1014B000112B3F30EA00FF30E900E800E70002307E
:1014C0006007F3000E30600784000008A000840A63
:1014D0000008A100840A0008A200840A0008A300F2
:1014E0007308840020088000840A21088000840A90
:1014F00022088000840A230880000E3060078400E0
:101500000008F300840A0008F400840A0008F500CB
:10151000840A0008F6000230600784000008F70023
:10152000840A0008F800840A0008F900840A000808
:10153000FA00FB017B088A11E9208A15FB0AA0004A
:101540008316AA008A118312F4218A150F307B02B8
:10155000031D9A2A4130840072088316A300831267
:1015600071088316A200831270088316A1008312EB
:101570006F088316A0008A118312F5238A15203084
:101580008316AA008A118312F4218A15613083160A
:10159000AA008A118312F4218A1520308316AA002A
:1015A0008A118312F4218A1541308400760883164B
:1015B000A300831275088316A20083127408831691
:1015C000A100831273088316A0008A118312F523E9
:1015D0008A151830FC007C088A11E9208A15FC0A5B
:1015E000A0008316AA008A118312F4218A151D30E7
:1015F0007C02031DEB2A413084007A088316A30085
:10160000831279088316A200831278088316A1003A
:10161000831277088316A0008A118312F5238A1596
:10162000B82C0E30600784000008A000840A00086F
:10163000A100840A0008A200840A0008A300FD306B
:1016400084072008003CA0002108031C210F2A2B3E
:1016500000302B2B003CA1002208031C220F322B50
:101660000030332B003CA2002308031C230F3A2B2D
:1016700000303B2B003CA300F21F412BA31F592B32
:10168000432BA31B352C72082302031C352C031D8E
:10169000592B71082202031C352C031D592B70088D
:1016A0002102031C352C031D592B20086F0203183F
:1016B000352CC030EA00E901E8010130E7000230D2
:1016C0006007F3000E30600784000008A000840A61
:1016D0000008A100840A0008A200840A0008A300F0
:1016E000FD3084072008003CA0002108031C210FC6
:1016F0007B2B00307C2B003CA1002208031C220F16
:10170000832B0030842B003CA2002308031C230FF2
:101710008B2B00308C2B003CA300F7002208F60036
:101720002108F5002008F400730884007408800084
:10173000840A75088000840A76088000840A770885
:1017400080000E30600784000008F300840A00085F
:10175000F400840A0008F500840A0008F60002304C
:10176000600784000008F700840A0008F800840A73
:101770000008F900840A0008FA00FB017B088A11BE
:1017800011218A15FB0AA0008316AA008A11831270
:10179000F4218A150C307B02031DBE2B41308400DE
:1017A00072088316A300831271088316A2008312A5
:1017B00070088316A10083126F088316A0008A1197
:1017C0008312F5238A1520308316AA008A1183120A
:1017D000F4218A1561308316AA008A118312F4213C
:1017E0008A1520308316AA008A118312F4218A15E3
:1017F0004130840076088316A3008312750883168F
:10180000A200831274088316A10083127308831642
:10181000A0008A118312F5238A151530FC007C087C
:101820008A1111218A15FC0AA0008316AA008A11C8
:101830008312F4218A151A307C02031D0F2C4130CB
:1018400084007A088316A300831279088316A20005
:10185000831278088316A100831277088316A000EC
:101860008A118312F5238A15B82C02306007840090
:101870006F088000840A70088000840A7108800064
:10188000840A72088000083060078400840A000817
:10189000F40084030008F3000230600784000008AD
:1018A000A000840A0008A100840A0008A200840A9B
:1018B0000008A300FD3084072308F8002208F70081
:1018C0002108F6002008F5000408F900FD01FC01DC
:1018D0007408FB007308FA0078088316A3008312CB
:1018E00077088316A200831276088316A10083125C
:1018F00075088316A0002030A800A401A501A60148
:10190000A70183127D08A3007C08A2007B08A10028
:101910007A08A0000310201C9D2C83162008A40721
:1019200021080318210FA50722080318220FA60774
:1019300023080318230FA70783128316A70CA60CEE
:10194000A50CA40C8312A30CA20CA10CA00C831652
:10195000A80BAB2CAD2C83128A2C8312790884003F
:101960002308EA002208E9002108E8002008E7002F
:101970000A3060078400840A0008F4008403000829
:10198000F30060088400840A0008F600840300085D
:10199000F5005E087502A0007608A3005F08031C2E
:1019A0005F0FA3022008F7002308F8007408FA006C
:1019B0007308F9007808FC007708FB001030FD0080
:1019C000A001A301FA0CF90C031CEC2C7B08A00766
:1019D0000318A30A7C08A307A30CA00CA20CA10C5B
:1019E000FD0BE22C2108E5002208E600F301730854
:1019F0008A1133218A15F30AA0008316AA008A11DE
:101A00008312F4218A1509307302031DF72C10305C
:101A100084006408F7006308F6008A1120228A1502
:101A20000C30F40074088A1133218A15F40AA000DE
:101A30008316AA008A118312F4218A1514307402C5
:101A4000031D122D103084006608F7006508F600AB
:101A50008A1120228A151730F50075088A11332162
:101A60008A15F50AA0008316AA008A118312F421B0
:101A70008A151F307502031D2D2D413084006A0820
:101A80008316A300831269088316A20083126808D4
:101A90008316A100831267088316A0008A1183129F
:101AA000F5238A1560088400840A5F088000840397
:101AB0005E08800065086307F3006408F4006608A8
:101AC0000318660FF40767087307F5007408F6003B
:101AD00068080318680FF6077608F8007508F7001D
:101AE000FA018030F90078087A068039FC00F81F86
:101AF0007E2DF709F809F70A0319F80AFA1F852D50
:101B0000F909FA09F90A0319FA0AA101A201A001C7
:101B1000A3017A08031D8F2D79080319A92D103010
:101B2000FB000310F70DF80DA00DA30D7A0823029A
:101B3000031D9C2D79082002031CA52D7908A00205
:101B4000031CA3037A08A3020314A10DA20DFB0B2F
:101B5000912DFC1FB02DA109A209A10A0319A20A07
:101B60002208A3002108A0002208A100A201A301CD
:101B7000A11FBC2DA203A3032308EE002208ED0041
:101B80002108EC002008EB00EE1BD72DEE08031D0A
:101B9000D02DED08031DD02D6C087F3C0318D72DE8
:101BA000EE01ED017F30EC00FF30EB00F62DEE1F73
:101BB000F62D6E08FF3C031CF62D031DEF2D6D085E
:101BC000FF3C031CF62D031DEF2D6C08803C031C0D
:101BD000F62D031DEF2D6B08003C031CF62DFF3086
:101BE000EE00ED008030EC000130EB006B08A1004E
:081BF0006C08A2008A113E2ED0
:02400E003A373F
:00000001FF
;PIC16F873A
;CRC=E74E  CREATED="18-May-13 16:39"
