:10000000000000308A007528FF00030E8301A6005F
:100010007F08A5000A08AD008A01A50E0408A70004
:100020002008A8002108A9002208AA002308AB0084
:100030002408AC00831383128C308400001C222817
:100040000C183528270884002808A0002908A100DA
:100050002A08A2002B08A3002C08A4002D088A005F
:10006000260E8300FF0E7F0E09008A113728371CE9
:100070004C288316861083128614371035084C3CA2
:10008000B900FF30BA003608031C360FBA023A082E
:100090008F0039088E005E28831686108312861022
:1000A000371435083307B9003408BA003608031886
:1000B000360FBA073A088F0039088E000C108A11E3
:1000C0002228383084000008031973280630A10064
:1000D000A001A00B6928A10B68287B30A000A00B11
:1000E0006F28800B66288A11E42884011F3083055D
:1000F000831686118312861583161F149F141F15ED
:100100009F1107309C00FF308312AE00C430AF0057
:100110000930B0008830B1001330B200FC30B300B9
:100120003B30B400C430B5000930B6003710831638
:100130001F149F141F159F1183121F109401831603
:100140000108C0390038810064008312900100303A
:10015000A10092000030831692001F109F101F1103
:100160009F111F1383121F179F1783169F17831248
:100170001F149530900083160C14C03083128B042A
:1001800036083002031CCF28031DCA282F08350269
:100190000318CF283008B6002F08B500E128320830
:1001A0003602031CDE28031DD92835083102031846
:1001B000DE283008B6002F08B500E128B50A03197B
:0C01C000B60A0A30B8006128C028E52803
:02400E003A373F
:00000001FF
;PIC16F873A
;CRC=C5C4  CREATED="04-Jul-12 12:59"
