:10000000000008308A000028FF00030E8301A600CC
:100010007F08A5000A08AD008A01A50E0408A70004
:100020002008A8002108A9002208AA002308AB0084
:100030002408AC00831383128C308400001C222817
:100040000C183F288D308400001C28280D184128EA
:100050008B1E2C280B194328270884002808A00091
:100060002908A1002A08A2002B08A3002C08A4003C
:100070002D088A00260E8300FF0E7F0E09008A11CC
:100080001A298A1172298A110C290A108A100A1158
:100090008207533474346134743465343A34203410
:1000A00046347234653461346B3420344F347534E3
:1000B000743420340A3400340A108A100A1182077A
:1000C000533474346134743465343A3420345334E2
:1000D0007034653465346434203454346F342034DF
:1000E0004C346F34773420340A3400340A108A10C8
:1000F0000A118207533474346134743465343A34E9
:100100002034523455344E344E3441345734413413
:10011000593420340A3400340A108A100A11820734
:10012000533474346134743465343A342034433491
:100130006134703473342034463475346C346C3428
:1001400020340A3400340A108A100A11820753340A
:1001500074346134743465343A3420344334613453
:1001600070347334203445346D34703474347934DD
:1001700020340A3400340A108A100A1182075334DA
:1001800074346134743465343A3420344E346F340A
:1001900072346D3461346C3420340A3400340A1003
:1001A0008A100A11820742345234453441344B34A8
:1001B00049344E34473420340A3400340A108A104B
:1001C0000A11820741344334433445344C344534B6
:1001D00052344134543449344E34473420340A3490
:1001E00000340A108A100A11820749344334453416
:1001F00020344E344F3452344D3441344C34003476
:100200000A148A100A1182074934433445342034D1
:100210004F344634463400340130C7074708033CA6
:1002200003181729CB01CA010430C700C6010B11FE
:100230008A112C284308113C031C2929031D242959
:100240004208613C031C29291130C3006230C200FE
:1002500038294308133C03183829FF3A031D342971
:100260004208B43C031838291430C300B430C2002B
:10027000AF1C57298316861083128614AF104208CC
:100280004C3C8316A900FF30AA0083124308031CCC
:10029000430F4B294E298316AA02831283162A087C
:1002A00083128F008316290883128E006F2983160C
:1002B000861083128610AF14FC3042078316A90003
:1002C000831243088316AA003B3003183C30AA0768
:1002D0002A0883128F008316290883128E000C10BF
:1002E0008A112C28C708031D792946080A3C0318DF
:1002F0008C2901084607A1004708A3000318A30A98
:100300002108003CCA000530CB002308031C230F42
:10031000CB028101C701C6010D108A112C282E12B3
:100320002E088316870083120716831686128312FF
:100330008616AE112E088316870083128715AE121B
:100340002E0883168700831287168A1552285B08A9
:10035000DD005C08DE000330DF00831686128312A6
:100360008616AE112E0883168700831287112E126F
:100370002E088316870083120712E0016008173CDD
:10038000031CEF296008033C0318CE296008073CD2
:100390000318D32960080B3C031CD3290310DD0D7F
:1003A000DE0DDF0DED290310DD0DDE0DDF0D031871
:1003B000DB298712DC298716AE122E0883168700E8
:1003C0008312AE112E088316870083128715AE1193
:1003D0002E088316870083128711E00ABE292E1289
:1003E0002E0883168700831207168316861283123F
:1003F00086121030A000A00BFB2900008316861285
:1004000083128616003402305D078400840A840A51
:10041000840A8001840380018403800184038001B5
:100420005D088400840A80018403800106305D0732
:100430008400840A5808800084035708800008302C
:100440005D078400840A5A088000840359088000EC
:100450000A305D078400840A5C08800084035B081E
:1004600080000C305D07DE0006305D078400840AE2
:100470000008E00084030008DF0001305F07A100EE
:100480006008A3000318A30A2108E1002308E20082
:100490007F30E400FF30E3006208E6006108E50019
:1004A000A101A201A001A3016608031D5A2A650843
:1004B0000319742A1030E7000310E30DE40DA00DBA
:1004C000A30D66082302031D672A65082002031C8A
:1004D000702A6508A002031CA3036608A302031484
:1004E000A10DA20DE70B5C2A5E088400840A220895
:1004F00080008403210880000E305D07DE00083094
:100500005D078400840A0008E00084030008DF001F
:1005100001305F07A1006008A3000318A30A2108A7
:10052000E1002308E2000408E3003F30E700FF3069
:10053000E600E500E400EB01EA016208E900610879
:10054000E800A001A101A201A301EC01ED01EE016F
:10055000EF016B086A04690468040319DF2A20307C
:10056000F0000310E40DE50DE60DE70DEC0DED0DCB
:10057000EE0DEF0D6B086F02031DC82A6A086E02AC
:10058000031DC82A69086D02031DC82A68086C0289
:10059000031CD92A6808EC026908031C690FED02E4
:1005A0006A08031C6A0FEE026B08031C6B0FEF0254
:1005B0000314A00DA10DA20DA30DF00BB12A6C30F8
:1005C0008400630884005E08840020088000840A98
:1005D00021088000840A22088000840A2308800001
:1005E0008A158A285830840000080319042B063025
:1005F000A100A001A00BFA2AA10BF92A7B30A000D0
:10060000A00B002B800BF72A00348316861183126F
:1006100086110830A1000C2B0000A1171D2BA1137F
:10062000D80C03188615031C861121171D2B2113C6
:10063000A10B102B1B2B000086150230A00084019B
:10064000840B202BA00B1F2BAD308400840B262B9A
:10065000292B0000A11B0F2B211B172B003402306C
:10066000570784000008D800840A0008D900840ACB
:100670000008DA00840A0008DB00FD308407DB088C
:10068000031D522BDA08031D522B5908263C031870
:10069000502BFF3A031D522B5808103C031C522BC1
:1006A0000030532B0130A1008A151229DC0CDB0C21
:1006B000DC0CDB0C3F30DC055B085902A0005A085B
:1006C000A3005C08031C5C0FA3022008DE002308C3
:1006D000DF000C305D078400840A0008A300840357
:1006E0000008A100A31F772BDF1F832B792BDF1BB3
:1006F000882B23085F02031C882B031D832B5E08B5
:1007000021020318882B7F30E100FF30E000E82C45
:100710000C305D078400840A0008A30084030008ED
:10072000003CA0002308031C230F982B0030992BBA
:10073000003CA3002008A100DF1FA12BA31FAD2BAD
:10074000A32BA31BB22B5F082302031CB22B031D98
:10075000AD2B21085E020318B22B8030E10001307E
:10076000E000E82C06305D078400840A0008F100F0
:1007700084030008F0005F08F3005E08F2008E308A
:10078000A0007308A1007208A200A301F31FCD2BE3
:10079000A109A209A20A0319A10AA108031DDA2BC3
:1007A0002208A100A2010830A002A108031DDA2B33
:1007B000A001E32B0310A11BE12BA20DA10DA003AF
:1007C000DA2BF31FA1132008F2002108F3002208FE
:1007D000F4002308F5007108F7007008F6008E3069
:1007E000A0007708A1007608A200A301A108031DBC
:1007F000032C2208A100A2010830A002A108031DB9
:10080000032CA0010B2C0310A11B0A2CA20DA10D7F
:10081000A003032CA1132308F9002208F8002108E3
:10082000F7002008F6007508FD007408FC00730846
:10083000FB007208FA0076080319BA2C8316A00090
:1008400083127A080319BA2C8316A0070318332CD5
:100850007F30A00203182E2C8312BA2C031D322CD9
:100860008312BA2C392C8130A007031C392C831237
:10087000BA2C20088312A000A101A201A3017708CD
:100880008316A400A417831278088316A30083128A
:1008900079088316A2001830A000A101221C732C35
:1008A00083127D08A307031C5E2CA20A031D5E2C85
:1008B000A10A031D5E2C8316A11783127C08A207D0
:1008C000031C682CA10A031D682C8316A117831230
:1008D0007B08F800F8177808A107031C722C831610
:1008E000A11783128316A10D8312A10CA20CA30CD5
:1008F0008316A40CA30CA20C0310A00B4D2C0130EA
:100900008312A0070318BA2CA11B8F2C8316A40DE9
:100910008312A30DA20DA10DA0030319BA2C8316F7
:10092000A41FA92C8312A30A0319982C8316A92C9F
:10093000A20A03199D2C8316A92CA10A0319A22C23
:100940008316A92CA10CA20CA30CA00A0319BA2C83
:100950008316831277088316A10083127B088316FF
:10096000A106A11FB72C8312A117BE2C83168312D8
:10097000A113BE2CA001A101A201A3012308F9002B
:100980002208F8002108F7002008F6008E30A000A9
:100990007608A0027708A2007808A100A217A00894
:1009A0000319DD2C0310A208031DD92CA10803197B
:1009B000DD2CA20CA10CA00BD22CF71FE42CA1095A
:1009C000A209A10A0319A20A2208E1002108E000F5
:1009D00002305D0784000008F000840A0008F1007E
:1009E000840A0008F200840A0008F3005E08A000F0
:1009F0005F08A100A201A301DF1F002DA203A30332
:100A000020087007EC007108ED0021080318210F81
:100A1000ED077208EE0022080318220FEE07730894
:100A2000EF0023080318230FEF070E305D07840043
:100A30000008A000840A0008A100840A0008A2009F
:100A4000840A0008A300A31F282DEF1F402D2A2D84
:100A5000EF1B652D23086F02031C652D031D402D20
:100A600022086E02031C652D031D402D21086D0216
:100A7000031C652D031D402D6C0820020318652DF5
:100A80003F30E700FF30E600E500E40002305D079C
:100A9000F0000E305D0784000008A000840A000802
:100AA000A100840A0008A200840A0008A3007008BC
:100AB000840020088000840A21088000840A22081B
:100AC0008000840A23088000732E0E305D078400A6
:100AD0000008A000840A0008A100840A0008A200FF
:100AE000840A0008A300FD3084072008003CA00011
:100AF0002108031C210F7E2D00307F2D003CA1001A
:100B00002208031C220F862D0030872D003CA200F6
:100B10002308031C230F8E2D00308F2D003CA300D3
:100B2000EF1F952DA31FAD2D972DA31BF02D6F0843
:100B30002302031CF02D031DAD2D6E082202031CA1
:100B4000F02D031DAD2D6D082102031CF02D031D9A
:100B5000AD2D20086C020318F02DC030E700E6012F
:100B6000E5010130E40002305D07F0000E305D0762
:100B700084000008A000840A0008A100840A00087C
:100B8000A200840A0008A300FD3084072008003C6E
:100B9000A0002108031C210FCF2D0030D02D003CD8
:100BA000A1002208031C220FD72D0030D82D003CB5
:100BB000A2002308031C230FDF2D0030E02D003C92
:100BC000A300F4007008840020088000840A210833
:100BD0008000840A22088000840A74088000732E32
:100BE00002305D0784006C088000840A6D08800074
:100BF000840A6E088000840A6F08800008305D0750
:100C00008400840A0008F10084030008F000023028
:100C10005D0784000008A000840A0008A100840A7F
:100C20000008A200840A0008A300FD3084072308FE
:100C3000F5002208F4002108F3002008F20004085F
:100C4000F600FA01F9017108F8007008F70075085C
:100C50008316A300831274088316A20083127308FC
:100C60008316A100831272088316A0002030A8000A
:100C7000A401A501A601A70183127A08A30079089F
:100C8000A2007808A1007708A0000310201C582EAD
:100C900083162008A40721080318210FA50722089E
:100CA0000318220FA60723080318230FA707831290
:100CB0008316A70CA60CA50CA40C8312A30CA20CE3
:100CC000A10CA00C8316A80B662E682E8312452E4D
:100CD0008312760884002308E7002208E600210832
:100CE000E5002008E4000A305D078400840A00085B
:100CF000F10084030008F0005D088400840A000805
:100D0000F30084030008F2005B087202A00073087D
:100D1000A3005C08031C5C0FA3022008F400230856
:100D2000F5007108F7007008F6007508F9007408FE
:100D3000F8001030FA00A001A301F70CF60C031C18
:100D4000A72E7808A0070318A30A7908A307A30C05
:100D5000A00CA20CA10CFA0B9D2E2108E200220887
:100D6000E3005D088400840A5C08800084035B085B
:100D7000800062086007F0006108F1006308031852
:100D8000630FF10764087007F2007108F30065084B
:100D90000318650FF3077308F5007208F400F701F4
:100DA0008030F600750877068039F900F51FDD2ED2
:100DB000F409F509F40A0319F50AF71FE42EF609F8
:100DC000F709F60A0319F70AA101A201A001A3017C
:100DD0007708031DEE2E76080319082F1030F8004F
:100DE0000310F40DF50DA00DA30D77082302031DCC
:100DF000FB2E76082002031C042F7608A002031C99
:100E0000A3037708A3020314A10DA20DF80BF02E83
:100E1000F91F0F2FA109A209A10A0319A20A22088A
:100E2000A3002108A0002208A100A201A301A11F84
:100E30001B2FA203A3032308EB002208EA002108CA
:100E4000E9002008E800EB1B362FEB08031D2F2FCD
:100E5000EA08031D2F2F69087F3C0318362FEB018A
:100E6000EA017F30E900FF30E800552FEB1F552FD6
:100E70006B08FF3C031C552F031D4E2F6A08FF3CD7
:100E8000031C552F031D4E2F6908803C031C552F52
:100E9000031D4E2F6808003C031C552FFF30EB004C
:100EA000EA008030E9000130E8006808A100690824
:100EB000A2008A15A1290530DC001430DB00A7212F
:100EC0000230D700FA30D800F222D70B622F8A15F1
:020ED000F929FE
:1010000084011F308305831686118312861583168B
:101010001F149F141F159F1107309C00FF3083126F
:10102000AE002F10B430C2001430C300AF102F1127
:10103000AF11C401C501C601C701C801C901CA0178
:10104000CB01CC01CD01CE01CF01D001D101D20124
:10105000D3012F12AF122F13D401D50183161F1401
:101060009F141F159F1183121F10940183160108EE
:10107000C039003881006400831290010030A10063
:1010800092000030831692001F109F101F119F11B5
:101090001F1383121F179F1783169F1783121F1486
:1010A0008A118F298A159530900083160108C0395E
:1010B000063881008312AE142E088316870083122F
:1010C0009D0105309D0083160D1483128B16831627
:1010D0000C14C03083128B04D601831606108312C1
:1010E0000610DC01DB018A11A7218A152F16831651
:1010F0000611831206158316061283120612D801F2
:101100008030D700DA01D901DC01DB013030DD00AD
:101110008A11032A8A150C30D700FA30D8008A11B8
:10112000F2228A15D70B8D280830A1001F08C73975
:1011300021049F002130A000A00B9C281F151F191F
:101140009F2883161E088312D2001E08D300003089
:10115000A1001F08C73921049F002130A000A00B67
:10116000AF281F151F19B22883161E088312D0003E
:101170001E08D1005108013C031CC828031DC428C7
:1011800050083B3C031CC8280130D1003C30D00043
:101190005308023C0318F328FF3A031DD3285208D2
:1011A0001E3C0318F328D70157088A1145208A15D9
:1011B000D70AA000D8008A1105238A1512305702D9
:1011C000031DD4288316061083120610DC01DB01F0
:1011D0008A11A7218A158316061183120615D601D6
:1011E000AA2AAA2A8C292F1E0E29CB08031D0E29F4
:1011F0004A08313C031C0E29D70157088A115C208C
:101200008A15D70AA000D8008A1105238A1515303F
:101210005702031DFD280130D6008C293030D7003D
:101220008A112F2B8A15A10803192929D7015708DC
:101230008A1176208A15D70AA000D8008A110523C2
:101240008A1511305702031D17292F160530D600B5
:101250008C295308023C03184F29FF3A031D3429F7
:101260005208193C03184F295608023C03193C291F
:101270005608043C031D4F29D70157088A118C20BA
:101280008A15D70AA000D8008A1105238A151230C2
:101290005702031D3D292F120330D6008C29530815
:1012A000013C031C7029031D592952084E3C031CA4
:1012B00070295608023C03197029D70157088A1172
:1012C000A3208A15D70AA000D8008A1105238A1501
:1012D00013305702031D5E292F160230D6008C29C9
:1012E0005308003C03187A29FF3A031D7B29520852
:1012F000B33C03180030D70157088A11BB208A1568
:10130000D70AA000D8008A1105238A150F3057028A
:10131000031D7C290430D6003C305002D700510810
:10132000D8000130031C0230D8025808DA005708F0
:10133000D9004B08DC004A08DB003030DD008A11A0
:10134000562B8A152208D5002108D4005408CC0752
:1013500055080318550FCD07CD1BBE294D08083C75
:101360000318BE29FF3A031DB9294C08C43C0318D1
:10137000BE290930CD00C430CC00CE29CD1FCE29E6
:101380004D08FF3C031CCE29031DCA294C08373CDD
:10139000031CCE29FF30CD003830CC00D60803190D
:1013A000A92A560BD429D8295608053C031DEB2938
:1013B0004C08B43CA0001430A3004D08031C4D0F92
:1013C000A3022008C2002308C300DC01DB018A114C
:1013D000A7218A15A92ACD1F3A2A5608023C0319CB
:1013E000F5295608043C031D342AAF1EFA298A1138
:1013F0005B2F8A15AF128316061283120616831608
:10140000061083120614D70157088A11CF208A15B7
:10141000D70AA000D8008A1105238A150A3057027E
:10142000031D042A4D08A3004C08CD1F202A4C0898
:10143000003CA000A3014D08031C4D0FA30220088F
:10144000D7002308D80084305707D9005808DA009D
:10145000033003180430DA075A08DC005908DB00AF
:101460008A11A7218A15392ADC01DB018A11A721FB
:101470008A15812A5608033C0319422A5608043C5F
:10148000031D7C2AAF1683160612831206128316DA
:10149000061083120610D70157088A11DE208A151C
:1014A000D70AA000D8008A1105238A150E305702EA
:1014B000031D4C2A4D08A3004C08CD1F682A4C0878
:1014C000003CA000A3014D08031C4D0FA3022008FF
:1014D000D7002308D80084305707D9005808DA000D
:1014E000033003180430DA075A08DC005908DB001F
:1014F0008A11A7218A15812ADC01DB018A11A72123
:101500008A152F1E962AD70157088A11F1208A15AD
:10151000D70AA000D8008A1105238A150A3057027D
:10152000031D842AC301C830C200A92A1430C30095
:10153000B430C200D70157088A1100218A15D70A92
:10154000A000D8008A1105238A1507305702031D11
:061550009B2A9428AA2A40
:02400E003A373F
:00000001FF
;PIC16F873A
;CRC=B956  CREATED="01-Jun-13 17:17"
