:1000000008308A0000280000FF00030E8301A600CC
:100010007F08A5000A08AD008A01A50E0408A70004
:100020002008A8002108A9002208AA002308AB0084
:100030002408AC00831383128C308400001C222817
:100040000C183F288D308400001C28280D184128EA
:100050008B1E2C280B194328270884002808A00091
:100060002908A1002A08A2002B08A3002C08A4003C
:100070002D088A00260E8300FF0E7F0E09008A11CC
:10008000EA288A1142298A11DC280A108A100A11EA
:10009000820743346834653463346B3400340A10A7
:1000A0008A100A118207533474346134743465340D
:1000B0003A3420345434683472346F3474347434C1
:1000C0006C34653420344F346634663420340A345A
:1000D00000340A108A100A118207533474346134D0
:1000E000743465343A3420345334703465346534B0
:1000F0006434203454346F3420344C346F347734C7
:1001000020340A3400340A108A100A11820753344A
:1001100074346134743465343A3420345234553490
:100120004E344E34413457344134593420340A3437
:1001300000340A108A100A1182075334743461346F
:10014000743465343A342034433461347034733455
:100150002034463475346C346C3420340A34003422
:100160000A108A100A1182075334743461347434CB
:1001700065343A3420344334613470347334203479
:1001800045346D3470347434793420340A34003496
:100190000A108A100A11820753347434613474349B
:1001A00065343A3420344E346F3472346D346134F3
:1001B0006C3420340A3400340130C7074708033C4C
:1001C0000318E728CB01CA010430C700C6010B1190
:1001D0008A112C2843080D3C031CF928031DF42820
:1001E0004208AB3C031CF9280D30C300AC30C20000
:1001F00008294308133C03180829FF3A031D042962
:100200004208B43C031808291430C300B430C200BB
:10021000AF1C27298316861083128614AF1042085C
:100220004C3C8316A600FF30A70083124308031C32
:10023000430F1B291E298316A70283128316270842
:1002400083128F008316260883128E003F2983169F
:10025000861083128610AF14FC3042078316A60066
:10026000831243088316A7003B3003183C30A707CE
:10027000270883128F008316260883128E000C1025
:100280008A112C28C708031D492946080A3C03186F
:100290005C2901084607A1004708A3000318A30A28
:1002A0002108003CCA000530CB002308031C230FA3
:1002B000CB028101C701C6010D108A112C282E1214
:1002C0002E08831687008312071683168612831260
:1002D0008616AE112E088316870083128715AE127C
:1002E0002E0883168700831287168A154E285B080E
:1002F000DD005C08DE000330DF0083168612831207
:100300008616AE112E0883168700831287112E12CF
:100310002E088316870083120712E0016008173C3D
:10032000031CBF296008033C03189E296008073C92
:100330000318A32960080B3C031CA3290310DD0D3F
:10034000DE0DDF0DBD290310DD0DDE0DDF0D031801
:10035000AB298712AC298716AE122E0883168700A8
:100360008312AE112E088316870083128715AE11F3
:100370002E088316870083128711E00A8E292E1219
:100380002E0883168700831207168316861283129F
:1003900086121030A000A00BCB2900008316861215
:1003A00083128616003402305D078400840A840AB2
:1003B000840A800184038001840380018403800116
:1003C0005D088400840A80018403800106305D0793
:1003D0008400840A5808800084035708800008308D
:1003E0005D078400840A5A0880008403590880004D
:1003F0000A305D078400840A5C08800084035B087F
:1004000080000C305D07DE0006305D078400840A42
:100410000008E00084030008DF0001305F07A1004E
:100420006008A3000318A30A2108E1002308E200E2
:100430007F30E400FF30E3006208E6006108E50079
:10044000A101A201A001A3016608031D2A2A6508D3
:100450000319442A1030E7000310E30DE40DA00D4A
:10046000A30D66082302031D372A65082002031C1A
:10047000402A6508A002031CA3036608A302031414
:10048000A10DA20DE70B2C2A5E088400840A220825
:1004900080008403210880000E305D07DE000830F4
:1004A0005D078400840A0008E00084030008DF0080
:1004B00001305F07A1006008A3000318A30A210808
:1004C000E1002308E2000408E3003F30E700FF30CA
:1004D000E600E500E400EB01EA016208E9006108DA
:1004E000E800A001A101A201A301EC01ED01EE01D0
:1004F000EF016B086A04690468040319AF2A20300D
:10050000F0000310E40DE50DE60DE70DEC0DED0D2B
:10051000EE0DEF0D6B086F02031D982A6A086E023C
:10052000031D982A69086D02031D982A68086C0249
:10053000031CA92A6808EC026908031C690FED0274
:100540006A08031C6A0FEE026B08031C6B0FEF02B4
:100550000314A00DA10DA20DA30DF00B812A6C3088
:100560008400630884005E08840020088000840AF8
:1005700021088000840A22088000840A2308800061
:100580008A1586285830840000080319D42A0630BA
:10059000A100A001A00BCA2AA10BC92A7B30A00090
:1005A000A00BD02A800BC72A003400340030A100F1
:1005B0008A153929DC0CDB0CDC0CDB0C3F30DC054C
:1005C0005B085902A0005A08A3005C08031C5C0FDA
:1005D000A3022008DE002308DF000C305D07840042
:1005E000840A0008A30084030008A100A31FFB2ABB
:1005F000DF1F072BFD2ADF1B0C2B23085F02031CC8
:100600000C2B031D072B5E08210203180C2B7F30D7
:10061000E100FF30E0006C2C0C305D078400840AA0
:100620000008A30084030008003CA0002308031C6A
:10063000230F1C2B00301D2B003CA3002008A10021
:10064000DF1F252BA31F312B272BA31B362B5F0866
:100650002302031C362B031D312B21085E020318D5
:10066000362B8030E1000130E0006C2C06305D0755
:100670008400840A0008F10084030008F0005F0889
:10068000F3005E08F2008E30A0007308A10072082B
:10069000A200A301F31F512BA109A209A20A031969
:1006A000A10AA108031D5E2B2208A100A2010830A7
:1006B000A002A108031D5E2BA001672B0310A11B44
:1006C000652BA20DA10DA0035E2BF31FA113200823
:1006D000F2002108F3002208F4002308F500710855
:1006E000F7007008F6008E30A0007708A1007608A9
:1006F000A200A301A108031D872B2208A100A201CB
:100700000830A002A108031D872BA0018F2B031026
:10071000A11B8E2BA20DA10DA003872BA1132308D3
:10072000F9002208F8002108F7002008F6007508F3
:10073000FD007408FC007308FB007208FA007608DC
:1007400003193E2C8316A00083127A0803193E2C4D
:100750008316A0070318B72B7F30A0020318B22B13
:1007600083123E2C031DB62B83123E2CBD2B8130F1
:10077000A007031CBD2B83123E2C20088312A0006F
:10078000A101A201A30177088316A400A417831274
:1007900078088316A300831279088316A200183004
:1007A000A000A101221CF72B83127D08A307031CC4
:1007B000E22BA20A031DE22BA10A031DE22B8316E2
:1007C000A11783127C08A207031CEC2BA10A031DAE
:1007D000EC2B8316A11783127B08F800F817780812
:1007E000A107031CF62B8316A11783128316A10DF4
:1007F0008312A10CA20CA30C8316A40CA30CA20CB4
:100800000310A00BD12B01308312A00703183E2C3C
:10081000A11B132C8316A40D8312A30DA20DA10DF1
:10082000A00303193E2C8316A41F2D2C8312A30AA8
:1008300003191C2C83162D2CA20A0319212C8316B4
:100840002D2CA10A0319262C83162D2CA10CA20CE9
:10085000A30CA00A03193E2C831683127708831673
:10086000A10083127B088316A106A11F3B2C8312D3
:10087000A117422C83168312A113422CA001A101BF
:10088000A201A3012308F9002208F8002108F700BB
:100890002008F6008E30A0007608A0027708A2009B
:1008A0007808A100A217A0080319612C0310A20860
:1008B000031D5D2CA1080319612CA20CA10CA00B37
:1008C000562CF71F682CA109A209A10A0319A20A34
:1008D0002208E1002108E00002305D0784000008E2
:1008E000F000840A0008F100840A0008F200840A7B
:1008F0000008F3005E08A0005F08A100A201A301A8
:10090000DF1F842CA203A30320087007EC007108EA
:10091000ED0021080318210FED077208EE002208F0
:100920000318220FEE077308EF0023080318230FA4
:10093000EF070E305D0784000008A000840A00085D
:10094000A100840A0008A200840A0008A300A31FD3
:10095000AC2CEF1FC42CAE2CEF1BE92C23086F022C
:10096000031CE92C031DC42C22086E02031CE92C75
:10097000031DC42C21086D02031CE92C031DC42C8B
:100980006C0820020318E92C3F30E700FF30E60036
:10099000E500E40002305D07F0000E305D078400E2
:1009A0000008A000840A0008A100840A0008A20030
:1009B000840A0008A3007008840020088000840ACC
:1009C00021088000840A22088000840A230880000D
:1009D000FD2D0E305D0784000008A000840A000889
:1009E000A100840A0008A200840A0008A300FD30C8
:1009F00084072008003CA0002108031C210F022DC1
:100A00000030032D003CA1002208031C220F0A2DF8
:100A100000300B2D003CA2002308031C230F122DD5
:100A20000030132D003CA300EF1F192DA31F312D03
:100A30001B2DA31B742D6F082302031C742D031D93
:100A4000312D6E082202031C742D031D312D6D08FB
:100A50002102031C742D031D312D20086C02031884
:100A6000742DC030E700E601E5010130E4000230FA
:100A70005D07F0000E305D0784000008A000840AC6
:100A80000008A100840A0008A200840A0008A3004C
:100A9000FD3084072008003CA0002108031C210F22
:100AA000532D0030542D003CA1002208031C220FBE
:100AB0005B2D00305C2D003CA2002308031C230F9B
:100AC000632D0030642D003CA300F4007008840006
:100AD00020088000840A21088000840A22088000FF
:100AE000840A74088000FD2D02305D0784006C08C4
:100AF0008000840A6D088000840A6E088000840AE1
:100B00006F08800008305D078400840A0008F10047
:100B100084030008F00002305D0784000008A00094
:100B2000840A0008A100840A0008A200840A0008C0
:100B3000A300FD3084072308F5002208F4002108F3
:100B4000F3002008F2000408F600FA01F901710828
:100B5000F8007008F7007508FE007408FD007308BF
:100B6000FC007208FB0020308316A400A001A10144
:100B7000A201A30183127A08A3007908A2007808D1
:100B8000A1007708A0000310201CE22D7B0883162B
:100B9000A00783127C0803187C0FCF2DD22D83165B
:100BA000A10783127D0803187D0FD72DDA2D831638
:100BB000A20783127E0803187E0FDF2DE22D831615
:100BC000A30783128316A30CA20CA10CA00C831202
:100BD000A30CA20CA10CA00C8316A40BF02DF22DDB
:100BE0008312C32D8312760884002308E7002208AD
:100BF000E6002108E5002008E4000A305D078400D3
:100C0000840A0008F10084030008F0005D088400F5
:100C1000840A0008F30084030008F2005B087202F3
:100C2000A0007308A3005C08031C5C0FA30220084B
:100C3000F4002308F5007108F7007008F600750845
:100C4000F9007408F8001030FA00A001A301F70CB5
:100C5000F60C031C312E7808A0070318A30A7908A4
:100C6000A307A30CA00CA20CA10CFA0B272E2108A1
:100C7000E2002208E3005D088400840A5C0880002A
:100C800084035B08800062086007F0006108F100DF
:100C900063080318630FF10764087007F200710816
:100CA000F30065080318650FF3077308F500720871
:100CB000F400F7018030F600750877068039F900F6
:100CC000F51F672EF409F509F40A0319F50AF71F51
:100CD0006E2EF609F709F60A0319F70AA101A20117
:100CE000A001A3017708031D782E76080319922E20
:100CF0001030F8000310F40DF50DA00DA30D7708CA
:100D00002302031D852E76082002031C8E2E7608F2
:100D1000A002031CA3037708A3020314A10DA20DD4
:100D2000F80B7A2EF91F992EA109A209A10A03191D
:100D3000A20A2208A3002108A0002208A100A20103
:100D4000A301A11FA52EA203A3032308EB002208E1
:100D5000EA002108E9002008E800EB1BC02EEB08A0
:100D6000031DB92EEA08031DB92E69087F3C03183C
:100D7000C02EEB01EA017F30E900FF30E800DF2EF2
:100D8000EB1FDF2E6B08FF3C031CDF2E031DD82E4C
:100D90006A08FF3C031CDF2E031DD82E6908803C27
:100DA000031CDF2E031DD82E6808003C031CDF2E19
:100DB000FF30EB00EA008030E9000130E80068080D
:100DC000A1006908A2008A15C4290530DC0014308E
:100DD000DB0077210230D700FA30D800C222D70BCF
:060DE000EC2E8A153C2AEE
:1010000084011F30830583161F149F141F159F1121
:1010100007309C00FF308312AE002F10B430C200A6
:101020001430C300AF102F11AF11C401C501C601A8
:10103000C701C801C901CA01CB01CC01CD01CE0154
:10104000CF01D001D101D201D3012F12AF122F1342
:10105000D401D50183161F149F141F159F118312ED
:101060001F10940183160108C03900388100640004
:10107000831290010030A10092000030831692008C
:101080001F109F101F119F111F1383121F179F17EF
:1010900083169F1783121F148A115F298A159530B2
:1010A000900083160108C039063881008312AE14FF
:1010B0002E088316870083129D0105309D0083163C
:1010C0000D1483128B1683160C14C03083128B04FC
:1010D000D6018316061083120610DC01DB018A118B
:1010E00077218A152F16831606118312061583168B
:1010F000061283120612D8018030D700DA01D90116
:10110000DC01DB013030DD008A11D3298A150C3077
:10111000D700FA30D8008A11C2228A15D70B892845
:101120001130C3009430C2000830D700FA30D80024
:101130008A11C2228A15D70B96281430C300B43006
:10114000C200D70157088A1145208A1500380319B3
:10115000AF28D70AD8008A11D5228A15A228FA30DA
:10116000D8008A11C2228A150830A1001F08C73989
:1011700021049F002130A000A00BBC281F151F19BF
:10118000BF2883161E088312D2001E08D300003029
:10119000A1001F08C73921049F002130A000A00B27
:1011A000CF281F151F19D22883161E088312D000BE
:1011B0001E08D1005108013C031CE828031DE42847
:1011C00050083B3C031CE8280130D1003C30D000E3
:1011D0005308013C03180029FF3A031DF328520865
:1011E000DF3C031800298316061083120610DC0169
:1011F000DB018A1177218A15CF01CE01D601AF29F3
:101200005108013C031C1B29031D0A295008403CBE
:10121000031C1B290630D600D70157088A114F201E
:101220008A15003803191A29D70AD8008A11D5223D
:101230008A150D29AF292F1E3529CB08031D352905
:101240004A08313C031C3529D70157088A11692007
:101250008A15003803193229D70AD8008A11D522F5
:101260008A1525290130D600AF293030D7008A11E0
:10127000D62A8A15A10803194F29D70157088A11C0
:1012800083208A15003803194B29D70AD8008A1100
:10129000D5228A153E292F160530D600AF295308CE
:1012A000013C03187429FF3A031D5A295208D53C02
:1012B000031874295608023C031962295608043C95
:1012C000031D7429D70157088A1199208A150038FF
:1012D00003197029D70AD8008A11D5228A156329E3
:1012E0002F120330D600AF295308013C031C942968
:1012F000031D7E2952084E3C031C94295608023CCB
:1013000003199429D70157088A11B0208A1500388B
:1013100003199029D70AD8008A11D5228A15832962
:101320002F160230D600AF295308003C03189E291F
:10133000FF3A031D9F295208B33C03180030D70120
:1013400057088A11C8208A1500380319AD29D70A11
:10135000D8008A11D5228A15A0290430D6003C3045
:101360005002D7005108D8000130031C0230D802C7
:101370005808DA005708D9004B08DC004A08DB009F
:101380003030DD008A11DA2A8A152208D5002108BA
:10139000D4005408CC0755080318550FCD07CD1BB2
:1013A000E1294D08083C0318E129FF3A031DDC2917
:1013B0004C08C43C0318E1290930CD00C430CC00EE
:1013C000F129CD1FF1294D08FE3C031CF129031D15
:1013D000ED294C080B3C031CF129FE30CD000C30EC
:1013E000CC00D6080319F8295608063C031D052A27
:1013F000CF01CE012F121430C300B430C200DC0183
:10140000DB018A1177218A15B12A560B082A0C2A8A
:101410005608053C031D2E2ACD1B232ACD08031D8B
:10142000152A4C08003C0318232A4C08B43CA000A1
:101430001430A3004D08031C4D0FA3022008C20066
:101440002308C300272A1430C300B430C2002F166B
:10145000DC01DB018A1177218A15B12ACD1F6E2AA2
:101460005608023C0319382A5608043C031D682A12
:10147000AF1E3D2A8A11E52E8A15AF128316061279
:101480008312061683160610831206144D08A30055
:101490004C08CD1F542A4C08003CA000A3014D0865
:1014A000031C4D0FA3022008D7002308D800843066
:1014B0005707D9005808DA00033003180430DA0758
:1014C0005A08DC005908DB008A1177218A156D2A39
:1014D000DC01DB018A1177218A15A62A5608033C14
:1014E0000319762A5608043C031DA12AAF16831659
:1014F00006128312061283160610831206104D0878
:10150000A3004C08CD1F8D2A4C08003CA000A3016D
:101510004D08031C4D0FA3022008D7002308D80054
:1015200084305707D9005808DA0003300318043014
:10153000DA075A08DC005908DB008A1177218A157E
:10154000A62ADC01DB018A1177218A152F1EAD2A1C
:101550001130C3009430C200B12A1430C300B4303B
:06156000C200A128630097
:02400E00723FFF
:00000001FF
;PIC16F873A
;CRC=8D20  CREATED="22-Jun-13 15:56"
