:1000000008308A0000280000FF00030E8301A600CC
:100010007F08A5000A08AD008A01A50E0408A70004
:100020002008A8002108A9002208AA002308AB0084
:100030002408AC00831383128C308400001C222817
:100040000C183F288D308400001C28280D184128EA
:100050008B1E2C280B194328270884002808A00091
:100060002908A1002A08A2002B08A3002C08A4003C
:100070002D088A00260E8300FF0E7F0E09008A11CC
:1000800053288A11AB288A1145280130C507450835
:10009000033C03185028C701C6010430C500C40141
:1000A0000B118A112C2842080D3C031C6228031DE9
:1000B0005D284108AB3C031C62280D30C200AC3007
:1000C000C10071284208133C03187128FF3A031D30
:1000D0006D284108B43C031871281430C200B430B4
:1000E000C100431C90288316861083128614431087
:1000F00041084C3C8316A500FF30A600831242083D
:10010000031C420F842887288316A60283128316B5
:10011000260883128F008316250883128E00A828D4
:1001200083168610831286104314FC304107831611
:10013000A500831242088316A6003B3003183C300A
:10014000A607260883128F008316250883128E00C7
:100150000C108A112C28C508031DB22844080A3C3B
:100160000318C52801084407A1004508A300031887
:10017000A30A2108003CC6000530C7002308031C61
:10018000230FC7028101C501C4010D108A112C285B
:100190002E122E08831687008312071683168612E6
:1001A00083128616AE112E088316870083128715D8
:1001B000AE122E0883168700831287168A154728E9
:1001C0005708D9005808DA000330DB00831686127E
:1001D00083128616AE112E088316870083128711AC
:1001E0002E122E088316870083120712DC015C088A
:1001F000173C031C28295C08033C031807295C08EA
:10020000073C03180C295C080B3C031C0C29031049
:10021000D90DDA0DDB0D26290310D90DDA0DDB0D12
:1002200003181429871215298716AE122E08831673
:1002300087008312AE112E0883168700831287155C
:10024000AE112E088316870083128711DC0AF72867
:100250002E122E0883168700831207168316861225
:10026000831286121030A000A00B342900008316E0
:100270008612831286160034023059078400840ADD
:10028000840A840A8001840380018403800184033A
:10029000800159088400840A8001840380010630AB
:1002A00059078400840A540880008403530880009E
:1002B000083059078400840A5608800084035508D2
:1002C00080000A3059078400840A5808800084039B
:1002D000570880000C305907DA00063059078400AF
:1002E000840A0008DC0084030008DB0001305B079F
:1002F000A1005C08A3000318A30A2108DD0023085D
:10030000DE007F30E000FF30DF005E08E2005D08C5
:10031000E100A101A201A001A3016208031D93292C
:1003200061080319AD291030E3000310DF0DE00D63
:10033000A00DA30D62082302031DA029610820025D
:10034000031CA9296108A002031CA3036208A302DD
:100350000314A10DA20DE30B95295A088400840A09
:10036000220880008403210880000E305907DA003B
:10037000083059078400840A0008DC008403000860
:10038000DB0001305B07A1005C08A3000318A30A8F
:100390002108DD002308DE000408DF003F30E30011
:1003A000FF30E200E100E000E701E6015E08E50061
:1003B0005D08E400A001A101A201A301E801E90197
:1003C000EA01EB0167086604650464040319182A4E
:1003D0002030EC000310E00DE10DE20DE30DE80D1F
:1003E000E90DEA0DEB0D67086B02031D012A660893
:1003F0006A02031D012A65086902031D012A6408B7
:100400006802031C122A6408E8026508031C650FD1
:10041000E9026608031C660FEA026708031C670FFF
:10042000EB020314A00DA10DA20DA30DEC0BEA2904
:10043000683084005F0884005A0884002008800027
:10044000840A21088000840A22088000840A230884
:1004500080008A157F2854308400000803193D2A43
:100460000630A100A001A00B332AA10B322A7B3059
:10047000A000A00B392A800B302A00340030A100E4
:100480008A150D29D80CD70CD80CD70C3F30D805BD
:1004900057085502A0005608A3005808031C580F1F
:1004A000A3022008DA002308DB000C30590784007F
:1004B000840A0008A30084030008A100A31F632A84
:1004C000DB1F6F2A652ADB1B742A23085B02031CCF
:1004D000742A031D6F2A5A0821020318742A7F30D8
:1004E000DD00FF30DC00A52B0C3059078400840AA6
:1004F0000008A30084030008003CA0002308031C9C
:10050000230F842A0030852A003CA3002008A10084
:10051000DB1F8D2AA31F992A8F2AA31B9E2A5B0803
:100520002302031C9E2A031D992A21085A0203183C
:100530009E2A8030DD000130DC00A52B06305907F3
:100540008400840A0008ED0084030008EC005B08C6
:10055000EF005A08EE008E30A0006F08A1006E0870
:10056000A200A301EF1FB92AA109A209A20A031937
:10057000A10AA108031DC62A2208A100A201083071
:10058000A002A108031DC62AA001CF2A0310A11BA7
:10059000CD2AA20DA10DA003C62AEF1FA11320088A
:1005A000EE002108EF002208F0002308F1006D089A
:1005B000F3006C08F2008E30A0007308A1007208EE
:1005C000A200A301A108031DEF2A2208A100A20195
:1005D0000830A002A108031DEF2AA001F72A03108A
:1005E000A11BF62AA20DA10DA003EF2AA113230837
:1005F000F5002208F4002108F3002008F200710839
:10060000F9007008F8006F08F7006E08F60072082D
:100610000319772BFA0076080319772BFA070318CA
:10062000182B7F30FA02031C772B0319772B1C2B16
:100630008130FA070318772B7A08A000A101A201E4
:10064000A3017308FE00FE177408FD007508FC0086
:100650001830FA00FB017C1C452B7908A307031C0A
:10066000372BA20A031D372BA10A0319FB177808A1
:10067000A207031C3E2BA10A0319FB177708F400FD
:10068000F4177408A1070318FB17FB0DA10CA20CAB
:10069000A30CFE0CFD0CFC0C0310FA0B2A2B0130F2
:1006A000A0070318772BA11B5C2BFE0DA30DA20D39
:1006B000A10DA0030319772BFE1F6D2BA30A031DA9
:1006C0006D2BA20A031D6D2BA10A031D6D2BA10C1E
:1006D000A20CA30CA00A0319772B7308FB00770860
:1006E000FB06FB1F752BA1177B2BA1137B2BA001F6
:1006F000A101A201A3012308F5002208F4002108AA
:10070000F3002008F2008E30A0007208A0027308E7
:10071000A2007408A100A217A00803199A2B0310C5
:10072000A208031D962BA10803199A2BA20CA10C59
:10073000A00B8F2BF31FA12BA109A209A10A03195A
:10074000A20A2208DD002108DC00023059078400DB
:100750000008EC00840A0008ED00840A0008EE009E
:10076000840A0008EF005A08A0005B08A100A2015B
:10077000A301DB1FBD2BA203A30320086C07E80025
:100780006D08E90021080318210FE9076E08EA0047
:1007900022080318220FEA076F08EB00230803184A
:1007A000230FEB070E30590784000008A000840ACD
:1007B0000008A100840A0008A200840A0008A3001F
:1007C000A31FE52BEB1FFD2BE72BEB1B222C230894
:1007D0006B02031C222C031DFD2B22086A02031C42
:1007E000222C031DFD2B21086902031C222C031D52
:1007F000FD2B680820020318222C3F30E300FF3055
:10080000E200E100E00002305907EC000E30590729
:1008100084000008A000840A0008A100840A0008DF
:10082000A200840A0008A3006C088400200880004D
:10083000840A21088000840A22088000840A230890
:100840008000362D0E30590784000008A000840A6D
:100850000008A100840A0008A200840A0008A3007E
:10086000FD3084072008003CA0002108031C210F54
:100870003B2C00303C2C003CA1002208031C220F22
:10088000432C0030442C003CA2002308031C230FFF
:100890004B2C00304C2C003CA300EB1F522CA31F10
:1008A0006A2C542CA31BAD2C6B082302031CAD2C0B
:1008B000031D6A2C6A082202031CAD2C031D6A2C3E
:1008C00069082102031CAD2C031D6A2C2008680254
:1008D0000318AD2CC030E300E201E1010130E0007B
:1008E00002305907EC000E30590784000008A000C0
:1008F000840A0008A100840A0008A200840A0008F3
:10090000A300FD3084072008003CA0002108031C40
:10091000210F8C2C00308D2C003CA1002208031CE0
:10092000220F942C0030952C003CA2002308031CBD
:10093000230F9C2C00309D2C003CA300F0006C0881
:10094000840020088000840A21088000840A22088C
:100950008000840A70088000362D02305907840018
:1009600068088000840A69088000840A6A08800098
:10097000840A6B088000083059078400840A000844
:10098000ED0084030008EC000230590784000008E1
:10099000A000840A0008A100840A0008A200840ABA
:1009A0000008A300FD3084072308F1002208F000AE
:1009B0002108EF002008EE000408F200F601F5011E
:1009C0006D08F4006C08F3007108FA007008F90073
:1009D0006F08F8006E08F70020308316A400A0010D
:1009E000A101A201A30183127608A3007508A20049
:1009F0007408A1007308A0000310201C1B2D7708A9
:100A00008316A007831278080318780F082D0B2D82
:100A10008316A107831279080318790F102D132D5F
:100A20008316A20783127A0803187A0F182D1B2D3C
:100A30008316A30783128316A30CA20CA10CA00C8F
:100A40008312A30CA20CA10CA00C8316A40B292DBD
:100A50002B2D8312FC2C8312720884002308E300E0
:100A60002208E2002108E1002008E0000A305907CE
:100A70008400840A0008ED0084030008EC00590893
:100A80008400840A0008EF0084030008EE00570881
:100A90006E02A0006F08A3005808031C580FA302A1
:100AA0002008F0002308F1006D08F3006C08F20044
:100AB0007108F5007008F4001030F600A001A301E1
:100AC000F30CF20C031C6A2D7408A0070318A30A88
:100AD0007508A307A30CA00CA20CA10CF60B602DAB
:100AE0002108DE002208DF0059088400840A580823
:100AF00080008403570880005E085C07EC005D08F6
:100B0000ED005F0803185F0FED0760086C07EE004B
:100B10006D08EF0061080318610FEF076F08F1001F
:100B20006E08F000F3018030F2007108730680391E
:100B3000F500F11FA02DF009F109F00A0319F10ADF
:100B4000F31FA72DF209F309F20A0319F30AA10111
:100B5000A201A001A3017308031DB12D720803199E
:100B6000CB2D1030F4000310F00DF10DA00DA30DEE
:100B700073082302031DBE2D72082002031CC72D1B
:100B80007208A002031CA3037308A3020314A10D9F
:100B9000A20DF40BB32DF51FD22DA109A209A10AB4
:100BA0000319A20A2208A3002108A0002208A1001C
:100BB000A201A301A11FDE2DA203A3032308E700C6
:100BC0002208E6002108E5002008E400E71BF92DD3
:100BD000E708031DF22DE608031DF22D65087F3C92
:100BE0000318F92DE701E6017F30E500FF30E4004E
:100BF000182EE71F182E6708FF3C031C182E031D34
:100C0000112E6608FF3C031C182E031D112E6508CB
:100C1000803C031C182E031D112E6408003C031C8D
:100C2000182EFF30E700E6008030E5000130E400D8
:100C30006408A1006508A2008A1574290530D8004F
:100C40001430D700E0200230D300FA30D4002B2239
:080C5000D30B252E8A15EC29B7
:1010000084011F30830583161F149F141F159F1121
:1010100007309C00FF308312AE00B430C1001430A2
:10102000C2004310C401C501C601C701C801C901FE
:10103000CA01CB01CC01CD01CE01CF01C3104311B8
:10104000C311D001D10183161F149F141F159F11C6
:1010500083121F10940183160108C03900388100E3
:101060006400831290010030A100920000308316CA
:1010700092001F109F101F119F111F1383121F1723
:101080009F1783169F1783121F148A11C8288A1569
:101090009530900083160108C0390638810083120C
:1010A000AE142E088316870083129D0105309D0023
:1010B00083160D1483128B1683160C14C030831202
:1010C0008B04D2018316061083120610D801D701B3
:1010D0008A11E0208A15C31483160611831206159F
:1010E0008316061283120612D4016630D300D6018D
:1010F000D501D801D7012F30D9008A113C298A1592
:101100000C30D300FA30D4008A112B228A15D30B6D
:1011100082281130C2009430C1000830D300FA3068
:10112000D4008A112B228A15D30B8F281430C200C9
:10113000B430C1000830A1001F08C73921049F0046
:101140002130A000A00BA2281F151F19A528831667
:101150001E088312CE001E08CF000030A1001F0819
:10116000C73921049F002130A000A00BB5281F150E
:101170001F19B82883161E088312CC001E08CD0044
:101180004D08013C031CCE28031DCA284C083B3CDB
:10119000031CCE280130CD003C30CC004F08013C70
:1011A0000318E628FF3A031DD9284E08DF3C031830
:1011B000E6288316061083120610D801D7018A117B
:1011C000E0208A15CB01CA01D2015F294D08013CFC
:1011D000031CF828031DF0284C08403C031CF82889
:1011E0000630D200FA30D4008A112B228A155F29EA
:1011F000C31C0929C708031D09294608313C031CE3
:101200000929FA30D4008A112B228A150130D20024
:101210005F292F30D3008A113E2A8A15A1080319AD
:101220001A29FA30D4008A112B228A15C3140530EA
:10123000D2005F294F08013C03183629FF3A031DED
:1012400025294E08D53C031836295208023C0319BB
:101250002D295208043C031D3629FA30D4008A1186
:101260002B228A15C3100330D2005F294F08013C9E
:10127000031C4D29031D40294E084E3C031C4D29DB
:101280005208023C03194D29FA30D4008A112B224E
:101290008A15C3140230D2005F294F08003C03189E
:1012A0005729FF3A031D58294E08B33C0318003054
:1012B000FA30D4008A112B228A150430D2003C3037
:1012C0004C02D3004D08D4000130031C0230D4027C
:1012D0005408D6005308D5004708D8004608D70060
:1012E0002F30D9008A11422A8A152208D1002108FC
:1012F000D0005008C80751080318510FC907C91B6F
:1013000091294908083C03189129FF3A031D8C29AB
:101310004808C43C031891290930C900C430C800EA
:10132000A129C91FA1294908FE3C031CA129031DAD
:101330009D2948080B3C031CA129FE30C9000C3034
:10134000C800D2080319A8295208063C031DB52974
:10135000CB01CA01C3101430C200B430C100D8019F
:10136000D7018A11E0208A15612A520BB829BC29BD
:101370005208053C031DDE29C91BD329C908031DDA
:10138000C5294808003C0318D3294808B43CA000EC
:101390001430A3004908031C490FA3022008C10010
:1013A0002308C200D7291430C200B430C100C314CE
:1013B000D801D7018A11E0208A15612AC91F1E2A87
:1013C0005208023C0319E8295208043C031D182A5C
:1013D000431DED298A111E2E8A154311831606120C
:1013E0008312061683160610831206144908A300FA
:1013F0004808C91F042A4808003CA000A301490866
:10140000031C490FA3022008D3002308D400843012
:101410005307D5005408D600033003180430D6070C
:101420005608D8005508D7008A11E0208A151D2AD1
:10143000D801D7018A11E0208A15562A5208033CA8
:101440000319262A5208043C031D512A431583160A
:10145000061283120612831606108312061049081C
:10146000A3004808C91F3D2A4808003CA000A3016A
:101470004908031C490FA3022008D3002308D40005
:1014800084305307D5005408D600033003180430C5
:10149000D6075608D8005508D7008A11E0208A15CB
:1014A000562AD801D7018A11E0208A15C31C5D2A6B
:1014B0001130C2009430C100612A1430C200B4302F
:0614C000C1009A28630040
:02400E00723FFF
:00000001FF
;PIC16F873A
;CRC=005B  CREATED="29-Jun-13 14:45"
