:10000000000000308A002429FF00030E8301A600AF
:100010007F08A5000A08AD008A01A50E0408A70004
:100020002008A8002108A9002208AA002308AB0084
:100030002408AC00831383128C308400001C222817
:100040000C183F288D308400001C28280D184128EA
:100050008B1E2C280B194328270884002808A00091
:100060002908A1002A08A2002B08A3002C08A4003C
:100070002D088A00260E8300FF0E7F0E09008A11CC
:1000800061288A118B288A114528B80A0319B90AF0
:10009000B908031D4F283808643C03185E28B901CD
:1000A000B801B71C59288316061183120615B7101C
:1000B0005E288316061183120611B7140B118A11DC
:1000C0002C28371C76288316861083128614371046
:1000D00035084C3CC200FF30C3003608031C360F05
:1000E000C30243088F0042088E00882883168610BA
:1000F00083128610371435083307C2003408C30052
:1001000036080318360FC30743088F0042088E00D5
:100110000C108A112C28B71C932883160611831201
:100120000615B71098288316061183120611B71406
:100130000D108A112C282E122E0883168700831288
:1001400007168316061283120616AE112E088316A2
:10015000870083128715AE122E088316870083123C
:1001600087168A115F293A30840000080319C528D0
:100170000630A100A001A00BBB28A10BBA287B3040
:10018000A000A00BC128800BB8288A119A293C082E
:10019000BE003D08BF000330C00083160612831264
:1001A0000616AE112E0883168700831287112E12B1
:1001B0002E088316870083120712C1014108173CDD
:1001C000031C0F294108033C0318EE284108073C93
:1001D0000318F32841080B3C031CF3280310BE0D41
:1001E000BF0DC00D0D290310BE0DBF0DC00D0318AE
:1001F000FB288712FC288716AE122E08831687006C
:100200008312AE112E088316870083128715AE1154
:100210002E088316870083128711C10ADE282E124A
:100220002E08831687008312071683160612831280
:1002300006121030A000A00B1B2900008316061226
:10024000831206168A11A82984011F30830583169C
:1002500086118312861583161F149F141F159F1174
:1002600007309C00FF308312AE00C430AF0009306D
:10027000B0008830B1001330B200FC30B3003B3026
:10028000B400C430B5000930B6003710B710B8015B
:10029000B90183161F149F141F159F1183121F107D
:1002A000940183161F109F101F119F111F1383129B
:1002B0001F179F1783169F1783121F149B289530B3
:1002C000900083160108C039063881008312AE14ED
:1002D0002E088316870083129D0105309D0083162A
:1002E0000D140C1483128B16C0308B0436083002A8
:1002F000031C8529031D80292F0835020318852931
:100300003008B6002F08B500972932083602031CC2
:100310009429031D8F2935083102031894293008C8
:10032000B6002F08B5009729B50A0319B60A0A3096
:10033000BA00B328E8303502BA003608BB000330F3
:10034000031C0430BB023B08BD003A08BC00C728B0
:040350007629A92938
:02400E003A373F
:00000001FF
;PIC16F873A
;CRC=3644  CREATED="04-Jul-12 17:24"
