:1000000000308A00FF2C0000FF00030E8301A600D1
:100010007F08A5000A08AD008A01A50E0408A70004
:100020002008A8002108A9002208AA002308AB0084
:100030002408AC00831383128C308400001C222817
:100040000C183F288D308400001C28280D184128EA
:100050008B1E2C280B194328270884002808A00091
:100060002908A1002A08A2002B08A3002C08A4003C
:100070002D088A00260E8300FF0E7F0E09008A11CC
:1000800077288A11BF288A1168280A108A100A1155
:1000900082074D3461347834203425346C34643430
:1000A000203466346134633474346F3472342034F1
:1000B00025346C346434203461346E346434203438
:1000C000703469346434203425346C34643400343E
:1000D0000130C7074708033C031874280530CB00DC
:1000E000CA010430C700C6010B118A112C2843082D
:1000F000113C031C8628031D81284208613C031C17
:1001000086281130C3006230C20095284308133C92
:1001100003189528FF3A031D91284208B43C0318A0
:1001200095281430C300B430C200AF1CAA2883162F
:10013000861083128614AF1042084C3CF200FF3048
:10014000F3004308031C430FF30273088F00720887
:100150008E00BC288316861083128610AF14FC30E4
:100160004207F2004308F3003B3003183C30F3072A
:1001700073088F0072088E000C108A112C28C70893
:10018000031DC62846080A3C0318D0280108460764
:10019000CA004708CB000318CB0A8101C701C6017A
:1001A0000D108A112C282E122E0883168700831218
:1001B00007168316861283128616AE112E08831632
:1001C000870083128715AE122E08831687008312CC
:1001D00087168A114F2D5808DA005908DB000330C2
:1001E000DC008316861283128616AE112E08831643
:1001F0008700831287112E122E0883168700831220
:100200000712DD015D08173C031C33295D08033C20
:10021000031812295D08073C031817295D080B3CD9
:10022000031C17290310DA0DDB0DDC0D3129031037
:10023000DA0DDB0DDC0D03181F2987122029871624
:10024000AE122E08831687008312AE112E08831675
:10025000870083128715AE112E088316870083123C
:100260008711DD0A02292E122E08831687008312B9
:10027000071683168612831286121030A000A00B78
:100280003F29000083168612831286168A116F2D6D
:100290006E0800340408ED00E71F5629ED176D1EA7
:1002A000ED0AE609E709E60A0319E70A670EF038DE
:1002B000E900E907E23EEA00323EEC0067080F3948
:1002C000EA07EA07EC07E93EEB00EB07EB07660EEF
:1002D0000F39EB07EC07EB0DEC0DEC09EC0D6608A4
:1002E0000F39EC07E90D0730E8000A30EC07EB03A3
:1002F000031C7629EB07EA03031C7A29EA07E903C2
:10030000031C7E29E907E803031C82296830840066
:1003100007306D056D1384036D05031D96296D1A55
:10032000840A6D1A96292030A000B32984076C3006
:10033000040203196D170008A000031DA7296D1BF7
:10034000A7296D1ABB29ED19A7292030B229ED1F65
:10035000AF292D30A00084036D13ED13B329ED15E3
:100360006D123030A007E7010408E6002008EE0017
:10037000482166088400840A6D1F972900340230E2
:100380005E078400840A840A840A80018403800151
:1003900084038001840380015E088400840A800154
:1003A0008403800106305E078400840A59088000B7
:1003B00084035808800008305E078400840A5B08C4
:1003C000800084035A0880000A305E078400840A93
:1003D0005D08800084035C0880000C305E07DF004D
:1003E00006305E078400840A0008E10084030008E8
:1003F000E00001306007A1006108A3000318A30A10
:100400002108E2002308E3007F30E500FF30E4002C
:100410006308E7006208E600A101A201A001A301B0
:100420006708031D162A66080319302A1030E800F1
:100430000310E40DE50DA00DA30D67082302031DB5
:10044000232A66082002031C2C2A6608A002031C2B
:10045000A3036708A3020314A10DA20DE80B182A39
:100460005F088400840A2208800084032108800039
:1004700008305E078400840A0008E0008403000856
:10048000DF000C305E078400840A0008E200840369
:100490000008E100E30163084520E30AA000EE0044
:1004A000482104306302031D4B2A103084007F3042
:1004B000E700FF30E6004A210730E40064084520E9
:1004C000E40AA000EE0048210F306402031D5E2AFA
:1004D000103084006008E7005F08E6004A2112300F
:1004E000E50065084520E50AA000EE0048211B3024
:1004F0006502031D712A103084006208E70061085C
:10050000E6004A210E305E07DF0008305E078400F7
:10051000840A0008E10084030008E000013060075D
:10052000A1006108A3000318A30A2108E200230820
:10053000E3000408E4003F30E800FF30E700E60095
:10054000E500EC01EB016308EA006208E900A001A4
:10055000A101A201A301ED01EE01EF01F0016C0880
:100560006B046A0469040319E52A2030F1000310C2
:10057000E50DE60DE70DE80DED0DEE0DEF0DF00DBF
:100580006C087002031DCE2A6B086F02031DCE2A71
:100590006A086E02031DCE2A69086D02031CDF2A59
:1005A0006908ED026A08031C6A0FEE026B08031C5F
:1005B0006B0FEF026C08031C6C0FF0020314A00D0C
:1005C000A10DA20DA30DF10BB72A6D3084006408B4
:1005D00084005F08840020088000840A21088000CD
:1005E000840A22088000840A230880008A11822D50
:1005F000593084000008031949290630A100A001E0
:10060000A00B002BA10BFF2A7B30A000A00B062B18
:10061000800BFD2A8A11872D8E30A0005B08A10077
:100620005A08A200A301A108031D202B2208A10043
:10063000A2010830A002A108031D202BA001282B35
:100640000310A11B272BA20DA10DA003202BA1138A
:100650008A11CB2D5A0803199A2BE2005E08031960
:100660009A2BE20703183B2B7F30E202031C9A2BE4
:1006700003199A2B3F2B8130E20703189A2B62084B
:10068000A000A101A201A3015B08E600E6175C0837
:10069000E5005D08E4001830E200E301641C682B0B
:1006A0006108A307031C5A2BA20A031D5A2BA10A97
:1006B0000319E3176008A207031C612BA10A0319A1
:1006C000E3175F08DC00DC175C08A1070318E317D9
:1006D000E30DA10CA20CA30CE60CE50CE40C03103A
:1006E000E20B4D2B0130A00703189A2BA11B7F2B87
:1006F000E60DA30DA20DA10DA00303199A2BE61F71
:10070000902BA30A031D902BA20A031D902BA10A74
:10071000031D902BA10CA20CA30CA00A03199A2B69
:100720005B08E3005F08E306E31F982BA1179E2BED
:10073000A1139E2BA001A101A201A3018A11DA2D10
:1007400080308318DF06E401E5015B08E3005F0801
:10075000E3065A0803198D2CE200A0005E08031975
:10076000962CE2020319332C031CF22B5F08E800DD
:10077000E8176008E7006108E600E5010310E80CEF
:10078000E70CE60CE50CE20BBD2BE31FCA2B64144F
:10079000AA2C6410621064165D308400BF2C6412B1
:1007A000E31BDC2B621CE72BE80CE70CE60CE50CEA
:1007B000A00A0319A52CE72BE81BEA2B0310E50D73
:1007C000E60DE70DE80DA0030319A52CDC2B64173B
:1007D000522C64135B08E300E31FF02BE8179E2CF8
:1007E000E8139E2C5E08E200A0005A08E2025B08B3
:1007F000E800E8175C08E7005D08E600E501031083
:10080000E80CE70CE60CE50CE20BFE2BE31F0B2CCF
:10081000E414AA2CE4106210E41661308400BF2CAA
:10082000E412E31B1D2C621C282CE80CE70CE60CE0
:10083000E50CA00A0319A52C282CE81B2B2C03106F
:10084000E50DE60DE70DE80DA0030319A52C1D2C01
:10085000E417522CE4135F08E300E31F312CE81780
:100860009E2CE8139E2C5F08E800E8176008E7005C
:100870006108E600E31F402CE8136415AA2C6411FC
:10088000E50162105D308400BF2CE31B682C5B081F
:10089000E300621C522CE80CE70CE60CE50CA00A05
:1008A0000319A52CE51F632CE60A031D632CE70A38
:1008B000031D632CE80A031D632CE80CE70CE60C0F
:1008C000A00A0319A52C641BE92BE41B2A2C872CF6
:1008D0008030E806E81F702CAA2C5F08E3007D2C0E
:1008E0005B08E300E808031D7D2CE708031D7D2C51
:1008F000E608031D7D2CA0019E2CE81B872C03100D
:10090000E50DE60DE70DE80DA00B7D2CA52CE31FF2
:100910008B2CE8179E2CE8139E2C5E08A0005F0825
:10092000E8006008E7006108E6009E2C5A08A00075
:100930005B08E8005C08E7005D08E6006808A100C5
:100940006708A2006608A300DD2CA001A101A20196
:10095000A301DD2CE501E609E709E809E509E50A57
:10096000031DB82CE60A031DB82CE70A0319E80A90
:100970006418C92BE4180A2C64193F2C6D2C00084C
:10098000E607031CC92CE70A031DC92CE80A031952
:10099000621484030008E707031CD12CE80A03193A
:1009A000621484030008801F803AE8070318621469
:1009B000641ACF2BE41A102C452C8A11EB2D8E30A3
:1009C000A0005A08A0025B08A2005C08A100A217C0
:1009D000A0080319F62C0310A208031DF22CA1088D
:1009E0000319F62CA20CA10CA00BEB2CDB1FFD2C89
:1009F000A109A209A10A0319A20A8A11F42D8401EE
:100A00001F308305001483161F149F141F159F1198
:100A100007309C00FF308312AE002F10B430C200AC
:100A20001430C300AF102F11AF11C401C501C601AE
:100A3000C701C801C901CA01CB018430CC00033011
:100A4000CD00CE01CF01D001D101D201D3012F12AF
:100A5000D401D501D601D70183161F149F141F1589
:100A60009F1183121F10940183160108C0390038AA
:100A700081006400831290010030A10092000030D8
:100A8000831692001F109F101F119F111F138312B6
:100A90001F179F1783169F1783121F14D328953093
:100AA000900083160108C039063881008312AE1405
:100AB0002E088316870083129D0105309D00831642
:100AC0000D1483128B1683160C14C03083128B0402
:100AD0008316061083120610D901D801EB2883165D
:100AE0000611831206158316061283120612D90107
:100AF0008030D800DB01DA01DD016C30DC00303001
:100B0000DE00BF290C30D800FA30D900F82AD80B03
:100B1000842D0830A1001F08C73921049F0021300F
:100B2000A000A00B912D1F151F19942D83161E08D0
:100B30008312D2001E08D3000030A1001F08C7395D
:100B400021049F002130A000A00BA42D1F151F1908
:100B5000A72D83161E088312D0001E08D10051084D
:100B6000013C031CBD2D031DB92D50083B3C031C4B
:100B7000BD2D0130D1003C30D0003C305002D800B7
:100B80005108D9000130031C0230D9025908DB009A
:100B90005808DA000C2B2308DD002208DC002108AD
:100BA000DB002008DA00E101E0014830DF007F309F
:100BB000DE002A2B8314DD01A030DC002530DB00B1
:100BC0008B30DA002308E1002208E0002108DF0072
:100BD0002008DE00A02B2308DD002208DC0021080D
:100BE000DB002008DA00DF2C2208C3002108C20045
:0C0BF0004B08D7004A08D600892D63008E
:02400E00723FFF
:00000001FF
;PIC16F873A
;CRC=BCC8  CREATED="20-Apr-13 12:56"
