:10000000000000308A00B929FF00030E8301A6001A
:100010007F08A5000A08AD008A01A50E0408A70004
:100020002008A8002108A9002208AA002308AB0084
:100030002408AC00831383128C308400001C222817
:100040000C183F288D308400001C28280D184128EA
:100050008B1E2C280B194328270884002808A00091
:100060002908A1002A08A2002B08A3002C08A4003C
:100070002D088A00260E8300FF0E7F0E09008A11CC
:1000800067288A11AF288A1159280A108A100A1184
:10009000820753346534723476346F3420345634E6
:1000A00061346C3475346534203425346C346434F4
:1000B00000340130C5074508033C03186428C70114
:1000C000C6010430C500C4010B118A112C28420856
:1000D000093C031C7628031D71284108C33C031CFE
:1000E00076280930C200C430C10085284208103C7F
:1000F00003188528FF3A031D81284108F83C03189E
:1001000085281130C200F830C100431C9A2883169C
:10011000861083128614431041084C3CE100FF30E6
:10012000E2004208031C420FE20262088F006108ED
:100130008E00AC2883168610831286104314FC3080
:100140004107E1004208E2003B3003183C30E2077F
:1001500062088F0061088E000C108A112C28C508D7
:10016000031DB62844080A3C0318C928010844079F
:10017000A1004508A3000318A30A2108003CC600FB
:100180000530C7002308031C230FC7028101C501E6
:10019000C4010D108A112C282E122E0883168700F8
:1001A000831207168316861283128616AE112E0846
:1001B0008316870083128715AE122E0883168700D8
:1001C000831287168A11032A8316861183128611D9
:1001D0000830A100EB280000A117FC28A113E00CB7
:1001E00003188615031C86112117FC282113A10B67
:1001F000EF28FA28000086150230A0008401840B45
:10020000FF28A00BFE28AD308400840B05290829A7
:100210000000A11BEE28211BF6280034D301D401D5
:10022000D501D6010930C200C430C100D70157083A
:100230004520D70AA0002008E000E4200C30570237
:10024000031D1729103084004208D9004108D80046
:100250000408DF00D91F3429DF175F1EDF0AD80921
:10026000D909D80A0319D90A590EF038DB00DB077F
:10027000E23EDC00323EDE0059080F39DC07DC07C5
:10028000DE07E93EDD00DD07DD07580E0F39DD072B
:10029000DE07DD0DDE0DDE09DE0D58080F39DE0745
:1002A000DB0D0730DA000A30DE07DD03031C5429BA
:1002B000DD07DC03031C5829DC07DB03031C5C2976
:1002C000DB07DA03031C60295A30840007305F051E
:1002D0005F1384035F05031D74295F1A840A5F1A84
:1002E00074292030A000912984075E30040203198C
:1002F0005F170008A000031D85295F1B85295F1A71
:100300009929DF19852920309029DF1F8D292D306B
:10031000A00084035F13DF139129DF155F123030D3
:10032000A007D9010408D8002008E000E4205808FC
:100330008400840A5F1F75290A304107D7004208EC
:10034000D8000318D80A5808103C0318B229FF3AFD
:10035000031DAE295708F83C0318B2290930C20022
:10036000C430C1000A30C1070318C20A16298A1115
:100370001D2A84011F30830583168611831286157A
:1003800083161F149F141F159F1107309C00FF3008
:100390008312AE00F830C1001130C2004310C40116
:1003A000C501C601C701C801C901CA01CB01CC0101
:1003B000CD01CE01CF01C3104311C311D001D10132
:1003C00083161F149F141F159F1183121F10940171
:1003D00083160108C039003881006400831290013F
:1003E0000030A10092000030831692001F109F1071
:1003F0001F119F111F1383121F179F1783169F171B
:1004000083121F14CC289530900083160108C03940
:10041000063881008312AE142E08831687008312DB
:100420009D0105309D0083160D1483128B168316D3
:0E0430000C14C03083128B040E291C2A1E2AC5
:02400E003A373F
:00000001FF
;PIC16F873A
;CRC=1013  CREATED="08-Jul-04 00:21"
