:10000000000000308A00772BFF00030E8301A6005A
:100010007F08A5000A08AD008A01A50E0408A70004
:100020002008A8002108A9002208AA002308AB0084
:100030002408AC00831383128C308400001C222817
:100040000C183F288D308400001C28280D184128EA
:100050008B1E2C280B194328270884002808A00091
:100060002908A1002A08A2002B08A3002C08A4003C
:100070002D088A00260E8300FF0E7F0E09008A11CC
:1000800050288A1197288A1145283A0F48284A286B
:10009000BA0A4D28BE01FF30BD000B118A112C2871
:1000A00036083002031C5F28031D5A282F0835022A
:1000B00003185F283008B6002F08B5006D283208F5
:1000C0003602031C6D28031D692835083102031808
:1000D0006D283008B6002F08B500371C822883161B
:1000E000861083128614371035084C3CDF00FF3031
:1000F000E0003608031C360FE00260088F005F083E
:100100008E009428831686108312861037143508C3
:100110003307DF003408E00036080318360FE00725
:1001200060088F005F088E000C108A112C283A0896
:10013000143C03189F28BE013A08BD00BA010D10F7
:100140008A112C282E122E08831687008312071678
:100150008316061283120616AE112E088316870028
:1001600083128715AE122E08831687008312871616
:100170008A11C72B8E30A0005008A1004F08A200A2
:10018000A301A108031DCE282208A100A201083066
:10019000A002A108031DCE28A001D6280310A11B90
:1001A000D528A20DA10DA003CE28A1130034470825
:1001B00003199C29D3004B0803199C29D302031C63
:1001C000E6287F30D30703189C29EC288130D3021E
:1001D000031C9C2903199C295308A000A101A2011A
:1001E000A301D2014808D100D1174908D0004A081C
:1001F000CF001930D3004E08CF0203180F29013069
:10020000D00203180F29D10203180F29D2020318B4
:100210000F29D20AD10AD00A4E08CF0741294D082A
:10022000D00203182A290130D10203182A29D20248
:1002300003182A29D20AD10A4D08D0074E08CF0741
:10024000031C4129D00A031D4129D10A031D41295C
:10025000D20A41294C088038D102031840290130C4
:10026000D20203184029D20A4C088038D1074D0821
:10027000D007031C1E29D10A031D1E29D20A1E29DC
:100280002314D30B44294F290310CF0DD00DD10DCA
:10029000D20D0310A30DA20DA10DD40DFB28541CEB
:1002A00057290310A10CA20CA30CD40C5A29A003AB
:1002B00003199C29D41B83290310CF0DD00DD10D18
:1002C000D20D4E08CF0203186F290130D002031857
:1002D0006F29D10203186F29D202031C92294D08FD
:1002E000D00203187A290130D10203187A29D202E8
:1002F000031C92294C088038D1020318832901304D
:10030000D202031C9229A30A031D9229A20A031DEB
:100310009229A10A031D9229A00A03199C29A10C64
:10032000A20CA30C4808D3004C08D306D31F9A296B
:10033000A117A029A113A029A001A101A201A30135
:100340008A11192C4B080319122AD3004F080319DC
:10035000122AD3070318B3297F30D302031C122AB1
:100360000319122AB7298130D3070318122A530818
:10037000A000A101A201A3014C08D700D7174D0886
:10038000D6004E08D5001830D300D401551CE02902
:100390005208A307031CD229A20A031DD229A10ACD
:1003A0000319D4175108A207031CD929A10A03195C
:1003B000D4175008CD00CD174D08A1070318D41746
:1003C000D40DA10CA20CA30CD70CD60CD50C031089
:1003D000D30BC5290130A0070318122AA11BF72946
:1003E000D70DA30DA20DA10DA0030319122AD71F2B
:1003F000082AA30A031D082AA20A031D082AA10A23
:10040000031D082AA10CA20CA30CA00A0319122A8E
:100410004C08D4005008D406D41F102AA117162A5D
:10042000A113162AA001A101A201A3018A11302C57
:1004300080308318D406D901DA015008D800540856
:10044000D8064F080319052BD700A000530803193D
:100450000E2BD7020319AB2A031C6A2A5408DD00AD
:10046000DD175508DC005608DB00DA010310DD0C4F
:10047000DC0CDB0CDA0CD70B352AD81F422A5914B6
:10048000222B59105710591652308400372B59120D
:10049000D81B542A571C5F2ADD0CDC0CDB0CDA0C51
:1004A000A00A03191D2B5F2ADD1B622A0310DA0D37
:1004B000DB0DDC0DDD0DA00303191D2B542A59178C
:1004C000CA2A59135008D800D81F682ADD17162BDE
:1004D000DD13162B5308D700A0004F08D702500891
:1004E000DD00DD175108DC005208DB00DA010310E3
:1004F000DD0CDC0CDB0CDA0CD70B762AD81F832A38
:10050000D914222BD9105710D91656308400372B06
:10051000D912D81B952A571CA02ADD0CDC0CDB0C49
:10052000DA0CA00A03191D2BA02ADD1BA32A031035
:10053000DA0DDB0DDC0DDD0DA00303191D2B952A53
:10054000D917CA2AD9135408D800D81FA92ADD17E9
:10055000162BDD13162B5408DD00DD175508DC00C3
:100560005608DB00D81FB82ADD135915222B591164
:10057000DA01571052308400372BD81BE02A50087C
:10058000D800571CCA2ADD0CDC0CDB0CDA0CA00AE4
:1005900003191D2BDA1FDB2ADB0A031DDB2ADC0A09
:1005A000031DDB2ADD0A031DDB2ADD0CDC0CDB0C62
:1005B000A00A03191D2B591B612AD91BA22AFF2A45
:1005C0008030DD06DD1FE82A222B5408D800F52AEA
:1005D0005008D800DD08031DF52ADC08031DF52AA4
:1005E000DB08031DF52AA001162BDD1BFF2A0310D3
:1005F000DA0DDB0DDC0DDD0DA00BF52A1D2BD81F50
:10060000032BDD17162BDD13162B5308A0005408FF
:10061000DD005508DC005608DB00162B4F08A00053
:100620005008DD005108DC005208DB005D08A10025
:100630005C08A2005B08A300552BA001A101A20148
:10064000A301552BDA01DB09DC09DD09DA09DA0A35
:10065000031D302BDB0A031D302BDC0A0319DD0AD6
:100660005918412AD918822A5919B72AE52A0008A7
:10067000DB07031C412BDC0A031D412BDD0A031998
:10068000571484030008DC07031C492BDD0A0319F7
:10069000571484030008801F803ADD07031857149D
:1006A000591A472AD91A882ABD2A8A114F2C8E3006
:1006B000A0004F08A0025008A2005108A100A217F4
:1006C000A00803196E2B0310A208031D6A2BA108B2
:1006D00003196E2BA20CA10CA00B632BD01F752B42
:1006E000A109A209A10A0319A20A8A11582C84019E
:1006F0001F308305831686118312861583161F14F7
:100700009F141F159F1107309C00FF308312AE000D
:10071000C430AF000930B0008830B1001330B200EF
:10072000FC30B3003B30B400C430B5000930B60033
:100730003710B7103711B801B901BA01BB01BC01BC
:10074000BD01BE01BF01C001C101C201C301C4019D
:10075000C501C601B71183161F149F141F159F11E1
:1007600083121F10940190010030A100920000300C
:10077000831692001F109F101F119F111F138312C9
:100780001F179F1783169F1783121F14A2289530D7
:10079000900083160108C039063881008312AE1418
:1007A0002E088316870083129D0105309D00831655
:1007B0000D1483128B1683160C14C03083128B0415
:1007C0000830A1001F08C73921049F002130A00074
:1007D000A00BE82B1F151F19EB2B83161E08831285
:1007E000C5001E08C6000030A1001F08C73921043B
:1007F0009F002130A000A00BFB2B1F151F19FE2B03
:1008000083161E088312C3001E08C4003E08D000D1
:100810003D08CF00BA202308CA002208C9002108D9
:10082000C8002008C700CE01CD01CC018730CB0025
:10083000D7282008C7002108C8002208C9002308BB
:10084000CA00CE002208CD002108CC002008CB0031
:10085000D2014030D1001C30D0008A30CF00A22914
:100860002008CB002108CC002208CD002308CE00B0
:100870003008D0002F08CF00BA2083102308D20000
:100880002208D1002108D0002008CF004E08D60051
:100890004D08D5004C08D4004B08D300182A230873
:1008A000D2002208D1002108D0002008CF00572B09
:0C08B0002208B6002108B500E02B5D2CEA
:02400E003A373F
:00000001FF
;PIC16F873A
;CRC=A43A  CREATED="20-Oct-12 13:58"
