:10000000000000308A00C82BFF00030E8301A60009
:100010007F08A5000A08AD008A01A50E0408A70004
:100020002008A8002108A9002208AA002308AB0084
:100030002408AC00831383128C308400001C222817
:100040000C183F288D308400001C28280D184128EA
:100050008B1E2C280B194328270884002808A00091
:100060002908A1002A08A2002B08A3002C08A4003C
:100070002D088A00260E8300FF0E7F0E09008A11CC
:1000800051288A1154288A114528460F48284A28A1
:10009000C60A4E28CA01FF30C900C6010B118A11D9
:1000A0002C280C108A112C284608143C03185C28B4
:1000B000CA014608C900C6010D108A112C282E124B
:1000C0002E088316870083120716831606128312E2
:1000D0000616AE112E088316870083128715AE12FE
:1000E0002E0883168700831287168A11152C530851
:1000F000D5005408D6000330D700831606128312A9
:100100000616AE112E0883168700831287112E1251
:100110002E088316870083120712D8015808173C4F
:10012000031CBF285808033C03189E285808073CA6
:100130000318A32858080B3C031CA3280310D50D53
:10014000D60DD70DBD280310D50DD60DD70D03182C
:10015000AB288712AC288716AE122E0883168700AC
:100160008312AE112E088316870083128715AE11F5
:100170002E088316870083128711D80A8E282E1224
:100180002E08831687008312071683160612831221
:1001900006121030A000A00BCB2800008316061218
:1001A000831206160034023059078400840A840A38
:1001B000840A800184038001840380018403800118
:1001C00059088400840A800184038001063059079D
:1001D0008400840A54088000840353088000083097
:1001E00059078400840A560880008403550880005B
:1001F0000A3059078400840A58088000840357088D
:1002000080000C305907DA00063059078400840A50
:100210000008DC0084030008DB0001305B07A1005C
:100220005C08A3000318A30A2108DD002308DE00F0
:100230007F30E000FF30DF005E08E2005D08E10093
:10024000A101A201A001A3016208031D2A296108DE
:10025000031944291030E3000310DF0DE00DA00D59
:10026000A30D62082302031D372961082002031C25
:1002700040296108A002031CA3036208A30203141F
:10028000A10DA20DE30B2C295A088400840A220830
:1002900080008403210880000E305907DA000830FE
:1002A00059078400840A0008DC0084030008DB008E
:1002B00001305B07A1005C08A3000318A30A210812
:1002C000DD002308DE000408DF003F30E300FF30DC
:1002D000E200E100E000E701E6015E08E5005D08FC
:1002E000E400A001A101A201A301E801E901EA01E2
:1002F000EB0167086604650464040319AF29203024
:10030000EC000310E00DE10DE20DE30DE80DE90D49
:10031000EA0DEB0D67086B02031D982966086A0257
:10032000031D982965086902031D9829640868025D
:10033000031CA9296408E8026508031C650FE9028B
:100340006608031C660FEA026708031C670FEB02CE
:100350000314A00DA10DA20DA30DEC0B8129683093
:1003600084005F0884005A08840020088000840A02
:1003700021088000840A22088000840A2308800063
:100380008A11472C5430840000080319D429063000
:10039000A100A001A00BCA29A10BC9297B30A00094
:1003A000A00BD029800BC72900348E30A00056083E
:1003B000A1005508A200A301A108031DE9292208F4
:1003C000A100A2010830A002A108031DE929A00193
:1003D000F1290310A11BF029A20DA10DA003E92909
:1003E000A1138A11A42C55080319632ADD005908AA
:1003F0000319632ADD070318042A7F30DD02031C7A
:10040000632A0319632A082A8130DD070318632A47
:100410005D08A000A101A201A3015608E100E117B7
:100420005708E0005808DF001830DD00DE015F1CCF
:10043000312A5C08A307031C232AA20A031D232ACE
:10044000A10A0319DE175B08A207031C2A2AA10AC6
:100450000319DE175A08D700D7175708A107031842
:10046000DE17DE0DA10CA20CA30CE10CE00CDF0CDE
:100470000310DD0B162A0130A0070318632AA11B05
:10048000482AE10DA30DA20DA10DA0030319632AB3
:10049000E11F592AA30A031D592AA20A031D592A3A
:1004A000A10A031D592AA10CA20CA30CA00A03192E
:1004B000632A5608DE005A08DE06DE1F612AA117ED
:1004C000672AA113672AA001A101A201A3018A1131
:1004D000B52C80308318DA06DF01E0015608DE0013
:1004E0005A08DE0655080319562BDD00A0005908EE
:1004F00003195F2BDD020319FC2A031CBB2A5A08CF
:10050000E300E3175B08E2005C08E100E001031090
:10051000E30CE20CE10CE00CDD0B862ADE1F932AD3
:100520005F14732B5F105D105F1658308400882BAA
:100530005F12DE1BA52A5D1CB02AE30CE20CE10C65
:10054000E00CA00A03196E2BB02AE31BB32A031098
:10055000E00DE10DE20DE30DA00303196E2BA52ABA
:100560005F171B2B5F135608DE00DE1FB92AE31747
:10057000672BE313672B5908DD00A0005508DD0247
:100580005608E300E3175708E2005808E100E001CD
:100590000310E30CE20CE10CE00CDD0BC72ADE1FBC
:1005A000D42ADF14732BDF105D10DF165C3084005B
:1005B000882BDF12DE1BE62A5D1CF12AE30CE20C1D
:1005C000E10CE00CA00A03196E2BF12AE31BF42ABC
:1005D0000310E00DE10DE20DE30DA00303196E2BF6
:1005E000E62ADF171B2BDF135A08DE00DE1FFA2A6C
:1005F000E317672BE313672B5A08E300E3175B0845
:10060000E2005C08E100DE1F092BE3135F15732B8A
:100610005F11E0015D1058308400882BDE1B312B08
:100620005608DE005D1C1B2BE30CE20CE10CE00C19
:10063000A00A03196E2BE01F2C2BE10A031D2C2BA3
:10064000E20A031D2C2BE30A031D2C2BE30CE20C06
:10065000E10CA00A03196E2B5F1BB22ADF1BF32AE1
:10066000502B8030E306E31F392B732B5A08DE0032
:10067000462B5608DE00E308031D462BE208031D47
:10068000462BE108031D462BA001672BE31B502BD3
:100690000310E00DE10DE20DE30DA00B462B6E2BD8
:1006A000DE1F542BE317672BE313672B5908A000B9
:1006B0005A08E3005B08E2005C08E100672B55087C
:1006C000A0005608E3005708E2005808E10063085C
:1006D000A1006208A2006108A300A62BA001A1014D
:1006E000A201A301A62BE001E109E209E309E00967
:1006F000E00A031D812BE10A031D812BE20A031985
:10070000E30A5F18922ADF18D32A5F19082B362BC9
:100710000008E107031C922BE20A031D922BE30A57
:1007200003195D1484030008E207031C9A2BE30AF3
:1007300003195D1484030008801F803AE30703183F
:100740005D145F1A982ADF1AD92A0E2B8A11C52C3C
:100750008E30A0005508A0025608A2005708A1003C
:10076000A217A0080319BF2B0310A208031DBB2B5F
:10077000A1080319BF2BA20CA10CA00BB42BD61FF0
:10078000C62BA109A209A10A0319A20A8A11CE2C1B
:1007900084011F3083058316861183128615831604
:1007A0001F149F141F159F1107309C00FF308312E8
:1007B000AE002F10C030C2001230C300AF102F1196
:1007C000AF11C401C501C601C701C801FF30C9008E
:1007D000CA01CB01CC01CD01CE01CF01D001D101A5
:1007E000D2012F1283161F149F141F159F118312FD
:1007F0001F10940183160108C0390038810064007D
:10080000831290010030A100920000308316920004
:100810001F109F101F119F111F1383121F179F1767
:1008200083169F1783121F145F289530900083163C
:100830000108C039063881008312AE142E088316D1
:10084000870083129D0105309D0083160D148312CD
:100850008B1683160C14C03083128B04831606107B
:1008600083120610D401D301772083160611831258
:1008700006158316061283120616D4018030D300A3
:10088000D601D500D801D7013030D900D3280430A3
:10089000D300FA30D400C221D30B492C0330D4004A
:1008A000E830D30077202830D300FA30D400C221BA
:1008B000D30B552C831606128312061283160610CC
:1008C000831206140830A1001F08C73921049F00B5
:1008D0002130A000A00B6A2C1F151F196D2C831648
:1008E0001E088312D1001E08D2000030A1001F088C
:1008F000C73921049F002130A000A00B7D2C1F15BB
:100900001F19802C83161E088312CF001E08D000EA
:100910005008013C031C962C031D922C4F08313CBF
:10092000031C962C0130D0003230CF0032304F0201
:10093000D3005008D4000130031C0230D402540804
:10094000D6005308D500D5292308D8002208D7009F
:100950002108D6002008D5007430DC004830DB00C8
:100960004D30DA007F30D900F3298314D801D70144
:100970001630D6008B30D5002308DC002208DB00BF
:100980002108DA002008D900692A2308D8002208A3
:10099000D7002108D6002008D500A82B2208C300C4
:1009A0002108C2000B30D400B830D3007720622C6D
:0209B000D82C41
:02400E003A373F
:00000001FF
;PIC16F873A
;CRC=5266  CREATED="22-Dec-12 14:26"
