:10000000000000308A00762BFF00030E8301A6005B
:100010007F08A5000A08AD008A01A50E0408A70004
:100020002008A8002108A9002208AA002308AB0084
:100030002408AC00831383128C308400001C222817
:100040000C183F288D308400001C28280D184128EA
:100050008B1E2C280B194328270884002808A00091
:100060002908A1002A08A2002B08A3002C08A4003C
:100070002D088A00260E8300FF0E7F0E09008A11CC
:1000800049288A1190288A114528BA0A0B118A1129
:100090002C2836083002031C5828031D53282F082B
:1000A0003502031858283008B6002F08B500662816
:1000B00032083602031C6628031D62283508310207
:1000C000031866283008B6002F08B500371C7B28B7
:1000D0008316861083128614371035084C3CDF00D7
:1000E000FF30E0003608031C360FE00260088F0086
:1000F0005F088E008D2883168610831286103714B1
:1001000035083307DF003408E00036080318360FDF
:10011000E00760088F005F088E000C108A112C2801
:100120000D108A112C282E122E0883168700831298
:1001300007168316061283120616AE112E088316B2
:10014000870083128715AE122E088316870083124C
:1001500087168A11C52B0330C702031CB828473005
:10016000840000080319B828B628B628800BB528E3
:1001700000348E30A0005008A1004F08A200A30157
:10018000A108031DCD282208A100A2010830A00269
:10019000A108031DCD28A001D5280310A11BD42838
:1001A000A20DA10DA003CD28A11300344708031907
:1001B0009B29D3004B0803199B29D302031CE52874
:1001C0007F30D30703189B29EB288130D302031C0F
:1001D0009B2903199B295308A000A101A201A30197
:1001E000D2014808D100D1174908D0004A08CF00F1
:1001F0001930D3004E08CF0203180E290130D00267
:1002000003180E29D10203180E29D20203180E2951
:10021000D20AD10AD00A4E08CF0740294D08D00291
:10022000031829290130D10203182929D202031801
:100230002929D20AD10A4D08D0074E08CF07031C3E
:100240004029D00A031D4029D10A031D4029D20AA2
:1002500040294C088038D10203183F290130D202CE
:1002600003183F29D20A4C088038D1074D08D0071F
:10027000031C1D29D10A031D1D29D20A1D2923147F
:10028000D30B43294E290310CF0DD00DD10DD20D24
:100290000310A30DA20DA10DD40DFA28541C56294C
:1002A0000310A10CA20CA30CD40C5929A003031910
:1002B0009B29D41B82290310CF0DD00DD10DD20D57
:1002C0004E08CF0203186E290130D00203186E29A0
:1002D000D10203186E29D202031C91294D08D002C5
:1002E000031879290130D10203187929D202031C9D
:1002F00091294C088038D102031882290130D2029A
:10030000031C9129A30A031D9129A20A031D912907
:10031000A10A031D9129A00A03199B29A10CA20C73
:10032000A30C4808D3004C08D306D31F9929A11762
:100330009F29A1139F29A001A101A201A3018A1154
:10034000122C4B080319112AD3004F080319112A44
:10035000D3070318B2297F30D302031C112A0319D3
:10036000112AB6298130D3070318112A5308A00097
:10037000A101A201A3014C08D700D7174D08D60050
:100380004E08D5001830D300D401551CDF2952087F
:10039000A307031CD129A20A031DD129A10A03190D
:1003A000D4175108A207031CD829A10A0319D4178E
:1003B0005008CD00CD174D08A1070318D417D40D50
:1003C000A10CA20CA30CD70CD60CD50C0310D30B8C
:1003D000C4290130A0070318112AA11BF629D70D43
:1003E000A30DA20DA10DA0030319112AD71F072ADF
:1003F000A30A031D072AA20A031D072AA10A031D37
:10040000072AA10CA20CA30CA00A0319112A4C085C
:10041000D4005008D406D41F0F2AA117152AA113FF
:10042000152AA001A101A201A3018A11292C803063
:100430008318D406D901DA015008D8005408D80628
:100440004F080319042BD700A000530803190D2BE4
:10045000D7020319AA2A031C692A5408DD00DD17F4
:100460005508DC005608DB00DA010310DD0CDC0C5B
:10047000DB0CDA0CD70B342AD81F412A5914212B54
:1004800059105710591652308400362B5912D81B68
:10049000532A571C5E2ADD0CDC0CDB0CDA0CA00A9C
:1004A00003191C2B5E2ADD1B612A0310DA0DDB0DFC
:1004B000DC0DDD0DA00303191C2B532A5917C92A83
:1004C00059135008D800D81F672ADD17152BDD13E4
:1004D000152B5308D700A0004F08D7025008DD00A5
:1004E000DD175108DC005208DB00DA010310DD0CD7
:1004F000DC0CDB0CDA0CD70B752AD81F822AD91436
:10050000212BD9105710D91656308400362BD9120A
:10051000D81B942A571C9F2ADD0CDC0CDB0CDA0C50
:10052000A00A03191C2B9F2ADD1BA22A0310DA0D37
:10053000DB0DDC0DDD0DA00303191C2B942AD9174C
:10054000C92AD9135408D800D81FA82ADD17152B9B
:10055000DD13152B5408DD00DD175508DC005608A7
:10056000DB00D81FB72ADD135915212B5911DA01E9
:10057000571052308400362BD81BDF2A5008D80081
:10058000571CC92ADD0CDC0CDB0CDA0CA00A0319A1
:100590001C2BDA1FDA2ADB0A031DDA2ADC0A031D08
:1005A000DA2ADD0A031DDA2ADD0CDC0CDB0CA00ADA
:1005B00003191C2B591B602AD91BA12AFE2A803043
:1005C000DD06DD1FE72A212B5408D800F42A500845
:1005D000D800DD08031DF42ADC08031DF42ADB081B
:1005E000031DF42AA001152BDD1BFE2A0310DA0DD2
:1005F000DB0DDC0DDD0DA00BF42A1C2BD81F022B0C
:10060000DD17152BDD13152B5308A0005408DD0052
:100610005508DC005608DB00152B4F08A0005008D9
:10062000DD005108DC005208DB005D08A1005C0819
:10063000A2005B08A300542BA001A101A201A30109
:10064000542BDA01DB09DC09DD09DA09DA0A031DBA
:100650002F2BDB0A031D2F2BDC0A0319DD0A591887
:10066000402AD918812A5919B62AE42A0008DB073A
:10067000031C402BDC0A031D402BDD0A0319571411
:1006800084030008DC07031C482BDD0A03195714F8
:1006900084030008801F803ADD0703185714591A95
:1006A000462AD91A872ABC2A8A11482C8E30A000E3
:1006B0004F08A0025008A2005108A100A217A008EC
:1006C00003196D2B0310A208031D692BA108031940
:1006D0006D2BA20CA10CA00B622BD01F742BA109B7
:1006E000A209A10A0319A20A8A11512C84011F3000
:1006F0008305831686118312861583161F149F1493
:100700001F159F1107309C00FF308312AE00C430CC
:10071000AF000930B0008830B1001330B200FC30B7
:10072000B3003B30B400C430B5000930B600371018
:10073000B710B801B901BA01BB01BC01BD01BE01CE
:10074000BF01C001C101C201C301C401C501C6018D
:10075000371183161F149F141F159F1183121F102A
:10076000940190010030A1009200003083169200A5
:100770001F109F101F119F111F1383121F179F1708
:1007800083169F1783121F149328953090008316A9
:100790000108C039063881008312AE142E08831672
:1007A000870083129D0105309D0083160D140C14E3
:1007B000C03083128B040830A1001F08C739210400
:1007C0009F00C830C700AB201F151F19E52B8316EB
:1007D0001E088312C5001E08C6000030A1001F08B5
:1007E000C73921049F00C830C700AB201F151F194F
:1007F000F72B83161E088312C3001E08C40044088A
:10080000D0004308CF00B9202308CA002208C9003D
:100810002108C8002008C700CE01CD01CC018930D5
:10082000CB00D6282008C7002108C8002208C9002C
:100830002308CA00CE002208CD002108CC002008E1
:10084000CB00D2014030D1001C30D0008A30CF0024
:10085000A1292008CB002108CC002208CD002308C4
:10086000CE003008D0002F08CF00B9208310230815
:10087000D2002208D1002108D0002008CF004E0865
:10088000D6004D08D5004C08D4004B08D300172AD9
:100890002308D2002208D1002108D0002008CF0070
:0E08A000562B2208B6002108B500DB2B562C83
:02400E003A373F
:00000001FF
;PIC16F873A
;CRC=6684  CREATED="13-Oct-12 15:04"
