:10000000000000308A00282BFF00030E8301A600A9
:100010007F08A5000A08AD008A01A50E0408A70004
:100020002008A8002108A9002208AA002308AB0084
:100030002408AC00831383128C308400001C222817
:100040000C183F288D308400001C28280D184128EA
:100050008B1E2C280B194328270884002808A00091
:100060002908A1002A08A2002B08A3002C08A4003C
:100070002D088A00260E8300FF0E7F0E09008A11CC
:1000800053288A119B288A1145280130C707470841
:10009000033C031850280430CB00CA01C700C60136
:1000A0000B118A112C2843080F3C031C6228031DE6
:1000B0005D2842086D3C031C62280F30C3006E307F
:1000C000C20071284308113C03187128FF3A031D30
:1000D0006D284208C03C031871281230C300C0309C
:1000E000C200AF1C86288316861083128614AF10B8
:1000F00042084C3CE700FF30E8004308031C430F74
:10010000E80268088F0067088E009828831686101A
:1001100083128610AF14FC304207E7004308E80062
:100120003B3003183C30E80768088F0067088E00F2
:100130000C108A112C28C708031DA22846080A3C67
:100140000318AC2801084607CA004708CB0003186B
:10015000CB0A8101C701C6010D108A112C282E126D
:100160002E088316870083120716831686128312C1
:100170008616AE112E088316870083128715AE12DD
:100180002E0883168700831287168A11752B5C0848
:10019000DE005D08DF000330E00083168612831264
:1001A0008616AE112E0883168700831287112E1231
:1001B0002E088316870083120712E1016108173C9D
:1001C000031C0F296108033C0318EE286108073C53
:1001D0000318F32861080B3C031CF3280310DE0D01
:1001E000DF0DE00D0D290310DE0DDF0DE00D03180E
:1001F000FB288712FC288716AE122E08831687006C
:100200008312AE112E088316870083128715AE1154
:100210002E088316870083128711E10ADE282E122A
:100220002E08831687008312071683168612831200
:1002300086121030A000A00B1B2900008316861226
:1002400083128616003455308400000803193529BE
:100250000630A100A001A00B2B29A10B2A297B307D
:10026000A000A00B3129800B28298A11A22B8E30E7
:10027000A0005708A1005608A200A301A108031D71
:100280004B292208A100A2010830A002A108031DE9
:100290004B29A00153290310A11B5229A20DA10D26
:1002A000A0034B29A1138A11F62B5A080319C5295B
:1002B000E2005E080319C529E207031866297F30AA
:1002C000E202031CC5290319C5296A298130E20706
:1002D0000318C5296208A000A101A201A3015B08BF
:1002E000E600E6175C08E5005D08E4001830E2006F
:1002F000E301641C93296108A307031C8529A20A52
:10030000031D8529A10A0319E3176008A207031C2E
:100310008C29A10A0319E3175F08DC00DC175C08CD
:10032000A1070318E317E30DA10CA20CA30CE60C24
:10033000E50CE40C0310E20B78290130A007031848
:10034000C529A11BAA29E60DA30DA20DA10DA0038D
:100350000319C529E61FBB29A30A031DBB29A20A4D
:10036000031DBB29A10A031DBB29A10CA20CA30CD0
:10037000A00A0319C5295B08E3005F08E306E31F31
:10038000C329A117C929A113C929A001A101A2014B
:10039000A301003480308318DB06E001E101570837
:1003A000DF005B08DF0656080319B72ADE00A0004D
:1003B0005A080319C02ADE0203195D2A031C1C2AED
:1003C0005B08E400E4175C08E3005D08E200E1017B
:1003D0000310E40CE30CE20CE10CDE0BE729DF1F59
:1003E000F4296014D42A60105E106016593084001D
:1003F000E92A6012DF1B062A5E1C112AE40CE30CBA
:10040000E20CE10CA00A0319CF2A112AE41B142ADA
:100410000310E10DE20DE30DE40DA0030319CF2A53
:10042000062A60177C2A60135708DF00DF1F1A2A8C
:10043000E417C82AE413C82A5A08DE00A0005608A8
:10044000DE025708E400E4175808E3005908E20008
:10045000E1010310E40CE30CE20CE10CDE0B282AB2
:10046000DF1F352AE014D42AE0105E10E0165D305C
:100470008400E92AE012DF1B472A5E1C522AE40CA2
:10048000E30CE20CE10CA00A0319CF2A522AE41B68
:10049000552A0310E10DE20DE30DE40DA00303194D
:1004A000CF2A472AE0177C2AE0135B08DF00DF1F12
:1004B0005B2AE417C82AE413C82A5B08E400E4179F
:1004C0005C08E3005D08E200DF1F6A2AE4136015A0
:1004D000D42A6011E1015E1059308400E92ADF1B43
:1004E000922A5708DF005E1C7C2AE40CE30CE20C25
:1004F000E10CA00A0319CF2AE11F8D2AE20A031D8D
:100500008D2AE30A031D8D2AE40A031D8D2AE40CBB
:10051000E30CE20CA00A0319CF2A601B132AE01B8C
:10052000542AB12A8030E406E41F9A2AD42A5B08B0
:10053000DF00A72A5708DF00E408031DA72AE30805
:10054000031DA72AE208031DA72AA001C82AE41B4D
:10055000B12A0310E10DE20DE30DE40DA00BA72A73
:10056000CF2ADF1FB52AE417C82AE413C82A5A087D
:10057000A0005B08E4005C08E3005D08E200C82A14
:100580005608A0005708E4005808E3005908E200A4
:100590006408A1006308A2006208A300072BA00161
:1005A000A101A201A301072BE101E209E309E4098A
:1005B000E109E10A031DE22AE20A031DE22AE30A35
:1005C0000319E40A6018F329E018342A6019692A2B
:1005D000972A0008E207031CF32AE30A031DF32A03
:1005E000E40A03195E1484030008E307031CFB2AD2
:1005F000E40A03195E1484030008801F803AE407AC
:1006000003185E14601AF929E01A3A2A6F2A003496
:100610008E30A0005A08A0025B08A2005C08A1006E
:10062000A217A00803191F2B0310A208031D1B2BE0
:10063000A10803191F2BA20CA10CA00B142BDB1F6C
:10064000262BA109A209A10A0319A20A8A11452C85
:1006500084011F3083058316861183128615831645
:100660001F149F141F159F1107309C00FF30831229
:10067000AE002F10C030C2001230C300AF102F11D7
:10068000AF11C401C501C601C701C801C901CA0132
:10069000CB01CC01CD01CE01CF01D001D101D201DE
:1006A000D3012F1283161F149F141F159F1183123D
:1006B0001F10940183160108C039003881006400BE
:1006C000831290010030A100920000308316920046
:1006D0001F109F101F119F111F1383121F179F17A9
:1006E00083169F1783121F14AF289530900083162E
:1006F0000108C039063881008312AE142E08831613
:10070000870083129D0105309D0083160D1483120E
:100710008B1683160C14C03083128B0483160610BC
:1007200083120610DD01DC01C72083160611831237
:10073000061583160612831206120C30D400FA3006
:10074000D5002329D40B9F2B0830A1001F08C739DF
:1007500021049F002130A000A00BAC2B1F151F19F6
:10076000AF2B83161E088312D2001E08D300003060
:10077000A1001F08C73921049F002130A000A00B51
:10078000BF2B1F151F19C22B83161E088312D00002
:100790001E08D1005108013C031CD82B031DD42B8B
:1007A0005008313C031CD82B0130D1003230D0002E
:1007B0004A08C03CD4001230D5004B08031C4B0F34
:1007C000D502C8305407C2005508C3000318C30A35
:1007D00032305002D4005108D5000130031C0230E1
:1007E000D5025508D7005408D60037292308DD0064
:1007F0002208DC002108DB002008DA007430E10068
:100800004830E0004D30DF007F30DE00552183149A
:10081000D901D8011630D7008B30D6002308DD006F
:100820002208DC002108DB002008DA00CA2183143A
:10083000D901D8011630D7008B30D6002308DD004F
:100840002208DC002108DB002008DA00CA21200889
:10085000D6002108D7002208D8002308D900DD00DF
:100860002208DC002108DB002008DA00E101E001B9
:10087000DF018130DE0055212308DD002208DC0085
:100880002108DB002008DA00082B2208DB00210801
:10089000DA002208DD002108DC00C720A42B4F2C41
:02400E003A373F
:00000001FF
;PIC16F873A
;CRC=541C  CREATED="02-Feb-13 15:09"
