:10000000000000308A000A2BFF00030E8301A600C7
:100010007F08A5000A08AD008A01A50E0408A70004
:100020002008A8002108A9002208AA002308AB0084
:100030002408AC00831383128C308400001C222817
:100040000C183F288D308400001C28280D184128EA
:100050008B1E2C280B194328270884002808A00091
:100060002908A1002A08A2002B08A3002C08A4003C
:100070002D088A00260E8300FF0E7F0E09008A11CC
:1000800086288A1189288A1177280A108A100A116D
:10009000820742345234453441344B3449344E346F
:1000A000473420340A3400340A108A100A118207B7
:1000B0004D3461347834203425346C346434203445
:1000C00066346134633474346F34723420342534CC
:1000D0006C346434203461346E34643420347034CD
:1000E00069346434203425346C3464340034013091
:1000F000C7074708033C031883280530CB00CA0113
:100100000430C700C6010B118A112C280C108A116B
:100110002C28C708031D902846080A3C03189A2873
:1001200001084607CA004708CB000318CB0A810123
:10013000C701C6010D108A112C282E122E08831615
:100140008700831207168316861283128616AE1155
:100150002E088316870083128715AE122E08831689
:100160008700831287168A115B2B5C08DE005D080E
:10017000DF000330E0008316861283128616AE116C
:100180002E0883168700831287112E122E088316DD
:10019000870083120712E1016108173C031CFD2848
:1001A0006108033C0318DC286108073C0318E128B8
:1001B00061080B3C031CE1280310DE0DDF0DE00D90
:1001C000FB280310DE0DDF0DE00D0318E928871270
:1001D000EA288716AE122E08831687008312AE1106
:1001E0002E088316870083128715AE112E088316FA
:1001F000870083128711E10ACC282E122E0883165D
:100200008700831207168316861283128612103017
:10021000A000A00B092900008316861283128616FF
:10022000003483168611831286110830A100182924
:100230000000A1172929A113EE0C03188615031C31
:100240008611211729292113A10B1C292729000018
:1002500086150230A0008401840B2C29A00B2B29C9
:10026000AD308400840B322935290000A11B1B29E5
:10027000211B232900340408ED00E71F4729ED174F
:100280006D1EED0AE609E709E60A0319E70A670E9B
:10029000F038E900E907E23EEA00323EEC00670888
:1002A0000F39EA07EA07EC07E93EEB00EB07EB073B
:1002B000660E0F39EB07EC07EB0DEC0DEC09EC0DBE
:1002C00066080F39EC07E90D0730E8000A30EC0743
:1002D000EB03031C6729EB07EA03031C6B29EA07FE
:1002E000E903031C6F29E907E803031C732968303D
:1002F000840007306D056D1384036D05031D872988
:100300006D1A840A6D1A87292030A000A429840759
:100310006C30040203196D170008A000031D982912
:100320006D1B98296D1AAC29ED1998292030A32945
:10033000ED1FA0292D30A00084036D13ED13A42917
:10034000ED156D123030A007E7010408E600200823
:10035000EE00112166088400840A6D1F882900348C
:1003600002305E078400840A840A840A80018403C0
:10037000800184038001840380015E088400840A74
:1003800080018403800106305E078400840A5908D6
:10039000800084035808800008305E078400840AC7
:1003A0005B08800084035A0880000A305E078400DE
:1003B000840A5D08800084035C0880000C305E07BE
:1003C000DF0006305E078400840A0008E100840331
:1003D0000008E00001306007A1006108A3000318D5
:1003E000A30A2108E2002308E3007F30E500FF3084
:1003F000E4006308E7006208E600A101A201A00191
:10040000A3016708031D072A66080319212A103073
:10041000E8000310E40DE50DA00DA30D670823020D
:10042000031D142A66082002031C1D2A6608A00268
:10043000031CA3036708A3020314A10DA20DE80B7C
:10044000092A5F088400840A2208800084032108A6
:10045000800008305E078400840A0008E0008403FE
:100460000008DF000C305E078400840A0008E20008
:1004700084030008E100E30163085420E30AA000BC
:10048000EE00112104306302031D3C2A1030840069
:100490007F30E700FF30E6003B210730E4006408CE
:1004A0005420E40AA000EE0011210F306402031D65
:1004B0004F2A103084006008E7005F08E6003B2107
:1004C0001230E50065085420E50AA000EE00112175
:1004D0001B306502031D622A103084006208E700A9
:1004E0006108E6003B210E305E07DF0008305E0742
:1004F0008400840A0008E10084030008E000013061
:100500006007A1006108A3000318A30A2108E20004
:100510002308E3000408E4003F30E800FF30E70070
:10052000E600E500EC01EB016308EA006208E9007F
:10053000A001A101A201A301ED01EE01EF01F00173
:100540006C086B046A0469040319D62A2030F10090
:100550000310E50DE60DE70DE80DED0DEE0DEF0DC9
:10056000F00D6C087002031DBF2A6B086F02031D9B
:10057000BF2A6A086E02031DBF2A69086D02031CA8
:10058000D02A6908ED026A08031C6A0FEE026B08A4
:10059000031C6B0FEF026C08031C6C0FF0020314BA
:1005A000A00DA10DA20DA30DF10BA82A6D308400A2
:1005B000640884005F08840020088000840A210801
:1005C0008000840A22088000840A230880008A119F
:1005D0008D2B5930840000080319FB2A0630A10036
:1005E000A001A00BF12AA10BF02A7B30A000A00BE8
:1005F000F72A800BEE2A00340530DD001430DC00D1
:10060000B5200430D800FA30D900E922D80B032BEA
:100610008A11952B84011F3083058316861183125E
:10062000861583161F149F141F159F1107309C00F9
:10063000FF308312AE002F10B430C2001430C3005C
:10064000AF102F11AF11C401C501C601C701C80108
:10065000C901CA01CB01CC01CD01CE01CF01D0012E
:10066000D101D201D3012F12D401D501D601D70176
:1006700083161F149F141F159F1183121F109401BE
:1006800083160108C039003881006400831290018C
:100690000030A10092000030831692001F109F10BE
:1006A0001F119F111F1383121F179F1783169F1768
:1006B00083121F149D289530900083160108C039BD
:1006C000063881008312AE142E0883168700831229
:1006D0009D0105309D0083160D1483128B16831621
:1006E0000C14C03083128B0483160610831206107C
:1006F000DD01DC01B5208316061183120615831671
:10070000061283120612D9018030D800DB01DA010B
:10071000DD01DC013030DE00B0290C30D800FA30C9
:10072000D900E922D80B8F2BFC2A0830A1001F0822
:10073000C73921049F002130A000A00B9D2B1F155D
:100740001F19A02B83161E088312D2001E08D30087
:100750000030A1001F08C73921049F002130A000EC
:10076000A00BB02B1F151F19B32B83161E08831265
:10077000D0001E08D1005108013C031CC92B031DE9
:10078000C52B50083B3C031CC92B0130D1003C3029
:10079000D0004B08D7004A08D600831606128312F1
:1007A00006168316061083120614D8015808452031
:1007B000D80AA000EE0011210A305802031DD62BE2
:1007C000CD01C830CC004D08A3004C08CD1FF12B43
:1007D0004C08003CA000A3014D08031C4D0FA302D0
:1007E0002008D8002308D90084302007DA00230825
:1007F000DB00033003180430DB075B08DD005A0818
:08080000DC00B520952B032C50
:02400E003A373F
:00000001FF
;PIC16F873A
;CRC=DED2  CREATED="11-May-13 12:38"
